{
	"contracts/viewPureBasics.sol": {
		"basicViewPure": {
			"abi": [
				{
					"inputs": [],
					"name": "productSum",
					"outputs": [
						{
							"internalType": "uint256",
							"name": "sum",
							"type": "uint256"
						},
						{
							"internalType": "uint256",
							"name": "product",
							"type": "uint256"
						}
					],
					"stateMutability": "view",
					"type": "function"
				},
				{
					"inputs": [],
					"name": "pureSum",
					"outputs": [
						{
							"internalType": "uint256",
							"name": "sum",
							"type": "uint256"
						},
						{
							"internalType": "uint256",
							"name": "product",
							"type": "uint256"
						}
					],
					"stateMutability": "pure",
					"type": "function"
				}
			],
			"devdoc": {
				"kind": "dev",
				"methods": {},
				"version": 1
			},
			"evm": {
				"assembly": "    /* \"contracts/viewPureBasics.sol\":60:459  contract basicViewPure {... */\n  mstore(0x40, 0x80)\n    /* \"contracts/viewPureBasics.sol\":104:106  54 */\n  0x36\n    /* \"contracts/viewPureBasics.sol\":90:106  uint value1 = 54 */\n  0x00\n  sstore\n    /* \"contracts/viewPureBasics.sol\":127:129  65 */\n  0x41\n    /* \"contracts/viewPureBasics.sol\":113:129  uint value2 = 65 */\n  0x01\n  sstore\n    /* \"contracts/viewPureBasics.sol\":60:459  contract basicViewPure {... */\n  callvalue\n  dup1\n  iszero\n  tag_1\n  jumpi\n  0x00\n  dup1\n  revert\ntag_1:\n  pop\n  dataSize(sub_0)\n  dup1\n  dataOffset(sub_0)\n  0x00\n  codecopy\n  0x00\n  return\nstop\n\nsub_0: assembly {\n        /* \"contracts/viewPureBasics.sol\":60:459  contract basicViewPure {... */\n      mstore(0x40, 0x80)\n      callvalue\n      dup1\n      iszero\n      tag_1\n      jumpi\n      0x00\n      dup1\n      revert\n    tag_1:\n      pop\n      jumpi(tag_2, lt(calldatasize, 0x04))\n      shr(0xe0, calldataload(0x00))\n      dup1\n      0x4b69222e\n      eq\n      tag_3\n      jumpi\n      dup1\n      0xbeaad2ba\n      eq\n      tag_4\n      jumpi\n    tag_2:\n      0x00\n      dup1\n      revert\n        /* \"contracts/viewPureBasics.sol\":138:282  function productSum() public view returns(uint sum, uint product) {... */\n    tag_3:\n      tag_5\n      tag_6\n      jump\t// in\n    tag_5:\n      mload(0x40)\n      tag_7\n      swap3\n      swap2\n      swap1\n      tag_8\n      jump\t// in\n    tag_7:\n      mload(0x40)\n      dup1\n      swap2\n      sub\n      swap1\n      return\n        /* \"contracts/viewPureBasics.sol\":290:454  function pureSum() public pure returns(uint sum, uint product) {... */\n    tag_4:\n      tag_9\n      tag_10\n      jump\t// in\n    tag_9:\n      mload(0x40)\n      tag_11\n      swap3\n      swap2\n      swap1\n      tag_8\n      jump\t// in\n    tag_11:\n      mload(0x40)\n      dup1\n      swap2\n      sub\n      swap1\n      return\n        /* \"contracts/viewPureBasics.sol\":138:282  function productSum() public view returns(uint sum, uint product) {... */\n    tag_6:\n        /* \"contracts/viewPureBasics.sol\":180:188  uint sum */\n      0x00\n        /* \"contracts/viewPureBasics.sol\":190:202  uint product */\n      dup1\n        /* \"contracts/viewPureBasics.sol\":234:240  value2 */\n      sload(0x01)\n        /* \"contracts/viewPureBasics.sol\":225:231  value1 */\n      sload(0x00)\n        /* \"contracts/viewPureBasics.sol\":225:240  value1 * value2 */\n      tag_13\n      swap2\n      swap1\n      tag_14\n      jump\t// in\n    tag_13:\n        /* \"contracts/viewPureBasics.sol\":215:240  product = value1 * value2 */\n      swap1\n      pop\n        /* \"contracts/viewPureBasics.sol\":266:272  value2 */\n      sload(0x01)\n        /* \"contracts/viewPureBasics.sol\":257:263  value1 */\n      sload(0x00)\n        /* \"contracts/viewPureBasics.sol\":257:272  value1 + value2 */\n      tag_15\n      swap2\n      swap1\n      tag_16\n      jump\t// in\n    tag_15:\n        /* \"contracts/viewPureBasics.sol\":251:272  sum = value1 + value2 */\n      swap2\n      pop\n        /* \"contracts/viewPureBasics.sol\":138:282  function productSum() public view returns(uint sum, uint product) {... */\n      swap1\n      swap2\n      jump\t// out\n        /* \"contracts/viewPureBasics.sol\":290:454  function pureSum() public pure returns(uint sum, uint product) {... */\n    tag_10:\n        /* \"contracts/viewPureBasics.sol\":329:337  uint sum */\n      0x00\n        /* \"contracts/viewPureBasics.sol\":339:351  uint product */\n      dup1\n        /* \"contracts/viewPureBasics.sol\":364:370  uint a */\n      0x00\n        /* \"contracts/viewPureBasics.sol\":373:374  1 */\n      0x01\n        /* \"contracts/viewPureBasics.sol\":364:374  uint a = 1 */\n      swap1\n      pop\n        /* \"contracts/viewPureBasics.sol\":385:391  uint b */\n      0x00\n        /* \"contracts/viewPureBasics.sol\":394:395  3 */\n      0x03\n        /* \"contracts/viewPureBasics.sol\":385:395  uint b = 3 */\n      swap1\n      pop\n        /* \"contracts/viewPureBasics.sol\":423:424  b */\n      dup1\n        /* \"contracts/viewPureBasics.sol\":419:420  a */\n      dup3\n        /* \"contracts/viewPureBasics.sol\":419:424  a * b */\n      tag_18\n      swap2\n      swap1\n      tag_14\n      jump\t// in\n    tag_18:\n        /* \"contracts/viewPureBasics.sol\":409:424  product = a * b */\n      swap3\n      pop\n        /* \"contracts/viewPureBasics.sol\":445:446  b */\n      dup1\n        /* \"contracts/viewPureBasics.sol\":441:442  a */\n      dup3\n        /* \"contracts/viewPureBasics.sol\":441:446  a + b */\n      tag_19\n      swap2\n      swap1\n      tag_16\n      jump\t// in\n    tag_19:\n        /* \"contracts/viewPureBasics.sol\":435:446  sum = a + b */\n      swap4\n      pop\n        /* \"contracts/viewPureBasics.sol\":353:454  {... */\n      pop\n      pop\n        /* \"contracts/viewPureBasics.sol\":290:454  function pureSum() public pure returns(uint sum, uint product) {... */\n      swap1\n      swap2\n      jump\t// out\n        /* \"#utility.yul\":7:84   */\n    tag_20:\n        /* \"#utility.yul\":44:51   */\n      0x00\n        /* \"#utility.yul\":73:78   */\n      dup2\n        /* \"#utility.yul\":62:78   */\n      swap1\n      pop\n        /* \"#utility.yul\":7:84   */\n      swap2\n      swap1\n      pop\n      jump\t// out\n        /* \"#utility.yul\":90:208   */\n    tag_21:\n        /* \"#utility.yul\":177:201   */\n      tag_26\n        /* \"#utility.yul\":195:200   */\n      dup2\n        /* \"#utility.yul\":177:201   */\n      tag_20\n      jump\t// in\n    tag_26:\n        /* \"#utility.yul\":172:175   */\n      dup3\n        /* \"#utility.yul\":165:202   */\n      mstore\n        /* \"#utility.yul\":90:208   */\n      pop\n      pop\n      jump\t// out\n        /* \"#utility.yul\":214:546   */\n    tag_8:\n        /* \"#utility.yul\":335:339   */\n      0x00\n        /* \"#utility.yul\":373:375   */\n      0x40\n        /* \"#utility.yul\":362:371   */\n      dup3\n        /* \"#utility.yul\":358:376   */\n      add\n        /* \"#utility.yul\":350:376   */\n      swap1\n      pop\n        /* \"#utility.yul\":386:457   */\n      tag_28\n        /* \"#utility.yul\":454:455   */\n      0x00\n        /* \"#utility.yul\":443:452   */\n      dup4\n        /* \"#utility.yul\":439:456   */\n      add\n        /* \"#utility.yul\":430:436   */\n      dup6\n        /* \"#utility.yul\":386:457   */\n      tag_21\n      jump\t// in\n    tag_28:\n        /* \"#utility.yul\":467:539   */\n      tag_29\n        /* \"#utility.yul\":535:537   */\n      0x20\n        /* \"#utility.yul\":524:533   */\n      dup4\n        /* \"#utility.yul\":520:538   */\n      add\n        /* \"#utility.yul\":511:517   */\n      dup5\n        /* \"#utility.yul\":467:539   */\n      tag_21\n      jump\t// in\n    tag_29:\n        /* \"#utility.yul\":214:546   */\n      swap4\n      swap3\n      pop\n      pop\n      pop\n      jump\t// out\n        /* \"#utility.yul\":552:732   */\n    tag_22:\n        /* \"#utility.yul\":600:677   */\n      0x4e487b7100000000000000000000000000000000000000000000000000000000\n        /* \"#utility.yul\":597:598   */\n      0x00\n        /* \"#utility.yul\":590:678   */\n      mstore\n        /* \"#utility.yul\":697:701   */\n      0x11\n        /* \"#utility.yul\":694:695   */\n      0x04\n        /* \"#utility.yul\":687:702   */\n      mstore\n        /* \"#utility.yul\":721:725   */\n      0x24\n        /* \"#utility.yul\":718:719   */\n      0x00\n        /* \"#utility.yul\":711:726   */\n      revert\n        /* \"#utility.yul\":738:1148   */\n    tag_14:\n        /* \"#utility.yul\":778:785   */\n      0x00\n        /* \"#utility.yul\":801:821   */\n      tag_32\n        /* \"#utility.yul\":819:820   */\n      dup3\n        /* \"#utility.yul\":801:821   */\n      tag_20\n      jump\t// in\n    tag_32:\n        /* \"#utility.yul\":796:821   */\n      swap2\n      pop\n        /* \"#utility.yul\":835:855   */\n      tag_33\n        /* \"#utility.yul\":853:854   */\n      dup4\n        /* \"#utility.yul\":835:855   */\n      tag_20\n      jump\t// in\n    tag_33:\n        /* \"#utility.yul\":830:855   */\n      swap3\n      pop\n        /* \"#utility.yul\":890:891   */\n      dup3\n        /* \"#utility.yul\":887:888   */\n      dup3\n        /* \"#utility.yul\":883:892   */\n      mul\n        /* \"#utility.yul\":912:942   */\n      tag_34\n        /* \"#utility.yul\":930:941   */\n      dup2\n        /* \"#utility.yul\":912:942   */\n      tag_20\n      jump\t// in\n    tag_34:\n        /* \"#utility.yul\":901:942   */\n      swap2\n      pop\n        /* \"#utility.yul\":1091:1092   */\n      dup3\n        /* \"#utility.yul\":1082:1089   */\n      dup3\n        /* \"#utility.yul\":1078:1093   */\n      div\n        /* \"#utility.yul\":1075:1076   */\n      dup5\n        /* \"#utility.yul\":1072:1094   */\n      eq\n        /* \"#utility.yul\":1052:1053   */\n      dup4\n        /* \"#utility.yul\":1045:1054   */\n      iszero\n        /* \"#utility.yul\":1025:1108   */\n      or\n        /* \"#utility.yul\":1002:1141   */\n      tag_35\n      jumpi\n        /* \"#utility.yul\":1121:1139   */\n      tag_36\n      tag_22\n      jump\t// in\n    tag_36:\n        /* \"#utility.yul\":1002:1141   */\n    tag_35:\n        /* \"#utility.yul\":786:1148   */\n      pop\n        /* \"#utility.yul\":738:1148   */\n      swap3\n      swap2\n      pop\n      pop\n      jump\t// out\n        /* \"#utility.yul\":1154:1345   */\n    tag_16:\n        /* \"#utility.yul\":1194:1197   */\n      0x00\n        /* \"#utility.yul\":1213:1233   */\n      tag_38\n        /* \"#utility.yul\":1231:1232   */\n      dup3\n        /* \"#utility.yul\":1213:1233   */\n      tag_20\n      jump\t// in\n    tag_38:\n        /* \"#utility.yul\":1208:1233   */\n      swap2\n      pop\n        /* \"#utility.yul\":1247:1267   */\n      tag_39\n        /* \"#utility.yul\":1265:1266   */\n      dup4\n        /* \"#utility.yul\":1247:1267   */\n      tag_20\n      jump\t// in\n    tag_39:\n        /* \"#utility.yul\":1242:1267   */\n      swap3\n      pop\n        /* \"#utility.yul\":1290:1291   */\n      dup3\n        /* \"#utility.yul\":1287:1288   */\n      dup3\n        /* \"#utility.yul\":1283:1292   */\n      add\n        /* \"#utility.yul\":1276:1292   */\n      swap1\n      pop\n        /* \"#utility.yul\":1311:1314   */\n      dup1\n        /* \"#utility.yul\":1308:1309   */\n      dup3\n        /* \"#utility.yul\":1305:1315   */\n      gt\n        /* \"#utility.yul\":1302:1338   */\n      iszero\n      tag_40\n      jumpi\n        /* \"#utility.yul\":1318:1336   */\n      tag_41\n      tag_22\n      jump\t// in\n    tag_41:\n        /* \"#utility.yul\":1302:1338   */\n    tag_40:\n        /* \"#utility.yul\":1154:1345   */\n      swap3\n      swap2\n      pop\n      pop\n      jump\t// out\n\n    auxdata: 0xa26469706673582212207db3eda1abe00574e26ce59902842916401f49024ac2935e28296da4a751183d64736f6c634300081a0033\n}\n",
				"bytecode": {
					"linkReferences": {},
					"object": "608060405260365f5560416001553480156017575f80fd5b506101e2806100255f395ff3fe608060405234801561000f575f80fd5b5060043610610034575f3560e01c80634b69222e14610038578063beaad2ba14610057575b5f80fd5b610040610076565b60405161004e9291906100e4565b60405180910390f35b61005f61009e565b60405161006d9291906100e4565b60405180910390f35b5f806001545f546100879190610138565b90506001545f546100989190610179565b91509091565b5f805f600190505f6003905080826100b69190610138565b925080826100c49190610179565b935050509091565b5f819050919050565b6100de816100cc565b82525050565b5f6040820190506100f75f8301856100d5565b61010460208301846100d5565b9392505050565b7f4e487b71000000000000000000000000000000000000000000000000000000005f52601160045260245ffd5b5f610142826100cc565b915061014d836100cc565b925082820261015b816100cc565b915082820484148315176101725761017161010b565b5b5092915050565b5f610183826100cc565b915061018e836100cc565b92508282019050808211156101a6576101a561010b565b5b9291505056fea26469706673582212207db3eda1abe00574e26ce59902842916401f49024ac2935e28296da4a751183d64736f6c634300081a0033",
					"opcodes": "PUSH1 0x80 PUSH1 0x40 MSTORE PUSH1 0x36 PUSH0 SSTORE PUSH1 0x41 PUSH1 0x1 SSTORE CALLVALUE DUP1 ISZERO PUSH1 0x17 JUMPI PUSH0 DUP1 REVERT JUMPDEST POP PUSH2 0x1E2 DUP1 PUSH2 0x25 PUSH0 CODECOPY PUSH0 RETURN INVALID PUSH1 0x80 PUSH1 0x40 MSTORE CALLVALUE DUP1 ISZERO PUSH2 0xF JUMPI PUSH0 DUP1 REVERT JUMPDEST POP PUSH1 0x4 CALLDATASIZE LT PUSH2 0x34 JUMPI PUSH0 CALLDATALOAD PUSH1 0xE0 SHR DUP1 PUSH4 0x4B69222E EQ PUSH2 0x38 JUMPI DUP1 PUSH4 0xBEAAD2BA EQ PUSH2 0x57 JUMPI JUMPDEST PUSH0 DUP1 REVERT JUMPDEST PUSH2 0x40 PUSH2 0x76 JUMP JUMPDEST PUSH1 0x40 MLOAD PUSH2 0x4E SWAP3 SWAP2 SWAP1 PUSH2 0xE4 JUMP JUMPDEST PUSH1 0x40 MLOAD DUP1 SWAP2 SUB SWAP1 RETURN JUMPDEST PUSH2 0x5F PUSH2 0x9E JUMP JUMPDEST PUSH1 0x40 MLOAD PUSH2 0x6D SWAP3 SWAP2 SWAP1 PUSH2 0xE4 JUMP JUMPDEST PUSH1 0x40 MLOAD DUP1 SWAP2 SUB SWAP1 RETURN JUMPDEST PUSH0 DUP1 PUSH1 0x1 SLOAD PUSH0 SLOAD PUSH2 0x87 SWAP2 SWAP1 PUSH2 0x138 JUMP JUMPDEST SWAP1 POP PUSH1 0x1 SLOAD PUSH0 SLOAD PUSH2 0x98 SWAP2 SWAP1 PUSH2 0x179 JUMP JUMPDEST SWAP2 POP SWAP1 SWAP2 JUMP JUMPDEST PUSH0 DUP1 PUSH0 PUSH1 0x1 SWAP1 POP PUSH0 PUSH1 0x3 SWAP1 POP DUP1 DUP3 PUSH2 0xB6 SWAP2 SWAP1 PUSH2 0x138 JUMP JUMPDEST SWAP3 POP DUP1 DUP3 PUSH2 0xC4 SWAP2 SWAP1 PUSH2 0x179 JUMP JUMPDEST SWAP4 POP POP POP SWAP1 SWAP2 JUMP JUMPDEST PUSH0 DUP2 SWAP1 POP SWAP2 SWAP1 POP JUMP JUMPDEST PUSH2 0xDE DUP2 PUSH2 0xCC JUMP JUMPDEST DUP3 MSTORE POP POP JUMP JUMPDEST PUSH0 PUSH1 0x40 DUP3 ADD SWAP1 POP PUSH2 0xF7 PUSH0 DUP4 ADD DUP6 PUSH2 0xD5 JUMP JUMPDEST PUSH2 0x104 PUSH1 0x20 DUP4 ADD DUP5 PUSH2 0xD5 JUMP JUMPDEST SWAP4 SWAP3 POP POP POP JUMP JUMPDEST PUSH32 0x4E487B7100000000000000000000000000000000000000000000000000000000 PUSH0 MSTORE PUSH1 0x11 PUSH1 0x4 MSTORE PUSH1 0x24 PUSH0 REVERT JUMPDEST PUSH0 PUSH2 0x142 DUP3 PUSH2 0xCC JUMP JUMPDEST SWAP2 POP PUSH2 0x14D DUP4 PUSH2 0xCC JUMP JUMPDEST SWAP3 POP DUP3 DUP3 MUL PUSH2 0x15B DUP2 PUSH2 0xCC JUMP JUMPDEST SWAP2 POP DUP3 DUP3 DIV DUP5 EQ DUP4 ISZERO OR PUSH2 0x172 JUMPI PUSH2 0x171 PUSH2 0x10B JUMP JUMPDEST JUMPDEST POP SWAP3 SWAP2 POP POP JUMP JUMPDEST PUSH0 PUSH2 0x183 DUP3 PUSH2 0xCC JUMP JUMPDEST SWAP2 POP PUSH2 0x18E DUP4 PUSH2 0xCC JUMP JUMPDEST SWAP3 POP DUP3 DUP3 ADD SWAP1 POP DUP1 DUP3 GT ISZERO PUSH2 0x1A6 JUMPI PUSH2 0x1A5 PUSH2 0x10B JUMP JUMPDEST JUMPDEST SWAP3 SWAP2 POP POP JUMP INVALID LOG2 PUSH5 0x6970667358 0x22 SLT KECCAK256 PUSH30 0xB3EDA1ABE00574E26CE59902842916401F49024AC2935E28296DA4A75118 RETURNDATASIZE PUSH5 0x736F6C6343 STOP ADDMOD BYTE STOP CALLER "
				},
				"gasEstimates": {
					"creation": {
						"codeDepositCost": "96400",
						"executionCost": "44356",
						"totalCost": "140756"
					},
					"external": {
						"productSum()": "infinite",
						"pureSum()": "infinite"
					}
				},
				"methodIdentifiers": {
					"productSum()": "4b69222e",
					"pureSum()": "beaad2ba"
				}
			},
			"storageLayout": {
				"storage": [
					{
						"astId": 4,
						"contract": "contracts/viewPureBasics.sol:basicViewPure",
						"label": "value1",
						"offset": 0,
						"slot": "0",
						"type": "t_uint256"
					},
					{
						"astId": 7,
						"contract": "contracts/viewPureBasics.sol:basicViewPure",
						"label": "value2",
						"offset": 0,
						"slot": "1",
						"type": "t_uint256"
					}
				],
				"types": {
					"t_uint256": {
						"encoding": "inplace",
						"label": "uint256",
						"numberOfBytes": "32"
					}
				}
			},
			"userdoc": {
				"kind": "user",
				"methods": {},
				"version": 1
			}
		}
	}
}