{
	"contracts/contractBasic.sol": {
		"contractBasic": {
			"abi": [
				{
					"inputs": [],
					"name": "getByteLength",
					"outputs": [
						{
							"internalType": "uint256",
							"name": "",
							"type": "uint256"
						}
					],
					"stateMutability": "view",
					"type": "function"
				},
				{
					"inputs": [],
					"name": "getByteLength2",
					"outputs": [
						{
							"internalType": "uint256",
							"name": "",
							"type": "uint256"
						}
					],
					"stateMutability": "view",
					"type": "function"
				},
				{
					"inputs": [
						{
							"internalType": "string",
							"name": "_userName",
							"type": "string"
						},
						{
							"internalType": "string",
							"name": "_passWord",
							"type": "string"
						}
					],
					"name": "getDetails",
					"outputs": [],
					"stateMutability": "nonpayable",
					"type": "function"
				},
				{
					"inputs": [],
					"name": "passBytes",
					"outputs": [
						{
							"internalType": "bytes",
							"name": "",
							"type": "bytes"
						}
					],
					"stateMutability": "view",
					"type": "function"
				},
				{
					"inputs": [],
					"name": "passWord",
					"outputs": [
						{
							"internalType": "string",
							"name": "",
							"type": "string"
						}
					],
					"stateMutability": "view",
					"type": "function"
				},
				{
					"inputs": [],
					"name": "userBytes",
					"outputs": [
						{
							"internalType": "bytes",
							"name": "",
							"type": "bytes"
						}
					],
					"stateMutability": "view",
					"type": "function"
				},
				{
					"inputs": [],
					"name": "userName",
					"outputs": [
						{
							"internalType": "string",
							"name": "",
							"type": "string"
						}
					],
					"stateMutability": "view",
					"type": "function"
				},
				{
					"inputs": [
						{
							"internalType": "string",
							"name": "_userName",
							"type": "string"
						},
						{
							"internalType": "string",
							"name": "_passWord",
							"type": "string"
						}
					],
					"name": "verifyProfile",
					"outputs": [
						{
							"internalType": "bool",
							"name": "",
							"type": "bool"
						}
					],
					"stateMutability": "view",
					"type": "function"
				}
			],
			"devdoc": {
				"kind": "dev",
				"methods": {},
				"version": 1
			},
			"evm": {
				"assembly": "    /* \"contracts/contractBasic.sol\":60:866  contract contractBasic {... */\n  mstore(0x40, 0x80)\n    /* \"contracts/contractBasic.sol\":90:128  string public userName = \"Jangidlksh1\" */\n  mload(0x40)\n  dup1\n  0x40\n  add\n  0x40\n  mstore\n  dup1\n  0x0b\n  dup2\n  mstore\n  0x20\n  add\n  0x4a616e6769646c6b736831000000000000000000000000000000000000000000\n  dup2\n  mstore\n  pop\n  0x00\n  swap1\n  dup2\n  tag_1\n  swap2\n  swap1\n  tag_2\n  jump\t// in\ntag_1:\n  pop\n    /* \"contracts/contractBasic.sol\":135:180  bytes public userBytes = unicode\"Jangidlksh1\" */\n  mload(0x40)\n  dup1\n  0x40\n  add\n  0x40\n  mstore\n  dup1\n  0x0b\n  dup2\n  mstore\n  0x20\n  add\n  0x4a616e6769646c6b736831000000000000000000000000000000000000000000\n  dup2\n  mstore\n  pop\n  0x01\n  swap1\n  dup2\n  tag_3\n  swap2\n  swap1\n  tag_4\n  jump\t// in\ntag_3:\n  pop\n    /* \"contracts/contractBasic.sol\":187:222  string public passWord = \"Raja@123\" */\n  mload(0x40)\n  dup1\n  0x40\n  add\n  0x40\n  mstore\n  dup1\n  0x08\n  dup2\n  mstore\n  0x20\n  add\n  0x52616a6140313233000000000000000000000000000000000000000000000000\n  dup2\n  mstore\n  pop\n  0x02\n  swap1\n  dup2\n  tag_5\n  swap2\n  swap1\n  tag_2\n  jump\t// in\ntag_5:\n  pop\n    /* \"contracts/contractBasic.sol\":229:271  bytes public passBytes = unicode\"Raja@123\" */\n  mload(0x40)\n  dup1\n  0x40\n  add\n  0x40\n  mstore\n  dup1\n  0x08\n  dup2\n  mstore\n  0x20\n  add\n  0x52616a6140313233000000000000000000000000000000000000000000000000\n  dup2\n  mstore\n  pop\n  0x03\n  swap1\n  dup2\n  tag_6\n  swap2\n  swap1\n  tag_4\n  jump\t// in\ntag_6:\n  pop\n    /* \"contracts/contractBasic.sol\":60:866  contract contractBasic {... */\n  callvalue\n  dup1\n  iszero\n  tag_7\n  jumpi\n  0x00\n  dup1\n  revert\ntag_7:\n  pop\n  jump(tag_8)\n    /* \"#utility.yul\":7:106   */\ntag_9:\n    /* \"#utility.yul\":59:65   */\n  0x00\n    /* \"#utility.yul\":93:98   */\n  dup2\n    /* \"#utility.yul\":87:99   */\n  mload\n    /* \"#utility.yul\":77:99   */\n  swap1\n  pop\n    /* \"#utility.yul\":7:106   */\n  swap2\n  swap1\n  pop\n  jump\t// out\n    /* \"#utility.yul\":112:292   */\ntag_10:\n    /* \"#utility.yul\":160:237   */\n  0x4e487b7100000000000000000000000000000000000000000000000000000000\n    /* \"#utility.yul\":157:158   */\n  0x00\n    /* \"#utility.yul\":150:238   */\n  mstore\n    /* \"#utility.yul\":257:261   */\n  0x41\n    /* \"#utility.yul\":254:255   */\n  0x04\n    /* \"#utility.yul\":247:262   */\n  mstore\n    /* \"#utility.yul\":281:285   */\n  0x24\n    /* \"#utility.yul\":278:279   */\n  0x00\n    /* \"#utility.yul\":271:286   */\n  revert\n    /* \"#utility.yul\":298:478   */\ntag_11:\n    /* \"#utility.yul\":346:423   */\n  0x4e487b7100000000000000000000000000000000000000000000000000000000\n    /* \"#utility.yul\":343:344   */\n  0x00\n    /* \"#utility.yul\":336:424   */\n  mstore\n    /* \"#utility.yul\":443:447   */\n  0x22\n    /* \"#utility.yul\":440:441   */\n  0x04\n    /* \"#utility.yul\":433:448   */\n  mstore\n    /* \"#utility.yul\":467:471   */\n  0x24\n    /* \"#utility.yul\":464:465   */\n  0x00\n    /* \"#utility.yul\":457:472   */\n  revert\n    /* \"#utility.yul\":484:804   */\ntag_12:\n    /* \"#utility.yul\":528:534   */\n  0x00\n    /* \"#utility.yul\":565:566   */\n  0x02\n    /* \"#utility.yul\":559:563   */\n  dup3\n    /* \"#utility.yul\":555:567   */\n  div\n    /* \"#utility.yul\":545:567   */\n  swap1\n  pop\n    /* \"#utility.yul\":612:613   */\n  0x01\n    /* \"#utility.yul\":606:610   */\n  dup3\n    /* \"#utility.yul\":602:614   */\n  and\n    /* \"#utility.yul\":633:651   */\n  dup1\n    /* \"#utility.yul\":623:704   */\n  tag_36\n  jumpi\n    /* \"#utility.yul\":689:693   */\n  0x7f\n    /* \"#utility.yul\":681:687   */\n  dup3\n    /* \"#utility.yul\":677:694   */\n  and\n    /* \"#utility.yul\":667:694   */\n  swap2\n  pop\n    /* \"#utility.yul\":623:704   */\ntag_36:\n    /* \"#utility.yul\":751:753   */\n  0x20\n    /* \"#utility.yul\":743:749   */\n  dup3\n    /* \"#utility.yul\":740:754   */\n  lt\n    /* \"#utility.yul\":720:738   */\n  dup2\n    /* \"#utility.yul\":717:755   */\n  sub\n    /* \"#utility.yul\":714:798   */\n  tag_37\n  jumpi\n    /* \"#utility.yul\":770:788   */\n  tag_38\n  tag_11\n  jump\t// in\ntag_38:\n    /* \"#utility.yul\":714:798   */\ntag_37:\n    /* \"#utility.yul\":535:804   */\n  pop\n    /* \"#utility.yul\":484:804   */\n  swap2\n  swap1\n  pop\n  jump\t// out\n    /* \"#utility.yul\":810:951   */\ntag_13:\n    /* \"#utility.yul\":859:863   */\n  0x00\n    /* \"#utility.yul\":882:885   */\n  dup2\n    /* \"#utility.yul\":874:885   */\n  swap1\n  pop\n    /* \"#utility.yul\":905:908   */\n  dup2\n    /* \"#utility.yul\":902:903   */\n  0x00\n    /* \"#utility.yul\":895:909   */\n  mstore\n    /* \"#utility.yul\":939:943   */\n  0x20\n    /* \"#utility.yul\":936:937   */\n  0x00\n    /* \"#utility.yul\":926:944   */\n  keccak256\n    /* \"#utility.yul\":918:944   */\n  swap1\n  pop\n    /* \"#utility.yul\":810:951   */\n  swap2\n  swap1\n  pop\n  jump\t// out\n    /* \"#utility.yul\":957:1050   */\ntag_14:\n    /* \"#utility.yul\":994:1000   */\n  0x00\n    /* \"#utility.yul\":1041:1043   */\n  0x20\n    /* \"#utility.yul\":1036:1038   */\n  0x1f\n    /* \"#utility.yul\":1029:1034   */\n  dup4\n    /* \"#utility.yul\":1025:1039   */\n  add\n    /* \"#utility.yul\":1021:1044   */\n  div\n    /* \"#utility.yul\":1011:1044   */\n  swap1\n  pop\n    /* \"#utility.yul\":957:1050   */\n  swap2\n  swap1\n  pop\n  jump\t// out\n    /* \"#utility.yul\":1056:1163   */\ntag_15:\n    /* \"#utility.yul\":1100:1108   */\n  0x00\n    /* \"#utility.yul\":1150:1155   */\n  dup3\n    /* \"#utility.yul\":1144:1148   */\n  dup3\n    /* \"#utility.yul\":1140:1156   */\n  shl\n    /* \"#utility.yul\":1119:1156   */\n  swap1\n  pop\n    /* \"#utility.yul\":1056:1163   */\n  swap3\n  swap2\n  pop\n  pop\n  jump\t// out\n    /* \"#utility.yul\":1169:1562   */\ntag_16:\n    /* \"#utility.yul\":1238:1244   */\n  0x00\n    /* \"#utility.yul\":1288:1289   */\n  0x08\n    /* \"#utility.yul\":1276:1286   */\n  dup4\n    /* \"#utility.yul\":1272:1290   */\n  mul\n    /* \"#utility.yul\":1311:1408   */\n  tag_43\n    /* \"#utility.yul\":1341:1407   */\n  0xffffffffffffffffffffffffffffffffffffffffffffffffffffffffffffffff\n    /* \"#utility.yul\":1330:1339   */\n  dup3\n    /* \"#utility.yul\":1311:1408   */\n  tag_15\n  jump\t// in\ntag_43:\n    /* \"#utility.yul\":1429:1468   */\n  tag_44\n    /* \"#utility.yul\":1459:1467   */\n  dup7\n    /* \"#utility.yul\":1448:1457   */\n  dup4\n    /* \"#utility.yul\":1429:1468   */\n  tag_15\n  jump\t// in\ntag_44:\n    /* \"#utility.yul\":1417:1468   */\n  swap6\n  pop\n    /* \"#utility.yul\":1501:1505   */\n  dup1\n    /* \"#utility.yul\":1497:1506   */\n  not\n    /* \"#utility.yul\":1490:1495   */\n  dup5\n    /* \"#utility.yul\":1486:1507   */\n  and\n    /* \"#utility.yul\":1477:1507   */\n  swap4\n  pop\n    /* \"#utility.yul\":1550:1554   */\n  dup1\n    /* \"#utility.yul\":1540:1548   */\n  dup7\n    /* \"#utility.yul\":1536:1555   */\n  and\n    /* \"#utility.yul\":1529:1534   */\n  dup5\n    /* \"#utility.yul\":1526:1556   */\n  or\n    /* \"#utility.yul\":1516:1556   */\n  swap3\n  pop\n    /* \"#utility.yul\":1245:1562   */\n  pop\n  pop\n    /* \"#utility.yul\":1169:1562   */\n  swap4\n  swap3\n  pop\n  pop\n  pop\n  jump\t// out\n    /* \"#utility.yul\":1568:1645   */\ntag_17:\n    /* \"#utility.yul\":1605:1612   */\n  0x00\n    /* \"#utility.yul\":1634:1639   */\n  dup2\n    /* \"#utility.yul\":1623:1639   */\n  swap1\n  pop\n    /* \"#utility.yul\":1568:1645   */\n  swap2\n  swap1\n  pop\n  jump\t// out\n    /* \"#utility.yul\":1651:1711   */\ntag_18:\n    /* \"#utility.yul\":1679:1682   */\n  0x00\n    /* \"#utility.yul\":1700:1705   */\n  dup2\n    /* \"#utility.yul\":1693:1705   */\n  swap1\n  pop\n    /* \"#utility.yul\":1651:1711   */\n  swap2\n  swap1\n  pop\n  jump\t// out\n    /* \"#utility.yul\":1717:1859   */\ntag_19:\n    /* \"#utility.yul\":1767:1776   */\n  0x00\n    /* \"#utility.yul\":1800:1853   */\n  tag_48\n    /* \"#utility.yul\":1818:1852   */\n  tag_49\n    /* \"#utility.yul\":1827:1851   */\n  tag_50\n    /* \"#utility.yul\":1845:1850   */\n  dup5\n    /* \"#utility.yul\":1827:1851   */\n  tag_17\n  jump\t// in\ntag_50:\n    /* \"#utility.yul\":1818:1852   */\n  tag_18\n  jump\t// in\ntag_49:\n    /* \"#utility.yul\":1800:1853   */\n  tag_17\n  jump\t// in\ntag_48:\n    /* \"#utility.yul\":1787:1853   */\n  swap1\n  pop\n    /* \"#utility.yul\":1717:1859   */\n  swap2\n  swap1\n  pop\n  jump\t// out\n    /* \"#utility.yul\":1865:1940   */\ntag_20:\n    /* \"#utility.yul\":1908:1911   */\n  0x00\n    /* \"#utility.yul\":1929:1934   */\n  dup2\n    /* \"#utility.yul\":1922:1934   */\n  swap1\n  pop\n    /* \"#utility.yul\":1865:1940   */\n  swap2\n  swap1\n  pop\n  jump\t// out\n    /* \"#utility.yul\":1946:2215   */\ntag_21:\n    /* \"#utility.yul\":2056:2095   */\n  tag_53\n    /* \"#utility.yul\":2087:2094   */\n  dup4\n    /* \"#utility.yul\":2056:2095   */\n  tag_19\n  jump\t// in\ntag_53:\n    /* \"#utility.yul\":2117:2208   */\n  tag_54\n    /* \"#utility.yul\":2166:2207   */\n  tag_55\n    /* \"#utility.yul\":2190:2206   */\n  dup3\n    /* \"#utility.yul\":2166:2207   */\n  tag_20\n  jump\t// in\ntag_55:\n    /* \"#utility.yul\":2158:2164   */\n  dup5\n    /* \"#utility.yul\":2151:2155   */\n  dup5\n    /* \"#utility.yul\":2145:2156   */\n  sload\n    /* \"#utility.yul\":2117:2208   */\n  tag_16\n  jump\t// in\ntag_54:\n    /* \"#utility.yul\":2111:2115   */\n  dup3\n    /* \"#utility.yul\":2104:2209   */\n  sstore\n    /* \"#utility.yul\":2022:2215   */\n  pop\n    /* \"#utility.yul\":1946:2215   */\n  pop\n  pop\n  pop\n  jump\t// out\n    /* \"#utility.yul\":2221:2294   */\ntag_22:\n    /* \"#utility.yul\":2266:2269   */\n  0x00\n    /* \"#utility.yul\":2221:2294   */\n  swap1\n  jump\t// out\n    /* \"#utility.yul\":2300:2489   */\ntag_23:\n    /* \"#utility.yul\":2377:2409   */\n  tag_58\n  tag_22\n  jump\t// in\ntag_58:\n    /* \"#utility.yul\":2418:2483   */\n  tag_59\n    /* \"#utility.yul\":2476:2482   */\n  dup2\n    /* \"#utility.yul\":2468:2474   */\n  dup5\n    /* \"#utility.yul\":2462:2466   */\n  dup5\n    /* \"#utility.yul\":2418:2483   */\n  tag_21\n  jump\t// in\ntag_59:\n    /* \"#utility.yul\":2353:2489   */\n  pop\n    /* \"#utility.yul\":2300:2489   */\n  pop\n  pop\n  jump\t// out\n    /* \"#utility.yul\":2495:2681   */\ntag_24:\n    /* \"#utility.yul\":2555:2675   */\ntag_61:\n    /* \"#utility.yul\":2572:2575   */\n  dup2\n    /* \"#utility.yul\":2565:2570   */\n  dup2\n    /* \"#utility.yul\":2562:2576   */\n  lt\n    /* \"#utility.yul\":2555:2675   */\n  iszero\n  tag_63\n  jumpi\n    /* \"#utility.yul\":2626:2665   */\n  tag_64\n    /* \"#utility.yul\":2663:2664   */\n  0x00\n    /* \"#utility.yul\":2656:2661   */\n  dup3\n    /* \"#utility.yul\":2626:2665   */\n  tag_23\n  jump\t// in\ntag_64:\n    /* \"#utility.yul\":2599:2600   */\n  0x01\n    /* \"#utility.yul\":2592:2597   */\n  dup2\n    /* \"#utility.yul\":2588:2601   */\n  add\n    /* \"#utility.yul\":2579:2601   */\n  swap1\n  pop\n    /* \"#utility.yul\":2555:2675   */\n  jump(tag_61)\ntag_63:\n    /* \"#utility.yul\":2495:2681   */\n  pop\n  pop\n  jump\t// out\n    /* \"#utility.yul\":2687:3230   */\ntag_25:\n    /* \"#utility.yul\":2788:2790   */\n  0x1f\n    /* \"#utility.yul\":2783:2786   */\n  dup3\n    /* \"#utility.yul\":2780:2791   */\n  gt\n    /* \"#utility.yul\":2777:3223   */\n  iszero\n  tag_66\n  jumpi\n    /* \"#utility.yul\":2822:2860   */\n  tag_67\n    /* \"#utility.yul\":2854:2859   */\n  dup2\n    /* \"#utility.yul\":2822:2860   */\n  tag_13\n  jump\t// in\ntag_67:\n    /* \"#utility.yul\":2906:2935   */\n  tag_68\n    /* \"#utility.yul\":2924:2934   */\n  dup5\n    /* \"#utility.yul\":2906:2935   */\n  tag_14\n  jump\t// in\ntag_68:\n    /* \"#utility.yul\":2896:2904   */\n  dup2\n    /* \"#utility.yul\":2892:2936   */\n  add\n    /* \"#utility.yul\":3089:3091   */\n  0x20\n    /* \"#utility.yul\":3077:3087   */\n  dup6\n    /* \"#utility.yul\":3074:3092   */\n  lt\n    /* \"#utility.yul\":3071:3120   */\n  iszero\n  tag_69\n  jumpi\n    /* \"#utility.yul\":3110:3118   */\n  dup2\n    /* \"#utility.yul\":3095:3118   */\n  swap1\n  pop\n    /* \"#utility.yul\":3071:3120   */\ntag_69:\n    /* \"#utility.yul\":3133:3213   */\n  tag_70\n    /* \"#utility.yul\":3189:3211   */\n  tag_71\n    /* \"#utility.yul\":3207:3210   */\n  dup6\n    /* \"#utility.yul\":3189:3211   */\n  tag_14\n  jump\t// in\ntag_71:\n    /* \"#utility.yul\":3179:3187   */\n  dup4\n    /* \"#utility.yul\":3175:3212   */\n  add\n    /* \"#utility.yul\":3162:3173   */\n  dup3\n    /* \"#utility.yul\":3133:3213   */\n  tag_24\n  jump\t// in\ntag_70:\n    /* \"#utility.yul\":2792:3223   */\n  pop\n  pop\n    /* \"#utility.yul\":2777:3223   */\ntag_66:\n    /* \"#utility.yul\":2687:3230   */\n  pop\n  pop\n  pop\n  jump\t// out\n    /* \"#utility.yul\":3236:3353   */\ntag_26:\n    /* \"#utility.yul\":3290:3298   */\n  0x00\n    /* \"#utility.yul\":3340:3345   */\n  dup3\n    /* \"#utility.yul\":3334:3338   */\n  dup3\n    /* \"#utility.yul\":3330:3346   */\n  shr\n    /* \"#utility.yul\":3309:3346   */\n  swap1\n  pop\n    /* \"#utility.yul\":3236:3353   */\n  swap3\n  swap2\n  pop\n  pop\n  jump\t// out\n    /* \"#utility.yul\":3359:3528   */\ntag_27:\n    /* \"#utility.yul\":3403:3409   */\n  0x00\n    /* \"#utility.yul\":3436:3487   */\n  tag_74\n    /* \"#utility.yul\":3484:3485   */\n  0x00\n    /* \"#utility.yul\":3480:3486   */\n  not\n    /* \"#utility.yul\":3472:3477   */\n  dup5\n    /* \"#utility.yul\":3469:3470   */\n  0x08\n    /* \"#utility.yul\":3465:3478   */\n  mul\n    /* \"#utility.yul\":3436:3487   */\n  tag_26\n  jump\t// in\ntag_74:\n    /* \"#utility.yul\":3432:3488   */\n  not\n    /* \"#utility.yul\":3517:3521   */\n  dup1\n    /* \"#utility.yul\":3511:3515   */\n  dup4\n    /* \"#utility.yul\":3507:3522   */\n  and\n    /* \"#utility.yul\":3497:3522   */\n  swap2\n  pop\n    /* \"#utility.yul\":3410:3528   */\n  pop\n    /* \"#utility.yul\":3359:3528   */\n  swap3\n  swap2\n  pop\n  pop\n  jump\t// out\n    /* \"#utility.yul\":3533:3828   */\ntag_28:\n    /* \"#utility.yul\":3609:3613   */\n  0x00\n    /* \"#utility.yul\":3755:3784   */\n  tag_76\n    /* \"#utility.yul\":3780:3783   */\n  dup4\n    /* \"#utility.yul\":3774:3778   */\n  dup4\n    /* \"#utility.yul\":3755:3784   */\n  tag_27\n  jump\t// in\ntag_76:\n    /* \"#utility.yul\":3747:3784   */\n  swap2\n  pop\n    /* \"#utility.yul\":3817:3820   */\n  dup3\n    /* \"#utility.yul\":3814:3815   */\n  0x02\n    /* \"#utility.yul\":3810:3821   */\n  mul\n    /* \"#utility.yul\":3804:3808   */\n  dup3\n    /* \"#utility.yul\":3801:3822   */\n  or\n    /* \"#utility.yul\":3793:3822   */\n  swap1\n  pop\n    /* \"#utility.yul\":3533:3828   */\n  swap3\n  swap2\n  pop\n  pop\n  jump\t// out\n    /* \"#utility.yul\":3833:5228   */\ntag_2:\n    /* \"#utility.yul\":3950:3987   */\n  tag_78\n    /* \"#utility.yul\":3983:3986   */\n  dup3\n    /* \"#utility.yul\":3950:3987   */\n  tag_9\n  jump\t// in\ntag_78:\n    /* \"#utility.yul\":4052:4070   */\n  0xffffffffffffffff\n    /* \"#utility.yul\":4044:4050   */\n  dup2\n    /* \"#utility.yul\":4041:4071   */\n  gt\n    /* \"#utility.yul\":4038:4094   */\n  iszero\n  tag_79\n  jumpi\n    /* \"#utility.yul\":4074:4092   */\n  tag_80\n  tag_10\n  jump\t// in\ntag_80:\n    /* \"#utility.yul\":4038:4094   */\ntag_79:\n    /* \"#utility.yul\":4118:4156   */\n  tag_81\n    /* \"#utility.yul\":4150:4154   */\n  dup3\n    /* \"#utility.yul\":4144:4155   */\n  sload\n    /* \"#utility.yul\":4118:4156   */\n  tag_12\n  jump\t// in\ntag_81:\n    /* \"#utility.yul\":4203:4270   */\n  tag_82\n    /* \"#utility.yul\":4263:4269   */\n  dup3\n    /* \"#utility.yul\":4255:4261   */\n  dup3\n    /* \"#utility.yul\":4249:4253   */\n  dup6\n    /* \"#utility.yul\":4203:4270   */\n  tag_25\n  jump\t// in\ntag_82:\n    /* \"#utility.yul\":4297:4298   */\n  0x00\n    /* \"#utility.yul\":4321:4325   */\n  0x20\n    /* \"#utility.yul\":4308:4325   */\n  swap1\n  pop\n    /* \"#utility.yul\":4353:4355   */\n  0x1f\n    /* \"#utility.yul\":4345:4351   */\n  dup4\n    /* \"#utility.yul\":4342:4356   */\n  gt\n    /* \"#utility.yul\":4370:4371   */\n  0x01\n    /* \"#utility.yul\":4365:4983   */\n  dup2\n  eq\n  tag_84\n  jumpi\n    /* \"#utility.yul\":5027:5028   */\n  0x00\n    /* \"#utility.yul\":5044:5050   */\n  dup5\n    /* \"#utility.yul\":5041:5118   */\n  iszero\n  tag_85\n  jumpi\n    /* \"#utility.yul\":5093:5102   */\n  dup3\n    /* \"#utility.yul\":5088:5091   */\n  dup8\n    /* \"#utility.yul\":5084:5103   */\n  add\n    /* \"#utility.yul\":5078:5104   */\n  mload\n    /* \"#utility.yul\":5069:5104   */\n  swap1\n  pop\n    /* \"#utility.yul\":5041:5118   */\ntag_85:\n    /* \"#utility.yul\":5144:5211   */\n  tag_86\n    /* \"#utility.yul\":5204:5210   */\n  dup6\n    /* \"#utility.yul\":5197:5202   */\n  dup3\n    /* \"#utility.yul\":5144:5211   */\n  tag_28\n  jump\t// in\ntag_86:\n    /* \"#utility.yul\":5138:5142   */\n  dup7\n    /* \"#utility.yul\":5131:5212   */\n  sstore\n    /* \"#utility.yul\":5000:5222   */\n  pop\n    /* \"#utility.yul\":4335:5222   */\n  jump(tag_83)\n    /* \"#utility.yul\":4365:4983   */\ntag_84:\n    /* \"#utility.yul\":4417:4421   */\n  0x1f\n    /* \"#utility.yul\":4413:4422   */\n  not\n    /* \"#utility.yul\":4405:4411   */\n  dup5\n    /* \"#utility.yul\":4401:4423   */\n  and\n    /* \"#utility.yul\":4451:4488   */\n  tag_87\n    /* \"#utility.yul\":4483:4487   */\n  dup7\n    /* \"#utility.yul\":4451:4488   */\n  tag_13\n  jump\t// in\ntag_87:\n    /* \"#utility.yul\":4510:4511   */\n  0x00\n    /* \"#utility.yul\":4524:4732   */\ntag_88:\n    /* \"#utility.yul\":4538:4545   */\n  dup3\n    /* \"#utility.yul\":4535:4536   */\n  dup2\n    /* \"#utility.yul\":4532:4546   */\n  lt\n    /* \"#utility.yul\":4524:4732   */\n  iszero\n  tag_90\n  jumpi\n    /* \"#utility.yul\":4617:4626   */\n  dup5\n    /* \"#utility.yul\":4612:4615   */\n  dup10\n    /* \"#utility.yul\":4608:4627   */\n  add\n    /* \"#utility.yul\":4602:4628   */\n  mload\n    /* \"#utility.yul\":4594:4600   */\n  dup3\n    /* \"#utility.yul\":4587:4629   */\n  sstore\n    /* \"#utility.yul\":4668:4669   */\n  0x01\n    /* \"#utility.yul\":4660:4666   */\n  dup3\n    /* \"#utility.yul\":4656:4670   */\n  add\n    /* \"#utility.yul\":4646:4670   */\n  swap2\n  pop\n    /* \"#utility.yul\":4715:4717   */\n  0x20\n    /* \"#utility.yul\":4704:4713   */\n  dup6\n    /* \"#utility.yul\":4700:4718   */\n  add\n    /* \"#utility.yul\":4687:4718   */\n  swap5\n  pop\n    /* \"#utility.yul\":4561:4565   */\n  0x20\n    /* \"#utility.yul\":4558:4559   */\n  dup2\n    /* \"#utility.yul\":4554:4566   */\n  add\n    /* \"#utility.yul\":4549:4566   */\n  swap1\n  pop\n    /* \"#utility.yul\":4524:4732   */\n  jump(tag_88)\ntag_90:\n    /* \"#utility.yul\":4760:4766   */\n  dup7\n    /* \"#utility.yul\":4751:4758   */\n  dup4\n    /* \"#utility.yul\":4748:4767   */\n  lt\n    /* \"#utility.yul\":4745:4924   */\n  iszero\n  tag_91\n  jumpi\n    /* \"#utility.yul\":4818:4827   */\n  dup5\n    /* \"#utility.yul\":4813:4816   */\n  dup10\n    /* \"#utility.yul\":4809:4828   */\n  add\n    /* \"#utility.yul\":4803:4829   */\n  mload\n    /* \"#utility.yul\":4861:4909   */\n  tag_92\n    /* \"#utility.yul\":4903:4907   */\n  0x1f\n    /* \"#utility.yul\":4895:4901   */\n  dup10\n    /* \"#utility.yul\":4891:4908   */\n  and\n    /* \"#utility.yul\":4880:4889   */\n  dup3\n    /* \"#utility.yul\":4861:4909   */\n  tag_27\n  jump\t// in\ntag_92:\n    /* \"#utility.yul\":4853:4859   */\n  dup4\n    /* \"#utility.yul\":4846:4910   */\n  sstore\n    /* \"#utility.yul\":4768:4924   */\n  pop\n    /* \"#utility.yul\":4745:4924   */\ntag_91:\n    /* \"#utility.yul\":4970:4971   */\n  0x01\n    /* \"#utility.yul\":4966:4967   */\n  0x02\n    /* \"#utility.yul\":4958:4964   */\n  dup9\n    /* \"#utility.yul\":4954:4968   */\n  mul\n    /* \"#utility.yul\":4950:4972   */\n  add\n    /* \"#utility.yul\":4944:4948   */\n  dup9\n    /* \"#utility.yul\":4937:4973   */\n  sstore\n    /* \"#utility.yul\":4372:4983   */\n  pop\n  pop\n  pop\n    /* \"#utility.yul\":4335:5222   */\ntag_83:\n  pop\n    /* \"#utility.yul\":3925:5228   */\n  pop\n  pop\n  pop\n    /* \"#utility.yul\":3833:5228   */\n  pop\n  pop\n  jump\t// out\n    /* \"#utility.yul\":5234:5374   */\ntag_29:\n    /* \"#utility.yul\":5282:5286   */\n  0x00\n    /* \"#utility.yul\":5305:5308   */\n  dup2\n    /* \"#utility.yul\":5297:5308   */\n  swap1\n  pop\n    /* \"#utility.yul\":5328:5331   */\n  dup2\n    /* \"#utility.yul\":5325:5326   */\n  0x00\n    /* \"#utility.yul\":5318:5332   */\n  mstore\n    /* \"#utility.yul\":5362:5366   */\n  0x20\n    /* \"#utility.yul\":5359:5360   */\n  0x00\n    /* \"#utility.yul\":5349:5367   */\n  keccak256\n    /* \"#utility.yul\":5341:5367   */\n  swap1\n  pop\n    /* \"#utility.yul\":5234:5374   */\n  swap2\n  swap1\n  pop\n  jump\t// out\n    /* \"#utility.yul\":5380:5921   */\ntag_30:\n    /* \"#utility.yul\":5480:5482   */\n  0x1f\n    /* \"#utility.yul\":5475:5478   */\n  dup3\n    /* \"#utility.yul\":5472:5483   */\n  gt\n    /* \"#utility.yul\":5469:5914   */\n  iszero\n  tag_95\n  jumpi\n    /* \"#utility.yul\":5514:5551   */\n  tag_96\n    /* \"#utility.yul\":5545:5550   */\n  dup2\n    /* \"#utility.yul\":5514:5551   */\n  tag_29\n  jump\t// in\ntag_96:\n    /* \"#utility.yul\":5597:5626   */\n  tag_97\n    /* \"#utility.yul\":5615:5625   */\n  dup5\n    /* \"#utility.yul\":5597:5626   */\n  tag_14\n  jump\t// in\ntag_97:\n    /* \"#utility.yul\":5587:5595   */\n  dup2\n    /* \"#utility.yul\":5583:5627   */\n  add\n    /* \"#utility.yul\":5780:5782   */\n  0x20\n    /* \"#utility.yul\":5768:5778   */\n  dup6\n    /* \"#utility.yul\":5765:5783   */\n  lt\n    /* \"#utility.yul\":5762:5811   */\n  iszero\n  tag_98\n  jumpi\n    /* \"#utility.yul\":5801:5809   */\n  dup2\n    /* \"#utility.yul\":5786:5809   */\n  swap1\n  pop\n    /* \"#utility.yul\":5762:5811   */\ntag_98:\n    /* \"#utility.yul\":5824:5904   */\n  tag_99\n    /* \"#utility.yul\":5880:5902   */\n  tag_100\n    /* \"#utility.yul\":5898:5901   */\n  dup6\n    /* \"#utility.yul\":5880:5902   */\n  tag_14\n  jump\t// in\ntag_100:\n    /* \"#utility.yul\":5870:5878   */\n  dup4\n    /* \"#utility.yul\":5866:5903   */\n  add\n    /* \"#utility.yul\":5853:5864   */\n  dup3\n    /* \"#utility.yul\":5824:5904   */\n  tag_24\n  jump\t// in\ntag_99:\n    /* \"#utility.yul\":5484:5914   */\n  pop\n  pop\n    /* \"#utility.yul\":5469:5914   */\ntag_95:\n    /* \"#utility.yul\":5380:5921   */\n  pop\n  pop\n  pop\n  jump\t// out\n    /* \"#utility.yul\":5927:7319   */\ntag_4:\n    /* \"#utility.yul\":6043:6080   */\n  tag_102\n    /* \"#utility.yul\":6076:6079   */\n  dup3\n    /* \"#utility.yul\":6043:6080   */\n  tag_9\n  jump\t// in\ntag_102:\n    /* \"#utility.yul\":6145:6163   */\n  0xffffffffffffffff\n    /* \"#utility.yul\":6137:6143   */\n  dup2\n    /* \"#utility.yul\":6134:6164   */\n  gt\n    /* \"#utility.yul\":6131:6187   */\n  iszero\n  tag_103\n  jumpi\n    /* \"#utility.yul\":6167:6185   */\n  tag_104\n  tag_10\n  jump\t// in\ntag_104:\n    /* \"#utility.yul\":6131:6187   */\ntag_103:\n    /* \"#utility.yul\":6211:6249   */\n  tag_105\n    /* \"#utility.yul\":6243:6247   */\n  dup3\n    /* \"#utility.yul\":6237:6248   */\n  sload\n    /* \"#utility.yul\":6211:6249   */\n  tag_12\n  jump\t// in\ntag_105:\n    /* \"#utility.yul\":6296:6362   */\n  tag_106\n    /* \"#utility.yul\":6355:6361   */\n  dup3\n    /* \"#utility.yul\":6347:6353   */\n  dup3\n    /* \"#utility.yul\":6341:6345   */\n  dup6\n    /* \"#utility.yul\":6296:6362   */\n  tag_30\n  jump\t// in\ntag_106:\n    /* \"#utility.yul\":6389:6390   */\n  0x00\n    /* \"#utility.yul\":6413:6417   */\n  0x20\n    /* \"#utility.yul\":6400:6417   */\n  swap1\n  pop\n    /* \"#utility.yul\":6445:6447   */\n  0x1f\n    /* \"#utility.yul\":6437:6443   */\n  dup4\n    /* \"#utility.yul\":6434:6448   */\n  gt\n    /* \"#utility.yul\":6462:6463   */\n  0x01\n    /* \"#utility.yul\":6457:7074   */\n  dup2\n  eq\n  tag_108\n  jumpi\n    /* \"#utility.yul\":7118:7119   */\n  0x00\n    /* \"#utility.yul\":7135:7141   */\n  dup5\n    /* \"#utility.yul\":7132:7209   */\n  iszero\n  tag_109\n  jumpi\n    /* \"#utility.yul\":7184:7193   */\n  dup3\n    /* \"#utility.yul\":7179:7182   */\n  dup8\n    /* \"#utility.yul\":7175:7194   */\n  add\n    /* \"#utility.yul\":7169:7195   */\n  mload\n    /* \"#utility.yul\":7160:7195   */\n  swap1\n  pop\n    /* \"#utility.yul\":7132:7209   */\ntag_109:\n    /* \"#utility.yul\":7235:7302   */\n  tag_110\n    /* \"#utility.yul\":7295:7301   */\n  dup6\n    /* \"#utility.yul\":7288:7293   */\n  dup3\n    /* \"#utility.yul\":7235:7302   */\n  tag_28\n  jump\t// in\ntag_110:\n    /* \"#utility.yul\":7229:7233   */\n  dup7\n    /* \"#utility.yul\":7222:7303   */\n  sstore\n    /* \"#utility.yul\":7091:7313   */\n  pop\n    /* \"#utility.yul\":6427:7313   */\n  jump(tag_107)\n    /* \"#utility.yul\":6457:7074   */\ntag_108:\n    /* \"#utility.yul\":6509:6513   */\n  0x1f\n    /* \"#utility.yul\":6505:6514   */\n  not\n    /* \"#utility.yul\":6497:6503   */\n  dup5\n    /* \"#utility.yul\":6493:6515   */\n  and\n    /* \"#utility.yul\":6543:6579   */\n  tag_111\n    /* \"#utility.yul\":6574:6578   */\n  dup7\n    /* \"#utility.yul\":6543:6579   */\n  tag_29\n  jump\t// in\ntag_111:\n    /* \"#utility.yul\":6601:6602   */\n  0x00\n    /* \"#utility.yul\":6615:6823   */\ntag_112:\n    /* \"#utility.yul\":6629:6636   */\n  dup3\n    /* \"#utility.yul\":6626:6627   */\n  dup2\n    /* \"#utility.yul\":6623:6637   */\n  lt\n    /* \"#utility.yul\":6615:6823   */\n  iszero\n  tag_114\n  jumpi\n    /* \"#utility.yul\":6708:6717   */\n  dup5\n    /* \"#utility.yul\":6703:6706   */\n  dup10\n    /* \"#utility.yul\":6699:6718   */\n  add\n    /* \"#utility.yul\":6693:6719   */\n  mload\n    /* \"#utility.yul\":6685:6691   */\n  dup3\n    /* \"#utility.yul\":6678:6720   */\n  sstore\n    /* \"#utility.yul\":6759:6760   */\n  0x01\n    /* \"#utility.yul\":6751:6757   */\n  dup3\n    /* \"#utility.yul\":6747:6761   */\n  add\n    /* \"#utility.yul\":6737:6761   */\n  swap2\n  pop\n    /* \"#utility.yul\":6806:6808   */\n  0x20\n    /* \"#utility.yul\":6795:6804   */\n  dup6\n    /* \"#utility.yul\":6791:6809   */\n  add\n    /* \"#utility.yul\":6778:6809   */\n  swap5\n  pop\n    /* \"#utility.yul\":6652:6656   */\n  0x20\n    /* \"#utility.yul\":6649:6650   */\n  dup2\n    /* \"#utility.yul\":6645:6657   */\n  add\n    /* \"#utility.yul\":6640:6657   */\n  swap1\n  pop\n    /* \"#utility.yul\":6615:6823   */\n  jump(tag_112)\ntag_114:\n    /* \"#utility.yul\":6851:6857   */\n  dup7\n    /* \"#utility.yul\":6842:6849   */\n  dup4\n    /* \"#utility.yul\":6839:6858   */\n  lt\n    /* \"#utility.yul\":6836:7015   */\n  iszero\n  tag_115\n  jumpi\n    /* \"#utility.yul\":6909:6918   */\n  dup5\n    /* \"#utility.yul\":6904:6907   */\n  dup10\n    /* \"#utility.yul\":6900:6919   */\n  add\n    /* \"#utility.yul\":6894:6920   */\n  mload\n    /* \"#utility.yul\":6952:7000   */\n  tag_116\n    /* \"#utility.yul\":6994:6998   */\n  0x1f\n    /* \"#utility.yul\":6986:6992   */\n  dup10\n    /* \"#utility.yul\":6982:6999   */\n  and\n    /* \"#utility.yul\":6971:6980   */\n  dup3\n    /* \"#utility.yul\":6952:7000   */\n  tag_27\n  jump\t// in\ntag_116:\n    /* \"#utility.yul\":6944:6950   */\n  dup4\n    /* \"#utility.yul\":6937:7001   */\n  sstore\n    /* \"#utility.yul\":6859:7015   */\n  pop\n    /* \"#utility.yul\":6836:7015   */\ntag_115:\n    /* \"#utility.yul\":7061:7062   */\n  0x01\n    /* \"#utility.yul\":7057:7058   */\n  0x02\n    /* \"#utility.yul\":7049:7055   */\n  dup9\n    /* \"#utility.yul\":7045:7059   */\n  mul\n    /* \"#utility.yul\":7041:7063   */\n  add\n    /* \"#utility.yul\":7035:7039   */\n  dup9\n    /* \"#utility.yul\":7028:7064   */\n  sstore\n    /* \"#utility.yul\":6464:7074   */\n  pop\n  pop\n  pop\n    /* \"#utility.yul\":6427:7313   */\ntag_107:\n  pop\n    /* \"#utility.yul\":6018:7319   */\n  pop\n  pop\n  pop\n    /* \"#utility.yul\":5927:7319   */\n  pop\n  pop\n  jump\t// out\n    /* \"contracts/contractBasic.sol\":60:866  contract contractBasic {... */\ntag_8:\n  dataSize(sub_0)\n  dup1\n  dataOffset(sub_0)\n  0x00\n  codecopy\n  0x00\n  return\nstop\n\nsub_0: assembly {\n        /* \"contracts/contractBasic.sol\":60:866  contract contractBasic {... */\n      mstore(0x40, 0x80)\n      callvalue\n      dup1\n      iszero\n      tag_1\n      jumpi\n      0x00\n      dup1\n      revert\n    tag_1:\n      pop\n      jumpi(tag_2, lt(calldatasize, 0x04))\n      shr(0xe0, calldataload(0x00))\n      dup1\n      0x7deca859\n      gt\n      tag_11\n      jumpi\n      dup1\n      0x7deca859\n      eq\n      tag_7\n      jumpi\n      dup1\n      0x98b130eb\n      eq\n      tag_8\n      jumpi\n      dup1\n      0xbdad967c\n      eq\n      tag_9\n      jumpi\n      dup1\n      0xd8bb7b74\n      eq\n      tag_10\n      jumpi\n      jump(tag_2)\n    tag_11:\n      dup1\n      0x08ca7c65\n      eq\n      tag_3\n      jumpi\n      dup1\n      0x52a5f26d\n      eq\n      tag_4\n      jumpi\n      dup1\n      0x70019b35\n      eq\n      tag_5\n      jumpi\n      dup1\n      0x73c99830\n      eq\n      tag_6\n      jumpi\n    tag_2:\n      0x00\n      dup1\n      revert\n        /* \"contracts/contractBasic.sol\":135:180  bytes public userBytes = unicode\"Jangidlksh1\" */\n    tag_3:\n      tag_12\n      tag_13\n      jump\t// in\n    tag_12:\n      mload(0x40)\n      tag_14\n      swap2\n      swap1\n      tag_15\n      jump\t// in\n    tag_14:\n      mload(0x40)\n      dup1\n      swap2\n      sub\n      swap1\n      return\n        /* \"contracts/contractBasic.sol\":435:660  function verifyProfile(string memory _userName, string memory _passWord) public view returns(bool) {... */\n    tag_4:\n      tag_16\n      0x04\n      dup1\n      calldatasize\n      sub\n      dup2\n      add\n      swap1\n      tag_17\n      swap2\n      swap1\n      tag_18\n      jump\t// in\n    tag_17:\n      tag_19\n      jump\t// in\n    tag_16:\n      mload(0x40)\n      tag_20\n      swap2\n      swap1\n      tag_21\n      jump\t// in\n    tag_20:\n      mload(0x40)\n      dup1\n      swap2\n      sub\n      swap1\n      return\n        /* \"contracts/contractBasic.sol\":90:128  string public userName = \"Jangidlksh1\" */\n    tag_5:\n      tag_22\n      tag_23\n      jump\t// in\n    tag_22:\n      mload(0x40)\n      tag_24\n      swap2\n      swap1\n      tag_25\n      jump\t// in\n    tag_24:\n      mload(0x40)\n      dup1\n      swap2\n      sub\n      swap1\n      return\n        /* \"contracts/contractBasic.sol\":187:222  string public passWord = \"Raja@123\" */\n    tag_6:\n      tag_26\n      tag_27\n      jump\t// in\n    tag_26:\n      mload(0x40)\n      tag_28\n      swap2\n      swap1\n      tag_25\n      jump\t// in\n    tag_28:\n      mload(0x40)\n      dup1\n      swap2\n      sub\n      swap1\n      return\n        /* \"contracts/contractBasic.sol\":229:271  bytes public passBytes = unicode\"Raja@123\" */\n    tag_7:\n      tag_29\n      tag_30\n      jump\t// in\n    tag_29:\n      mload(0x40)\n      tag_31\n      swap2\n      swap1\n      tag_15\n      jump\t// in\n    tag_31:\n      mload(0x40)\n      dup1\n      swap2\n      sub\n      swap1\n      return\n        /* \"contracts/contractBasic.sol\":280:427  function getDetails(string memory _userName, string memory _passWord) public {... */\n    tag_8:\n      tag_32\n      0x04\n      dup1\n      calldatasize\n      sub\n      dup2\n      add\n      swap1\n      tag_33\n      swap2\n      swap1\n      tag_18\n      jump\t// in\n    tag_33:\n      tag_34\n      jump\t// in\n    tag_32:\n      stop\n        /* \"contracts/contractBasic.sol\":769:863  function getByteLength2() public view returns(uint) {... */\n    tag_9:\n      tag_35\n      tag_36\n      jump\t// in\n    tag_35:\n      mload(0x40)\n      tag_37\n      swap2\n      swap1\n      tag_38\n      jump\t// in\n    tag_37:\n      mload(0x40)\n      dup1\n      swap2\n      sub\n      swap1\n      return\n        /* \"contracts/contractBasic.sol\":668:761  function getByteLength() public view returns(uint) {... */\n    tag_10:\n      tag_39\n      tag_40\n      jump\t// in\n    tag_39:\n      mload(0x40)\n      tag_41\n      swap2\n      swap1\n      tag_38\n      jump\t// in\n    tag_41:\n      mload(0x40)\n      dup1\n      swap2\n      sub\n      swap1\n      return\n        /* \"contracts/contractBasic.sol\":135:180  bytes public userBytes = unicode\"Jangidlksh1\" */\n    tag_13:\n      0x01\n      dup1\n      sload\n      tag_42\n      swap1\n      tag_43\n      jump\t// in\n    tag_42:\n      dup1\n      0x1f\n      add\n      0x20\n      dup1\n      swap2\n      div\n      mul\n      0x20\n      add\n      mload(0x40)\n      swap1\n      dup2\n      add\n      0x40\n      mstore\n      dup1\n      swap3\n      swap2\n      swap1\n      dup2\n      dup2\n      mstore\n      0x20\n      add\n      dup3\n      dup1\n      sload\n      tag_44\n      swap1\n      tag_43\n      jump\t// in\n    tag_44:\n      dup1\n      iszero\n      tag_45\n      jumpi\n      dup1\n      0x1f\n      lt\n      tag_46\n      jumpi\n      0x0100\n      dup1\n      dup4\n      sload\n      div\n      mul\n      dup4\n      mstore\n      swap2\n      0x20\n      add\n      swap2\n      jump(tag_45)\n    tag_46:\n      dup3\n      add\n      swap2\n      swap1\n      0x00\n      mstore\n      keccak256(0x00, 0x20)\n      swap1\n    tag_47:\n      dup2\n      sload\n      dup2\n      mstore\n      swap1\n      0x01\n      add\n      swap1\n      0x20\n      add\n      dup1\n      dup4\n      gt\n      tag_47\n      jumpi\n      dup3\n      swap1\n      sub\n      0x1f\n      and\n      dup3\n      add\n      swap2\n    tag_45:\n      pop\n      pop\n      pop\n      pop\n      pop\n      dup2\n      jump\t// out\n        /* \"contracts/contractBasic.sol\":435:660  function verifyProfile(string memory _userName, string memory _passWord) public view returns(bool) {... */\n    tag_19:\n        /* \"contracts/contractBasic.sol\":528:532  bool */\n      0x00\n        /* \"contracts/contractBasic.sol\":630:639  _userName */\n      dup3\n        /* \"contracts/contractBasic.sol\":641:650  _passWord */\n      dup3\n        /* \"contracts/contractBasic.sol\":613:651  abi.encodePacked(_userName, _passWord) */\n      add(0x20, mload(0x40))\n      tag_49\n      swap3\n      swap2\n      swap1\n      tag_50\n      jump\t// in\n    tag_49:\n      mload(0x40)\n      0x20\n      dup2\n      dup4\n      sub\n      sub\n      dup2\n      mstore\n      swap1\n      0x40\n      mstore\n        /* \"contracts/contractBasic.sol\":603:652  keccak256(abi.encodePacked(_userName, _passWord)) */\n      dup1\n      mload\n      swap1\n      0x20\n      add\n      keccak256\n        /* \"contracts/contractBasic.sol\":579:587  userName */\n      0x00\n        /* \"contracts/contractBasic.sol\":589:597  passWord */\n      0x02\n        /* \"contracts/contractBasic.sol\":562:598  abi.encodePacked(userName, passWord) */\n      add(0x20, mload(0x40))\n      tag_51\n      swap3\n      swap2\n      swap1\n      tag_52\n      jump\t// in\n    tag_51:\n      mload(0x40)\n      0x20\n      dup2\n      dup4\n      sub\n      sub\n      dup2\n      mstore\n      swap1\n      0x40\n      mstore\n        /* \"contracts/contractBasic.sol\":552:599  keccak256(abi.encodePacked(userName, passWord)) */\n      dup1\n      mload\n      swap1\n      0x20\n      add\n      keccak256\n        /* \"contracts/contractBasic.sol\":552:652  keccak256(abi.encodePacked(userName, passWord)) == keccak256(abi.encodePacked(_userName, _passWord)) */\n      eq\n        /* \"contracts/contractBasic.sol\":545:652  return keccak256(abi.encodePacked(userName, passWord)) == keccak256(abi.encodePacked(_userName, _passWord)) */\n      swap1\n      pop\n        /* \"contracts/contractBasic.sol\":435:660  function verifyProfile(string memory _userName, string memory _passWord) public view returns(bool) {... */\n      swap3\n      swap2\n      pop\n      pop\n      jump\t// out\n        /* \"contracts/contractBasic.sol\":90:128  string public userName = \"Jangidlksh1\" */\n    tag_23:\n      0x00\n      dup1\n      sload\n      tag_53\n      swap1\n      tag_43\n      jump\t// in\n    tag_53:\n      dup1\n      0x1f\n      add\n      0x20\n      dup1\n      swap2\n      div\n      mul\n      0x20\n      add\n      mload(0x40)\n      swap1\n      dup2\n      add\n      0x40\n      mstore\n      dup1\n      swap3\n      swap2\n      swap1\n      dup2\n      dup2\n      mstore\n      0x20\n      add\n      dup3\n      dup1\n      sload\n      tag_54\n      swap1\n      tag_43\n      jump\t// in\n    tag_54:\n      dup1\n      iszero\n      tag_55\n      jumpi\n      dup1\n      0x1f\n      lt\n      tag_56\n      jumpi\n      0x0100\n      dup1\n      dup4\n      sload\n      div\n      mul\n      dup4\n      mstore\n      swap2\n      0x20\n      add\n      swap2\n      jump(tag_55)\n    tag_56:\n      dup3\n      add\n      swap2\n      swap1\n      0x00\n      mstore\n      keccak256(0x00, 0x20)\n      swap1\n    tag_57:\n      dup2\n      sload\n      dup2\n      mstore\n      swap1\n      0x01\n      add\n      swap1\n      0x20\n      add\n      dup1\n      dup4\n      gt\n      tag_57\n      jumpi\n      dup3\n      swap1\n      sub\n      0x1f\n      and\n      dup3\n      add\n      swap2\n    tag_55:\n      pop\n      pop\n      pop\n      pop\n      pop\n      dup2\n      jump\t// out\n        /* \"contracts/contractBasic.sol\":187:222  string public passWord = \"Raja@123\" */\n    tag_27:\n      0x02\n      dup1\n      sload\n      tag_58\n      swap1\n      tag_43\n      jump\t// in\n    tag_58:\n      dup1\n      0x1f\n      add\n      0x20\n      dup1\n      swap2\n      div\n      mul\n      0x20\n      add\n      mload(0x40)\n      swap1\n      dup2\n      add\n      0x40\n      mstore\n      dup1\n      swap3\n      swap2\n      swap1\n      dup2\n      dup2\n      mstore\n      0x20\n      add\n      dup3\n      dup1\n      sload\n      tag_59\n      swap1\n      tag_43\n      jump\t// in\n    tag_59:\n      dup1\n      iszero\n      tag_60\n      jumpi\n      dup1\n      0x1f\n      lt\n      tag_61\n      jumpi\n      0x0100\n      dup1\n      dup4\n      sload\n      div\n      mul\n      dup4\n      mstore\n      swap2\n      0x20\n      add\n      swap2\n      jump(tag_60)\n    tag_61:\n      dup3\n      add\n      swap2\n      swap1\n      0x00\n      mstore\n      keccak256(0x00, 0x20)\n      swap1\n    tag_62:\n      dup2\n      sload\n      dup2\n      mstore\n      swap1\n      0x01\n      add\n      swap1\n      0x20\n      add\n      dup1\n      dup4\n      gt\n      tag_62\n      jumpi\n      dup3\n      swap1\n      sub\n      0x1f\n      and\n      dup3\n      add\n      swap2\n    tag_60:\n      pop\n      pop\n      pop\n      pop\n      pop\n      dup2\n      jump\t// out\n        /* \"contracts/contractBasic.sol\":229:271  bytes public passBytes = unicode\"Raja@123\" */\n    tag_30:\n      0x03\n      dup1\n      sload\n      tag_63\n      swap1\n      tag_43\n      jump\t// in\n    tag_63:\n      dup1\n      0x1f\n      add\n      0x20\n      dup1\n      swap2\n      div\n      mul\n      0x20\n      add\n      mload(0x40)\n      swap1\n      dup2\n      add\n      0x40\n      mstore\n      dup1\n      swap3\n      swap2\n      swap1\n      dup2\n      dup2\n      mstore\n      0x20\n      add\n      dup3\n      dup1\n      sload\n      tag_64\n      swap1\n      tag_43\n      jump\t// in\n    tag_64:\n      dup1\n      iszero\n      tag_65\n      jumpi\n      dup1\n      0x1f\n      lt\n      tag_66\n      jumpi\n      0x0100\n      dup1\n      dup4\n      sload\n      div\n      mul\n      dup4\n      mstore\n      swap2\n      0x20\n      add\n      swap2\n      jump(tag_65)\n    tag_66:\n      dup3\n      add\n      swap2\n      swap1\n      0x00\n      mstore\n      keccak256(0x00, 0x20)\n      swap1\n    tag_67:\n      dup2\n      sload\n      dup2\n      mstore\n      swap1\n      0x01\n      add\n      swap1\n      0x20\n      add\n      dup1\n      dup4\n      gt\n      tag_67\n      jumpi\n      dup3\n      swap1\n      sub\n      0x1f\n      and\n      dup3\n      add\n      swap2\n    tag_65:\n      pop\n      pop\n      pop\n      pop\n      pop\n      dup2\n      jump\t// out\n        /* \"contracts/contractBasic.sol\":280:427  function getDetails(string memory _userName, string memory _passWord) public {... */\n    tag_34:\n        /* \"contracts/contractBasic.sol\":379:388  _userName */\n      dup2\n        /* \"contracts/contractBasic.sol\":368:376  userName */\n      0x00\n        /* \"contracts/contractBasic.sol\":368:388  userName = _userName */\n      swap1\n      dup2\n      tag_69\n      swap2\n      swap1\n      tag_70\n      jump\t// in\n    tag_69:\n      pop\n        /* \"contracts/contractBasic.sol\":410:419  _passWord */\n      dup1\n        /* \"contracts/contractBasic.sol\":399:407  passWord */\n      0x02\n        /* \"contracts/contractBasic.sol\":399:419  passWord = _passWord */\n      swap1\n      dup2\n      tag_71\n      swap2\n      swap1\n      tag_70\n      jump\t// in\n    tag_71:\n      pop\n        /* \"contracts/contractBasic.sol\":280:427  function getDetails(string memory _userName, string memory _passWord) public {... */\n      pop\n      pop\n      jump\t// out\n        /* \"contracts/contractBasic.sol\":769:863  function getByteLength2() public view returns(uint) {... */\n    tag_36:\n        /* \"contracts/contractBasic.sol\":815:819  uint */\n      0x00\n        /* \"contracts/contractBasic.sol\":839:848  passBytes */\n      0x03\n        /* \"contracts/contractBasic.sol\":839:855  passBytes.length */\n      dup1\n      sload\n      tag_73\n      swap1\n      tag_43\n      jump\t// in\n    tag_73:\n      swap1\n      pop\n        /* \"contracts/contractBasic.sol\":832:855  return passBytes.length */\n      swap1\n      pop\n        /* \"contracts/contractBasic.sol\":769:863  function getByteLength2() public view returns(uint) {... */\n      swap1\n      jump\t// out\n        /* \"contracts/contractBasic.sol\":668:761  function getByteLength() public view returns(uint) {... */\n    tag_40:\n        /* \"contracts/contractBasic.sol\":713:717  uint */\n      0x00\n        /* \"contracts/contractBasic.sol\":737:746  userBytes */\n      0x01\n        /* \"contracts/contractBasic.sol\":737:753  userBytes.length */\n      dup1\n      sload\n      tag_75\n      swap1\n      tag_43\n      jump\t// in\n    tag_75:\n      swap1\n      pop\n        /* \"contracts/contractBasic.sol\":730:753  return userBytes.length */\n      swap1\n      pop\n        /* \"contracts/contractBasic.sol\":668:761  function getByteLength() public view returns(uint) {... */\n      swap1\n      jump\t// out\n        /* \"#utility.yul\":7:105   */\n    tag_76:\n        /* \"#utility.yul\":58:64   */\n      0x00\n        /* \"#utility.yul\":92:97   */\n      dup2\n        /* \"#utility.yul\":86:98   */\n      mload\n        /* \"#utility.yul\":76:98   */\n      swap1\n      pop\n        /* \"#utility.yul\":7:105   */\n      swap2\n      swap1\n      pop\n      jump\t// out\n        /* \"#utility.yul\":111:279   */\n    tag_77:\n        /* \"#utility.yul\":194:205   */\n      0x00\n        /* \"#utility.yul\":228:234   */\n      dup3\n        /* \"#utility.yul\":223:226   */\n      dup3\n        /* \"#utility.yul\":216:235   */\n      mstore\n        /* \"#utility.yul\":268:272   */\n      0x20\n        /* \"#utility.yul\":263:266   */\n      dup3\n        /* \"#utility.yul\":259:273   */\n      add\n        /* \"#utility.yul\":244:273   */\n      swap1\n      pop\n        /* \"#utility.yul\":111:279   */\n      swap3\n      swap2\n      pop\n      pop\n      jump\t// out\n        /* \"#utility.yul\":285:424   */\n    tag_78:\n        /* \"#utility.yul\":374:380   */\n      dup3\n        /* \"#utility.yul\":369:372   */\n      dup2\n        /* \"#utility.yul\":364:367   */\n      dup4\n        /* \"#utility.yul\":358:381   */\n      mcopy\n        /* \"#utility.yul\":415:416   */\n      0x00\n        /* \"#utility.yul\":406:412   */\n      dup4\n        /* \"#utility.yul\":401:404   */\n      dup4\n        /* \"#utility.yul\":397:413   */\n      add\n        /* \"#utility.yul\":390:417   */\n      mstore\n        /* \"#utility.yul\":285:424   */\n      pop\n      pop\n      pop\n      jump\t// out\n        /* \"#utility.yul\":430:532   */\n    tag_79:\n        /* \"#utility.yul\":471:477   */\n      0x00\n        /* \"#utility.yul\":522:524   */\n      0x1f\n        /* \"#utility.yul\":518:525   */\n      not\n        /* \"#utility.yul\":513:515   */\n      0x1f\n        /* \"#utility.yul\":506:511   */\n      dup4\n        /* \"#utility.yul\":502:516   */\n      add\n        /* \"#utility.yul\":498:526   */\n      and\n        /* \"#utility.yul\":488:526   */\n      swap1\n      pop\n        /* \"#utility.yul\":430:532   */\n      swap2\n      swap1\n      pop\n      jump\t// out\n        /* \"#utility.yul\":538:911   */\n    tag_80:\n        /* \"#utility.yul\":624:627   */\n      0x00\n        /* \"#utility.yul\":652:690   */\n      tag_125\n        /* \"#utility.yul\":684:689   */\n      dup3\n        /* \"#utility.yul\":652:690   */\n      tag_76\n      jump\t// in\n    tag_125:\n        /* \"#utility.yul\":706:776   */\n      tag_126\n        /* \"#utility.yul\":769:775   */\n      dup2\n        /* \"#utility.yul\":764:767   */\n      dup6\n        /* \"#utility.yul\":706:776   */\n      tag_77\n      jump\t// in\n    tag_126:\n        /* \"#utility.yul\":699:776   */\n      swap4\n      pop\n        /* \"#utility.yul\":785:850   */\n      tag_127\n        /* \"#utility.yul\":843:849   */\n      dup2\n        /* \"#utility.yul\":838:841   */\n      dup6\n        /* \"#utility.yul\":831:835   */\n      0x20\n        /* \"#utility.yul\":824:829   */\n      dup7\n        /* \"#utility.yul\":820:836   */\n      add\n        /* \"#utility.yul\":785:850   */\n      tag_78\n      jump\t// in\n    tag_127:\n        /* \"#utility.yul\":875:904   */\n      tag_128\n        /* \"#utility.yul\":897:903   */\n      dup2\n        /* \"#utility.yul\":875:904   */\n      tag_79\n      jump\t// in\n    tag_128:\n        /* \"#utility.yul\":870:873   */\n      dup5\n        /* \"#utility.yul\":866:905   */\n      add\n        /* \"#utility.yul\":859:905   */\n      swap2\n      pop\n        /* \"#utility.yul\":628:911   */\n      pop\n        /* \"#utility.yul\":538:911   */\n      swap3\n      swap2\n      pop\n      pop\n      jump\t// out\n        /* \"#utility.yul\":917:1226   */\n    tag_15:\n        /* \"#utility.yul\":1028:1032   */\n      0x00\n        /* \"#utility.yul\":1066:1068   */\n      0x20\n        /* \"#utility.yul\":1055:1064   */\n      dup3\n        /* \"#utility.yul\":1051:1069   */\n      add\n        /* \"#utility.yul\":1043:1069   */\n      swap1\n      pop\n        /* \"#utility.yul\":1115:1124   */\n      dup2\n        /* \"#utility.yul\":1109:1113   */\n      dup2\n        /* \"#utility.yul\":1105:1125   */\n      sub\n        /* \"#utility.yul\":1101:1102   */\n      0x00\n        /* \"#utility.yul\":1090:1099   */\n      dup4\n        /* \"#utility.yul\":1086:1103   */\n      add\n        /* \"#utility.yul\":1079:1126   */\n      mstore\n        /* \"#utility.yul\":1143:1219   */\n      tag_130\n        /* \"#utility.yul\":1214:1218   */\n      dup2\n        /* \"#utility.yul\":1205:1211   */\n      dup5\n        /* \"#utility.yul\":1143:1219   */\n      tag_80\n      jump\t// in\n    tag_130:\n        /* \"#utility.yul\":1135:1219   */\n      swap1\n      pop\n        /* \"#utility.yul\":917:1226   */\n      swap3\n      swap2\n      pop\n      pop\n      jump\t// out\n        /* \"#utility.yul\":1232:1307   */\n    tag_81:\n        /* \"#utility.yul\":1265:1271   */\n      0x00\n        /* \"#utility.yul\":1298:1300   */\n      0x40\n        /* \"#utility.yul\":1292:1301   */\n      mload\n        /* \"#utility.yul\":1282:1301   */\n      swap1\n      pop\n        /* \"#utility.yul\":1232:1307   */\n      swap1\n      jump\t// out\n        /* \"#utility.yul\":1313:1430   */\n    tag_82:\n        /* \"#utility.yul\":1422:1423   */\n      0x00\n        /* \"#utility.yul\":1419:1420   */\n      dup1\n        /* \"#utility.yul\":1412:1424   */\n      revert\n        /* \"#utility.yul\":1436:1553   */\n    tag_83:\n        /* \"#utility.yul\":1545:1546   */\n      0x00\n        /* \"#utility.yul\":1542:1543   */\n      dup1\n        /* \"#utility.yul\":1535:1547   */\n      revert\n        /* \"#utility.yul\":1559:1676   */\n    tag_84:\n        /* \"#utility.yul\":1668:1669   */\n      0x00\n        /* \"#utility.yul\":1665:1666   */\n      dup1\n        /* \"#utility.yul\":1658:1670   */\n      revert\n        /* \"#utility.yul\":1682:1799   */\n    tag_85:\n        /* \"#utility.yul\":1791:1792   */\n      0x00\n        /* \"#utility.yul\":1788:1789   */\n      dup1\n        /* \"#utility.yul\":1781:1793   */\n      revert\n        /* \"#utility.yul\":1805:1985   */\n    tag_86:\n        /* \"#utility.yul\":1853:1930   */\n      0x4e487b7100000000000000000000000000000000000000000000000000000000\n        /* \"#utility.yul\":1850:1851   */\n      0x00\n        /* \"#utility.yul\":1843:1931   */\n      mstore\n        /* \"#utility.yul\":1950:1954   */\n      0x41\n        /* \"#utility.yul\":1947:1948   */\n      0x04\n        /* \"#utility.yul\":1940:1955   */\n      mstore\n        /* \"#utility.yul\":1974:1978   */\n      0x24\n        /* \"#utility.yul\":1971:1972   */\n      0x00\n        /* \"#utility.yul\":1964:1979   */\n      revert\n        /* \"#utility.yul\":1991:2272   */\n    tag_87:\n        /* \"#utility.yul\":2074:2101   */\n      tag_138\n        /* \"#utility.yul\":2096:2100   */\n      dup3\n        /* \"#utility.yul\":2074:2101   */\n      tag_79\n      jump\t// in\n    tag_138:\n        /* \"#utility.yul\":2066:2072   */\n      dup2\n        /* \"#utility.yul\":2062:2102   */\n      add\n        /* \"#utility.yul\":2204:2210   */\n      dup2\n        /* \"#utility.yul\":2192:2202   */\n      dup2\n        /* \"#utility.yul\":2189:2211   */\n      lt\n        /* \"#utility.yul\":2168:2186   */\n      0xffffffffffffffff\n        /* \"#utility.yul\":2156:2166   */\n      dup3\n        /* \"#utility.yul\":2153:2187   */\n      gt\n        /* \"#utility.yul\":2150:2212   */\n      or\n        /* \"#utility.yul\":2147:2235   */\n      iszero\n      tag_139\n      jumpi\n        /* \"#utility.yul\":2215:2233   */\n      tag_140\n      tag_86\n      jump\t// in\n    tag_140:\n        /* \"#utility.yul\":2147:2235   */\n    tag_139:\n        /* \"#utility.yul\":2255:2265   */\n      dup1\n        /* \"#utility.yul\":2251:2253   */\n      0x40\n        /* \"#utility.yul\":2244:2266   */\n      mstore\n        /* \"#utility.yul\":2034:2272   */\n      pop\n        /* \"#utility.yul\":1991:2272   */\n      pop\n      pop\n      jump\t// out\n        /* \"#utility.yul\":2278:2407   */\n    tag_88:\n        /* \"#utility.yul\":2312:2318   */\n      0x00\n        /* \"#utility.yul\":2339:2359   */\n      tag_142\n      tag_81\n      jump\t// in\n    tag_142:\n        /* \"#utility.yul\":2329:2359   */\n      swap1\n      pop\n        /* \"#utility.yul\":2368:2401   */\n      tag_143\n        /* \"#utility.yul\":2396:2400   */\n      dup3\n        /* \"#utility.yul\":2388:2394   */\n      dup3\n        /* \"#utility.yul\":2368:2401   */\n      tag_87\n      jump\t// in\n    tag_143:\n        /* \"#utility.yul\":2278:2407   */\n      swap2\n      swap1\n      pop\n      jump\t// out\n        /* \"#utility.yul\":2413:2721   */\n    tag_89:\n        /* \"#utility.yul\":2475:2479   */\n      0x00\n        /* \"#utility.yul\":2565:2583   */\n      0xffffffffffffffff\n        /* \"#utility.yul\":2557:2563   */\n      dup3\n        /* \"#utility.yul\":2554:2584   */\n      gt\n        /* \"#utility.yul\":2551:2607   */\n      iszero\n      tag_145\n      jumpi\n        /* \"#utility.yul\":2587:2605   */\n      tag_146\n      tag_86\n      jump\t// in\n    tag_146:\n        /* \"#utility.yul\":2551:2607   */\n    tag_145:\n        /* \"#utility.yul\":2625:2654   */\n      tag_147\n        /* \"#utility.yul\":2647:2653   */\n      dup3\n        /* \"#utility.yul\":2625:2654   */\n      tag_79\n      jump\t// in\n    tag_147:\n        /* \"#utility.yul\":2617:2654   */\n      swap1\n      pop\n        /* \"#utility.yul\":2709:2713   */\n      0x20\n        /* \"#utility.yul\":2703:2707   */\n      dup2\n        /* \"#utility.yul\":2699:2714   */\n      add\n        /* \"#utility.yul\":2691:2714   */\n      swap1\n      pop\n        /* \"#utility.yul\":2413:2721   */\n      swap2\n      swap1\n      pop\n      jump\t// out\n        /* \"#utility.yul\":2727:2875   */\n    tag_90:\n        /* \"#utility.yul\":2825:2831   */\n      dup3\n        /* \"#utility.yul\":2820:2823   */\n      dup2\n        /* \"#utility.yul\":2815:2818   */\n      dup4\n        /* \"#utility.yul\":2802:2832   */\n      calldatacopy\n        /* \"#utility.yul\":2866:2867   */\n      0x00\n        /* \"#utility.yul\":2857:2863   */\n      dup4\n        /* \"#utility.yul\":2852:2855   */\n      dup4\n        /* \"#utility.yul\":2848:2864   */\n      add\n        /* \"#utility.yul\":2841:2868   */\n      mstore\n        /* \"#utility.yul\":2727:2875   */\n      pop\n      pop\n      pop\n      jump\t// out\n        /* \"#utility.yul\":2881:3306   */\n    tag_91:\n        /* \"#utility.yul\":2959:2964   */\n      0x00\n        /* \"#utility.yul\":2984:3050   */\n      tag_150\n        /* \"#utility.yul\":3000:3049   */\n      tag_151\n        /* \"#utility.yul\":3042:3048   */\n      dup5\n        /* \"#utility.yul\":3000:3049   */\n      tag_89\n      jump\t// in\n    tag_151:\n        /* \"#utility.yul\":2984:3050   */\n      tag_88\n      jump\t// in\n    tag_150:\n        /* \"#utility.yul\":2975:3050   */\n      swap1\n      pop\n        /* \"#utility.yul\":3073:3079   */\n      dup3\n        /* \"#utility.yul\":3066:3071   */\n      dup2\n        /* \"#utility.yul\":3059:3080   */\n      mstore\n        /* \"#utility.yul\":3111:3115   */\n      0x20\n        /* \"#utility.yul\":3104:3109   */\n      dup2\n        /* \"#utility.yul\":3100:3116   */\n      add\n        /* \"#utility.yul\":3149:3152   */\n      dup5\n        /* \"#utility.yul\":3140:3146   */\n      dup5\n        /* \"#utility.yul\":3135:3138   */\n      dup5\n        /* \"#utility.yul\":3131:3147   */\n      add\n        /* \"#utility.yul\":3128:3153   */\n      gt\n        /* \"#utility.yul\":3125:3237   */\n      iszero\n      tag_152\n      jumpi\n        /* \"#utility.yul\":3156:3235   */\n      tag_153\n      tag_85\n      jump\t// in\n    tag_153:\n        /* \"#utility.yul\":3125:3237   */\n    tag_152:\n        /* \"#utility.yul\":3246:3300   */\n      tag_154\n        /* \"#utility.yul\":3293:3299   */\n      dup5\n        /* \"#utility.yul\":3288:3291   */\n      dup3\n        /* \"#utility.yul\":3283:3286   */\n      dup6\n        /* \"#utility.yul\":3246:3300   */\n      tag_90\n      jump\t// in\n    tag_154:\n        /* \"#utility.yul\":2965:3306   */\n      pop\n        /* \"#utility.yul\":2881:3306   */\n      swap4\n      swap3\n      pop\n      pop\n      pop\n      jump\t// out\n        /* \"#utility.yul\":3326:3666   */\n    tag_92:\n        /* \"#utility.yul\":3382:3387   */\n      0x00\n        /* \"#utility.yul\":3431:3434   */\n      dup3\n        /* \"#utility.yul\":3424:3428   */\n      0x1f\n        /* \"#utility.yul\":3416:3422   */\n      dup4\n        /* \"#utility.yul\":3412:3429   */\n      add\n        /* \"#utility.yul\":3408:3435   */\n      slt\n        /* \"#utility.yul\":3398:3520   */\n      tag_156\n      jumpi\n        /* \"#utility.yul\":3439:3518   */\n      tag_157\n      tag_84\n      jump\t// in\n    tag_157:\n        /* \"#utility.yul\":3398:3520   */\n    tag_156:\n        /* \"#utility.yul\":3556:3562   */\n      dup2\n        /* \"#utility.yul\":3543:3563   */\n      calldataload\n        /* \"#utility.yul\":3581:3660   */\n      tag_158\n        /* \"#utility.yul\":3656:3659   */\n      dup5\n        /* \"#utility.yul\":3648:3654   */\n      dup3\n        /* \"#utility.yul\":3641:3645   */\n      0x20\n        /* \"#utility.yul\":3633:3639   */\n      dup7\n        /* \"#utility.yul\":3629:3646   */\n      add\n        /* \"#utility.yul\":3581:3660   */\n      tag_91\n      jump\t// in\n    tag_158:\n        /* \"#utility.yul\":3572:3660   */\n      swap2\n      pop\n        /* \"#utility.yul\":3388:3666   */\n      pop\n        /* \"#utility.yul\":3326:3666   */\n      swap3\n      swap2\n      pop\n      pop\n      jump\t// out\n        /* \"#utility.yul\":3672:4506   */\n    tag_18:\n        /* \"#utility.yul\":3760:3766   */\n      0x00\n        /* \"#utility.yul\":3768:3774   */\n      dup1\n        /* \"#utility.yul\":3817:3819   */\n      0x40\n        /* \"#utility.yul\":3805:3814   */\n      dup4\n        /* \"#utility.yul\":3796:3803   */\n      dup6\n        /* \"#utility.yul\":3792:3815   */\n      sub\n        /* \"#utility.yul\":3788:3820   */\n      slt\n        /* \"#utility.yul\":3785:3904   */\n      iszero\n      tag_160\n      jumpi\n        /* \"#utility.yul\":3823:3902   */\n      tag_161\n      tag_82\n      jump\t// in\n    tag_161:\n        /* \"#utility.yul\":3785:3904   */\n    tag_160:\n        /* \"#utility.yul\":3971:3972   */\n      0x00\n        /* \"#utility.yul\":3960:3969   */\n      dup4\n        /* \"#utility.yul\":3956:3973   */\n      add\n        /* \"#utility.yul\":3943:3974   */\n      calldataload\n        /* \"#utility.yul\":4001:4019   */\n      0xffffffffffffffff\n        /* \"#utility.yul\":3993:3999   */\n      dup2\n        /* \"#utility.yul\":3990:4020   */\n      gt\n        /* \"#utility.yul\":3987:4104   */\n      iszero\n      tag_162\n      jumpi\n        /* \"#utility.yul\":4023:4102   */\n      tag_163\n      tag_83\n      jump\t// in\n    tag_163:\n        /* \"#utility.yul\":3987:4104   */\n    tag_162:\n        /* \"#utility.yul\":4128:4191   */\n      tag_164\n        /* \"#utility.yul\":4183:4190   */\n      dup6\n        /* \"#utility.yul\":4174:4180   */\n      dup3\n        /* \"#utility.yul\":4163:4172   */\n      dup7\n        /* \"#utility.yul\":4159:4181   */\n      add\n        /* \"#utility.yul\":4128:4191   */\n      tag_92\n      jump\t// in\n    tag_164:\n        /* \"#utility.yul\":4118:4191   */\n      swap3\n      pop\n        /* \"#utility.yul\":3914:4201   */\n      pop\n        /* \"#utility.yul\":4268:4270   */\n      0x20\n        /* \"#utility.yul\":4257:4266   */\n      dup4\n        /* \"#utility.yul\":4253:4271   */\n      add\n        /* \"#utility.yul\":4240:4272   */\n      calldataload\n        /* \"#utility.yul\":4299:4317   */\n      0xffffffffffffffff\n        /* \"#utility.yul\":4291:4297   */\n      dup2\n        /* \"#utility.yul\":4288:4318   */\n      gt\n        /* \"#utility.yul\":4285:4402   */\n      iszero\n      tag_165\n      jumpi\n        /* \"#utility.yul\":4321:4400   */\n      tag_166\n      tag_83\n      jump\t// in\n    tag_166:\n        /* \"#utility.yul\":4285:4402   */\n    tag_165:\n        /* \"#utility.yul\":4426:4489   */\n      tag_167\n        /* \"#utility.yul\":4481:4488   */\n      dup6\n        /* \"#utility.yul\":4472:4478   */\n      dup3\n        /* \"#utility.yul\":4461:4470   */\n      dup7\n        /* \"#utility.yul\":4457:4479   */\n      add\n        /* \"#utility.yul\":4426:4489   */\n      tag_92\n      jump\t// in\n    tag_167:\n        /* \"#utility.yul\":4416:4489   */\n      swap2\n      pop\n        /* \"#utility.yul\":4211:4499   */\n      pop\n        /* \"#utility.yul\":3672:4506   */\n      swap3\n      pop\n      swap3\n      swap1\n      pop\n      jump\t// out\n        /* \"#utility.yul\":4512:4602   */\n    tag_93:\n        /* \"#utility.yul\":4546:4553   */\n      0x00\n        /* \"#utility.yul\":4589:4594   */\n      dup2\n        /* \"#utility.yul\":4582:4595   */\n      iszero\n        /* \"#utility.yul\":4575:4596   */\n      iszero\n        /* \"#utility.yul\":4564:4596   */\n      swap1\n      pop\n        /* \"#utility.yul\":4512:4602   */\n      swap2\n      swap1\n      pop\n      jump\t// out\n        /* \"#utility.yul\":4608:4717   */\n    tag_94:\n        /* \"#utility.yul\":4689:4710   */\n      tag_170\n        /* \"#utility.yul\":4704:4709   */\n      dup2\n        /* \"#utility.yul\":4689:4710   */\n      tag_93\n      jump\t// in\n    tag_170:\n        /* \"#utility.yul\":4684:4687   */\n      dup3\n        /* \"#utility.yul\":4677:4711   */\n      mstore\n        /* \"#utility.yul\":4608:4717   */\n      pop\n      pop\n      jump\t// out\n        /* \"#utility.yul\":4723:4933   */\n    tag_21:\n        /* \"#utility.yul\":4810:4814   */\n      0x00\n        /* \"#utility.yul\":4848:4850   */\n      0x20\n        /* \"#utility.yul\":4837:4846   */\n      dup3\n        /* \"#utility.yul\":4833:4851   */\n      add\n        /* \"#utility.yul\":4825:4851   */\n      swap1\n      pop\n        /* \"#utility.yul\":4861:4926   */\n      tag_172\n        /* \"#utility.yul\":4923:4924   */\n      0x00\n        /* \"#utility.yul\":4912:4921   */\n      dup4\n        /* \"#utility.yul\":4908:4925   */\n      add\n        /* \"#utility.yul\":4899:4905   */\n      dup5\n        /* \"#utility.yul\":4861:4926   */\n      tag_94\n      jump\t// in\n    tag_172:\n        /* \"#utility.yul\":4723:4933   */\n      swap3\n      swap2\n      pop\n      pop\n      jump\t// out\n        /* \"#utility.yul\":4939:5038   */\n    tag_95:\n        /* \"#utility.yul\":4991:4997   */\n      0x00\n        /* \"#utility.yul\":5025:5030   */\n      dup2\n        /* \"#utility.yul\":5019:5031   */\n      mload\n        /* \"#utility.yul\":5009:5031   */\n      swap1\n      pop\n        /* \"#utility.yul\":4939:5038   */\n      swap2\n      swap1\n      pop\n      jump\t// out\n        /* \"#utility.yul\":5044:5213   */\n    tag_96:\n        /* \"#utility.yul\":5128:5139   */\n      0x00\n        /* \"#utility.yul\":5162:5168   */\n      dup3\n        /* \"#utility.yul\":5157:5160   */\n      dup3\n        /* \"#utility.yul\":5150:5169   */\n      mstore\n        /* \"#utility.yul\":5202:5206   */\n      0x20\n        /* \"#utility.yul\":5197:5200   */\n      dup3\n        /* \"#utility.yul\":5193:5207   */\n      add\n        /* \"#utility.yul\":5178:5207   */\n      swap1\n      pop\n        /* \"#utility.yul\":5044:5213   */\n      swap3\n      swap2\n      pop\n      pop\n      jump\t// out\n        /* \"#utility.yul\":5219:5596   */\n    tag_97:\n        /* \"#utility.yul\":5307:5310   */\n      0x00\n        /* \"#utility.yul\":5335:5374   */\n      tag_176\n        /* \"#utility.yul\":5368:5373   */\n      dup3\n        /* \"#utility.yul\":5335:5374   */\n      tag_95\n      jump\t// in\n    tag_176:\n        /* \"#utility.yul\":5390:5461   */\n      tag_177\n        /* \"#utility.yul\":5454:5460   */\n      dup2\n        /* \"#utility.yul\":5449:5452   */\n      dup6\n        /* \"#utility.yul\":5390:5461   */\n      tag_96\n      jump\t// in\n    tag_177:\n        /* \"#utility.yul\":5383:5461   */\n      swap4\n      pop\n        /* \"#utility.yul\":5470:5535   */\n      tag_178\n        /* \"#utility.yul\":5528:5534   */\n      dup2\n        /* \"#utility.yul\":5523:5526   */\n      dup6\n        /* \"#utility.yul\":5516:5520   */\n      0x20\n        /* \"#utility.yul\":5509:5514   */\n      dup7\n        /* \"#utility.yul\":5505:5521   */\n      add\n        /* \"#utility.yul\":5470:5535   */\n      tag_78\n      jump\t// in\n    tag_178:\n        /* \"#utility.yul\":5560:5589   */\n      tag_179\n        /* \"#utility.yul\":5582:5588   */\n      dup2\n        /* \"#utility.yul\":5560:5589   */\n      tag_79\n      jump\t// in\n    tag_179:\n        /* \"#utility.yul\":5555:5558   */\n      dup5\n        /* \"#utility.yul\":5551:5590   */\n      add\n        /* \"#utility.yul\":5544:5590   */\n      swap2\n      pop\n        /* \"#utility.yul\":5311:5596   */\n      pop\n        /* \"#utility.yul\":5219:5596   */\n      swap3\n      swap2\n      pop\n      pop\n      jump\t// out\n        /* \"#utility.yul\":5602:5915   */\n    tag_25:\n        /* \"#utility.yul\":5715:5719   */\n      0x00\n        /* \"#utility.yul\":5753:5755   */\n      0x20\n        /* \"#utility.yul\":5742:5751   */\n      dup3\n        /* \"#utility.yul\":5738:5756   */\n      add\n        /* \"#utility.yul\":5730:5756   */\n      swap1\n      pop\n        /* \"#utility.yul\":5802:5811   */\n      dup2\n        /* \"#utility.yul\":5796:5800   */\n      dup2\n        /* \"#utility.yul\":5792:5812   */\n      sub\n        /* \"#utility.yul\":5788:5789   */\n      0x00\n        /* \"#utility.yul\":5777:5786   */\n      dup4\n        /* \"#utility.yul\":5773:5790   */\n      add\n        /* \"#utility.yul\":5766:5813   */\n      mstore\n        /* \"#utility.yul\":5830:5908   */\n      tag_181\n        /* \"#utility.yul\":5903:5907   */\n      dup2\n        /* \"#utility.yul\":5894:5900   */\n      dup5\n        /* \"#utility.yul\":5830:5908   */\n      tag_97\n      jump\t// in\n    tag_181:\n        /* \"#utility.yul\":5822:5908   */\n      swap1\n      pop\n        /* \"#utility.yul\":5602:5915   */\n      swap3\n      swap2\n      pop\n      pop\n      jump\t// out\n        /* \"#utility.yul\":5921:5998   */\n    tag_98:\n        /* \"#utility.yul\":5958:5965   */\n      0x00\n        /* \"#utility.yul\":5987:5992   */\n      dup2\n        /* \"#utility.yul\":5976:5992   */\n      swap1\n      pop\n        /* \"#utility.yul\":5921:5998   */\n      swap2\n      swap1\n      pop\n      jump\t// out\n        /* \"#utility.yul\":6004:6122   */\n    tag_99:\n        /* \"#utility.yul\":6091:6115   */\n      tag_184\n        /* \"#utility.yul\":6109:6114   */\n      dup2\n        /* \"#utility.yul\":6091:6115   */\n      tag_98\n      jump\t// in\n    tag_184:\n        /* \"#utility.yul\":6086:6089   */\n      dup3\n        /* \"#utility.yul\":6079:6116   */\n      mstore\n        /* \"#utility.yul\":6004:6122   */\n      pop\n      pop\n      jump\t// out\n        /* \"#utility.yul\":6128:6350   */\n    tag_38:\n        /* \"#utility.yul\":6221:6225   */\n      0x00\n        /* \"#utility.yul\":6259:6261   */\n      0x20\n        /* \"#utility.yul\":6248:6257   */\n      dup3\n        /* \"#utility.yul\":6244:6262   */\n      add\n        /* \"#utility.yul\":6236:6262   */\n      swap1\n      pop\n        /* \"#utility.yul\":6272:6343   */\n      tag_186\n        /* \"#utility.yul\":6340:6341   */\n      0x00\n        /* \"#utility.yul\":6329:6338   */\n      dup4\n        /* \"#utility.yul\":6325:6342   */\n      add\n        /* \"#utility.yul\":6316:6322   */\n      dup5\n        /* \"#utility.yul\":6272:6343   */\n      tag_99\n      jump\t// in\n    tag_186:\n        /* \"#utility.yul\":6128:6350   */\n      swap3\n      swap2\n      pop\n      pop\n      jump\t// out\n        /* \"#utility.yul\":6356:6536   */\n    tag_100:\n        /* \"#utility.yul\":6404:6481   */\n      0x4e487b7100000000000000000000000000000000000000000000000000000000\n        /* \"#utility.yul\":6401:6402   */\n      0x00\n        /* \"#utility.yul\":6394:6482   */\n      mstore\n        /* \"#utility.yul\":6501:6505   */\n      0x22\n        /* \"#utility.yul\":6498:6499   */\n      0x04\n        /* \"#utility.yul\":6491:6506   */\n      mstore\n        /* \"#utility.yul\":6525:6529   */\n      0x24\n        /* \"#utility.yul\":6522:6523   */\n      0x00\n        /* \"#utility.yul\":6515:6530   */\n      revert\n        /* \"#utility.yul\":6542:6862   */\n    tag_43:\n        /* \"#utility.yul\":6586:6592   */\n      0x00\n        /* \"#utility.yul\":6623:6624   */\n      0x02\n        /* \"#utility.yul\":6617:6621   */\n      dup3\n        /* \"#utility.yul\":6613:6625   */\n      div\n        /* \"#utility.yul\":6603:6625   */\n      swap1\n      pop\n        /* \"#utility.yul\":6670:6671   */\n      0x01\n        /* \"#utility.yul\":6664:6668   */\n      dup3\n        /* \"#utility.yul\":6660:6672   */\n      and\n        /* \"#utility.yul\":6691:6709   */\n      dup1\n        /* \"#utility.yul\":6681:6762   */\n      tag_189\n      jumpi\n        /* \"#utility.yul\":6747:6751   */\n      0x7f\n        /* \"#utility.yul\":6739:6745   */\n      dup3\n        /* \"#utility.yul\":6735:6752   */\n      and\n        /* \"#utility.yul\":6725:6752   */\n      swap2\n      pop\n        /* \"#utility.yul\":6681:6762   */\n    tag_189:\n        /* \"#utility.yul\":6809:6811   */\n      0x20\n        /* \"#utility.yul\":6801:6807   */\n      dup3\n        /* \"#utility.yul\":6798:6812   */\n      lt\n        /* \"#utility.yul\":6778:6796   */\n      dup2\n        /* \"#utility.yul\":6775:6813   */\n      sub\n        /* \"#utility.yul\":6772:6856   */\n      tag_190\n      jumpi\n        /* \"#utility.yul\":6828:6846   */\n      tag_191\n      tag_100\n      jump\t// in\n    tag_191:\n        /* \"#utility.yul\":6772:6856   */\n    tag_190:\n        /* \"#utility.yul\":6593:6862   */\n      pop\n        /* \"#utility.yul\":6542:6862   */\n      swap2\n      swap1\n      pop\n      jump\t// out\n        /* \"#utility.yul\":6868:7016   */\n    tag_101:\n        /* \"#utility.yul\":6970:6981   */\n      0x00\n        /* \"#utility.yul\":7007:7010   */\n      dup2\n        /* \"#utility.yul\":6992:7010   */\n      swap1\n      pop\n        /* \"#utility.yul\":6868:7016   */\n      swap3\n      swap2\n      pop\n      pop\n      jump\t// out\n        /* \"#utility.yul\":7022:7412   */\n    tag_102:\n        /* \"#utility.yul\":7128:7131   */\n      0x00\n        /* \"#utility.yul\":7156:7195   */\n      tag_194\n        /* \"#utility.yul\":7189:7194   */\n      dup3\n        /* \"#utility.yul\":7156:7195   */\n      tag_95\n      jump\t// in\n    tag_194:\n        /* \"#utility.yul\":7211:7300   */\n      tag_195\n        /* \"#utility.yul\":7293:7299   */\n      dup2\n        /* \"#utility.yul\":7288:7291   */\n      dup6\n        /* \"#utility.yul\":7211:7300   */\n      tag_101\n      jump\t// in\n    tag_195:\n        /* \"#utility.yul\":7204:7300   */\n      swap4\n      pop\n        /* \"#utility.yul\":7309:7374   */\n      tag_196\n        /* \"#utility.yul\":7367:7373   */\n      dup2\n        /* \"#utility.yul\":7362:7365   */\n      dup6\n        /* \"#utility.yul\":7355:7359   */\n      0x20\n        /* \"#utility.yul\":7348:7353   */\n      dup7\n        /* \"#utility.yul\":7344:7360   */\n      add\n        /* \"#utility.yul\":7309:7374   */\n      tag_78\n      jump\t// in\n    tag_196:\n        /* \"#utility.yul\":7399:7405   */\n      dup1\n        /* \"#utility.yul\":7394:7397   */\n      dup5\n        /* \"#utility.yul\":7390:7406   */\n      add\n        /* \"#utility.yul\":7383:7406   */\n      swap2\n      pop\n        /* \"#utility.yul\":7132:7412   */\n      pop\n        /* \"#utility.yul\":7022:7412   */\n      swap3\n      swap2\n      pop\n      pop\n      jump\t// out\n        /* \"#utility.yul\":7418:7853   */\n    tag_50:\n        /* \"#utility.yul\":7598:7601   */\n      0x00\n        /* \"#utility.yul\":7620:7715   */\n      tag_198\n        /* \"#utility.yul\":7711:7714   */\n      dup3\n        /* \"#utility.yul\":7702:7708   */\n      dup6\n        /* \"#utility.yul\":7620:7715   */\n      tag_102\n      jump\t// in\n    tag_198:\n        /* \"#utility.yul\":7613:7715   */\n      swap2\n      pop\n        /* \"#utility.yul\":7732:7827   */\n      tag_199\n        /* \"#utility.yul\":7823:7826   */\n      dup3\n        /* \"#utility.yul\":7814:7820   */\n      dup5\n        /* \"#utility.yul\":7732:7827   */\n      tag_102\n      jump\t// in\n    tag_199:\n        /* \"#utility.yul\":7725:7827   */\n      swap2\n      pop\n        /* \"#utility.yul\":7844:7847   */\n      dup2\n        /* \"#utility.yul\":7837:7847   */\n      swap1\n      pop\n        /* \"#utility.yul\":7418:7853   */\n      swap4\n      swap3\n      pop\n      pop\n      pop\n      jump\t// out\n        /* \"#utility.yul\":7859:8000   */\n    tag_103:\n        /* \"#utility.yul\":7908:7912   */\n      0x00\n        /* \"#utility.yul\":7931:7934   */\n      dup2\n        /* \"#utility.yul\":7923:7934   */\n      swap1\n      pop\n        /* \"#utility.yul\":7954:7957   */\n      dup2\n        /* \"#utility.yul\":7951:7952   */\n      0x00\n        /* \"#utility.yul\":7944:7958   */\n      mstore\n        /* \"#utility.yul\":7988:7992   */\n      0x20\n        /* \"#utility.yul\":7985:7986   */\n      0x00\n        /* \"#utility.yul\":7975:7993   */\n      keccak256\n        /* \"#utility.yul\":7967:7993   */\n      swap1\n      pop\n        /* \"#utility.yul\":7859:8000   */\n      swap2\n      swap1\n      pop\n      jump\t// out\n        /* \"#utility.yul\":8030:8904   */\n    tag_104:\n        /* \"#utility.yul\":8133:8136   */\n      0x00\n        /* \"#utility.yul\":8170:8175   */\n      dup2\n        /* \"#utility.yul\":8164:8176   */\n      sload\n        /* \"#utility.yul\":8199:8235   */\n      tag_202\n        /* \"#utility.yul\":8225:8234   */\n      dup2\n        /* \"#utility.yul\":8199:8235   */\n      tag_43\n      jump\t// in\n    tag_202:\n        /* \"#utility.yul\":8251:8340   */\n      tag_203\n        /* \"#utility.yul\":8333:8339   */\n      dup2\n        /* \"#utility.yul\":8328:8331   */\n      dup7\n        /* \"#utility.yul\":8251:8340   */\n      tag_101\n      jump\t// in\n    tag_203:\n        /* \"#utility.yul\":8244:8340   */\n      swap5\n      pop\n        /* \"#utility.yul\":8371:8372   */\n      0x01\n        /* \"#utility.yul\":8360:8369   */\n      dup3\n        /* \"#utility.yul\":8356:8373   */\n      and\n        /* \"#utility.yul\":8387:8388   */\n      0x00\n        /* \"#utility.yul\":8382:8548   */\n      dup2\n      eq\n      tag_205\n      jumpi\n        /* \"#utility.yul\":8562:8563   */\n      0x01\n        /* \"#utility.yul\":8557:8898   */\n      dup2\n      eq\n      tag_206\n      jumpi\n        /* \"#utility.yul\":8349:8898   */\n      jump(tag_204)\n        /* \"#utility.yul\":8382:8548   */\n    tag_205:\n        /* \"#utility.yul\":8466:8470   */\n      0xff\n        /* \"#utility.yul\":8462:8471   */\n      not\n        /* \"#utility.yul\":8451:8460   */\n      dup4\n        /* \"#utility.yul\":8447:8472   */\n      and\n        /* \"#utility.yul\":8442:8445   */\n      dup7\n        /* \"#utility.yul\":8435:8473   */\n      mstore\n        /* \"#utility.yul\":8528:8534   */\n      dup2\n        /* \"#utility.yul\":8521:8535   */\n      iszero\n        /* \"#utility.yul\":8514:8536   */\n      iszero\n        /* \"#utility.yul\":8506:8512   */\n      dup3\n        /* \"#utility.yul\":8502:8537   */\n      mul\n        /* \"#utility.yul\":8497:8500   */\n      dup7\n        /* \"#utility.yul\":8493:8538   */\n      add\n        /* \"#utility.yul\":8486:8538   */\n      swap4\n      pop\n        /* \"#utility.yul\":8382:8548   */\n      jump(tag_204)\n        /* \"#utility.yul\":8557:8898   */\n    tag_206:\n        /* \"#utility.yul\":8624:8662   */\n      tag_207\n        /* \"#utility.yul\":8656:8661   */\n      dup6\n        /* \"#utility.yul\":8624:8662   */\n      tag_103\n      jump\t// in\n    tag_207:\n        /* \"#utility.yul\":8684:8685   */\n      0x00\n        /* \"#utility.yul\":8698:8852   */\n    tag_208:\n        /* \"#utility.yul\":8712:8718   */\n      dup4\n        /* \"#utility.yul\":8709:8710   */\n      dup2\n        /* \"#utility.yul\":8706:8719   */\n      lt\n        /* \"#utility.yul\":8698:8852   */\n      iszero\n      tag_210\n      jumpi\n        /* \"#utility.yul\":8786:8793   */\n      dup2\n        /* \"#utility.yul\":8780:8794   */\n      sload\n        /* \"#utility.yul\":8776:8777   */\n      dup2\n        /* \"#utility.yul\":8771:8774   */\n      dup10\n        /* \"#utility.yul\":8767:8778   */\n      add\n        /* \"#utility.yul\":8760:8795   */\n      mstore\n        /* \"#utility.yul\":8836:8837   */\n      0x01\n        /* \"#utility.yul\":8827:8834   */\n      dup3\n        /* \"#utility.yul\":8823:8838   */\n      add\n        /* \"#utility.yul\":8812:8838   */\n      swap2\n      pop\n        /* \"#utility.yul\":8734:8738   */\n      0x20\n        /* \"#utility.yul\":8731:8732   */\n      dup2\n        /* \"#utility.yul\":8727:8739   */\n      add\n        /* \"#utility.yul\":8722:8739   */\n      swap1\n      pop\n        /* \"#utility.yul\":8698:8852   */\n      jump(tag_208)\n    tag_210:\n        /* \"#utility.yul\":8881:8887   */\n      dup4\n        /* \"#utility.yul\":8876:8879   */\n      dup9\n        /* \"#utility.yul\":8872:8888   */\n      add\n        /* \"#utility.yul\":8865:8888   */\n      swap6\n      pop\n        /* \"#utility.yul\":8564:8898   */\n      pop\n      pop\n        /* \"#utility.yul\":8349:8898   */\n    tag_204:\n      pop\n        /* \"#utility.yul\":8137:8904   */\n      pop\n      pop\n        /* \"#utility.yul\":8030:8904   */\n      swap3\n      swap2\n      pop\n      pop\n      jump\t// out\n        /* \"#utility.yul\":8910:9333   */\n    tag_52:\n        /* \"#utility.yul\":9084:9087   */\n      0x00\n        /* \"#utility.yul\":9106:9198   */\n      tag_212\n        /* \"#utility.yul\":9194:9197   */\n      dup3\n        /* \"#utility.yul\":9185:9191   */\n      dup6\n        /* \"#utility.yul\":9106:9198   */\n      tag_104\n      jump\t// in\n    tag_212:\n        /* \"#utility.yul\":9099:9198   */\n      swap2\n      pop\n        /* \"#utility.yul\":9215:9307   */\n      tag_213\n        /* \"#utility.yul\":9303:9306   */\n      dup3\n        /* \"#utility.yul\":9294:9300   */\n      dup5\n        /* \"#utility.yul\":9215:9307   */\n      tag_104\n      jump\t// in\n    tag_213:\n        /* \"#utility.yul\":9208:9307   */\n      swap2\n      pop\n        /* \"#utility.yul\":9324:9327   */\n      dup2\n        /* \"#utility.yul\":9317:9327   */\n      swap1\n      pop\n        /* \"#utility.yul\":8910:9333   */\n      swap4\n      swap3\n      pop\n      pop\n      pop\n      jump\t// out\n        /* \"#utility.yul\":9339:9432   */\n    tag_105:\n        /* \"#utility.yul\":9376:9382   */\n      0x00\n        /* \"#utility.yul\":9423:9425   */\n      0x20\n        /* \"#utility.yul\":9418:9420   */\n      0x1f\n        /* \"#utility.yul\":9411:9416   */\n      dup4\n        /* \"#utility.yul\":9407:9421   */\n      add\n        /* \"#utility.yul\":9403:9426   */\n      div\n        /* \"#utility.yul\":9393:9426   */\n      swap1\n      pop\n        /* \"#utility.yul\":9339:9432   */\n      swap2\n      swap1\n      pop\n      jump\t// out\n        /* \"#utility.yul\":9438:9545   */\n    tag_106:\n        /* \"#utility.yul\":9482:9490   */\n      0x00\n        /* \"#utility.yul\":9532:9537   */\n      dup3\n        /* \"#utility.yul\":9526:9530   */\n      dup3\n        /* \"#utility.yul\":9522:9538   */\n      shl\n        /* \"#utility.yul\":9501:9538   */\n      swap1\n      pop\n        /* \"#utility.yul\":9438:9545   */\n      swap3\n      swap2\n      pop\n      pop\n      jump\t// out\n        /* \"#utility.yul\":9551:9944   */\n    tag_107:\n        /* \"#utility.yul\":9620:9626   */\n      0x00\n        /* \"#utility.yul\":9670:9671   */\n      0x08\n        /* \"#utility.yul\":9658:9668   */\n      dup4\n        /* \"#utility.yul\":9654:9672   */\n      mul\n        /* \"#utility.yul\":9693:9790   */\n      tag_217\n        /* \"#utility.yul\":9723:9789   */\n      0xffffffffffffffffffffffffffffffffffffffffffffffffffffffffffffffff\n        /* \"#utility.yul\":9712:9721   */\n      dup3\n        /* \"#utility.yul\":9693:9790   */\n      tag_106\n      jump\t// in\n    tag_217:\n        /* \"#utility.yul\":9811:9850   */\n      tag_218\n        /* \"#utility.yul\":9841:9849   */\n      dup7\n        /* \"#utility.yul\":9830:9839   */\n      dup4\n        /* \"#utility.yul\":9811:9850   */\n      tag_106\n      jump\t// in\n    tag_218:\n        /* \"#utility.yul\":9799:9850   */\n      swap6\n      pop\n        /* \"#utility.yul\":9883:9887   */\n      dup1\n        /* \"#utility.yul\":9879:9888   */\n      not\n        /* \"#utility.yul\":9872:9877   */\n      dup5\n        /* \"#utility.yul\":9868:9889   */\n      and\n        /* \"#utility.yul\":9859:9889   */\n      swap4\n      pop\n        /* \"#utility.yul\":9932:9936   */\n      dup1\n        /* \"#utility.yul\":9922:9930   */\n      dup7\n        /* \"#utility.yul\":9918:9937   */\n      and\n        /* \"#utility.yul\":9911:9916   */\n      dup5\n        /* \"#utility.yul\":9908:9938   */\n      or\n        /* \"#utility.yul\":9898:9938   */\n      swap3\n      pop\n        /* \"#utility.yul\":9627:9944   */\n      pop\n      pop\n        /* \"#utility.yul\":9551:9944   */\n      swap4\n      swap3\n      pop\n      pop\n      pop\n      jump\t// out\n        /* \"#utility.yul\":9950:10010   */\n    tag_108:\n        /* \"#utility.yul\":9978:9981   */\n      0x00\n        /* \"#utility.yul\":9999:10004   */\n      dup2\n        /* \"#utility.yul\":9992:10004   */\n      swap1\n      pop\n        /* \"#utility.yul\":9950:10010   */\n      swap2\n      swap1\n      pop\n      jump\t// out\n        /* \"#utility.yul\":10016:10158   */\n    tag_109:\n        /* \"#utility.yul\":10066:10075   */\n      0x00\n        /* \"#utility.yul\":10099:10152   */\n      tag_221\n        /* \"#utility.yul\":10117:10151   */\n      tag_222\n        /* \"#utility.yul\":10126:10150   */\n      tag_223\n        /* \"#utility.yul\":10144:10149   */\n      dup5\n        /* \"#utility.yul\":10126:10150   */\n      tag_98\n      jump\t// in\n    tag_223:\n        /* \"#utility.yul\":10117:10151   */\n      tag_108\n      jump\t// in\n    tag_222:\n        /* \"#utility.yul\":10099:10152   */\n      tag_98\n      jump\t// in\n    tag_221:\n        /* \"#utility.yul\":10086:10152   */\n      swap1\n      pop\n        /* \"#utility.yul\":10016:10158   */\n      swap2\n      swap1\n      pop\n      jump\t// out\n        /* \"#utility.yul\":10164:10239   */\n    tag_110:\n        /* \"#utility.yul\":10207:10210   */\n      0x00\n        /* \"#utility.yul\":10228:10233   */\n      dup2\n        /* \"#utility.yul\":10221:10233   */\n      swap1\n      pop\n        /* \"#utility.yul\":10164:10239   */\n      swap2\n      swap1\n      pop\n      jump\t// out\n        /* \"#utility.yul\":10245:10514   */\n    tag_111:\n        /* \"#utility.yul\":10355:10394   */\n      tag_226\n        /* \"#utility.yul\":10386:10393   */\n      dup4\n        /* \"#utility.yul\":10355:10394   */\n      tag_109\n      jump\t// in\n    tag_226:\n        /* \"#utility.yul\":10416:10507   */\n      tag_227\n        /* \"#utility.yul\":10465:10506   */\n      tag_228\n        /* \"#utility.yul\":10489:10505   */\n      dup3\n        /* \"#utility.yul\":10465:10506   */\n      tag_110\n      jump\t// in\n    tag_228:\n        /* \"#utility.yul\":10457:10463   */\n      dup5\n        /* \"#utility.yul\":10450:10454   */\n      dup5\n        /* \"#utility.yul\":10444:10455   */\n      sload\n        /* \"#utility.yul\":10416:10507   */\n      tag_107\n      jump\t// in\n    tag_227:\n        /* \"#utility.yul\":10410:10414   */\n      dup3\n        /* \"#utility.yul\":10403:10508   */\n      sstore\n        /* \"#utility.yul\":10321:10514   */\n      pop\n        /* \"#utility.yul\":10245:10514   */\n      pop\n      pop\n      pop\n      jump\t// out\n        /* \"#utility.yul\":10520:10593   */\n    tag_112:\n        /* \"#utility.yul\":10565:10568   */\n      0x00\n        /* \"#utility.yul\":10520:10593   */\n      swap1\n      jump\t// out\n        /* \"#utility.yul\":10599:10788   */\n    tag_113:\n        /* \"#utility.yul\":10676:10708   */\n      tag_231\n      tag_112\n      jump\t// in\n    tag_231:\n        /* \"#utility.yul\":10717:10782   */\n      tag_232\n        /* \"#utility.yul\":10775:10781   */\n      dup2\n        /* \"#utility.yul\":10767:10773   */\n      dup5\n        /* \"#utility.yul\":10761:10765   */\n      dup5\n        /* \"#utility.yul\":10717:10782   */\n      tag_111\n      jump\t// in\n    tag_232:\n        /* \"#utility.yul\":10652:10788   */\n      pop\n        /* \"#utility.yul\":10599:10788   */\n      pop\n      pop\n      jump\t// out\n        /* \"#utility.yul\":10794:10980   */\n    tag_114:\n        /* \"#utility.yul\":10854:10974   */\n    tag_234:\n        /* \"#utility.yul\":10871:10874   */\n      dup2\n        /* \"#utility.yul\":10864:10869   */\n      dup2\n        /* \"#utility.yul\":10861:10875   */\n      lt\n        /* \"#utility.yul\":10854:10974   */\n      iszero\n      tag_236\n      jumpi\n        /* \"#utility.yul\":10925:10964   */\n      tag_237\n        /* \"#utility.yul\":10962:10963   */\n      0x00\n        /* \"#utility.yul\":10955:10960   */\n      dup3\n        /* \"#utility.yul\":10925:10964   */\n      tag_113\n      jump\t// in\n    tag_237:\n        /* \"#utility.yul\":10898:10899   */\n      0x01\n        /* \"#utility.yul\":10891:10896   */\n      dup2\n        /* \"#utility.yul\":10887:10900   */\n      add\n        /* \"#utility.yul\":10878:10900   */\n      swap1\n      pop\n        /* \"#utility.yul\":10854:10974   */\n      jump(tag_234)\n    tag_236:\n        /* \"#utility.yul\":10794:10980   */\n      pop\n      pop\n      jump\t// out\n        /* \"#utility.yul\":10986:11529   */\n    tag_115:\n        /* \"#utility.yul\":11087:11089   */\n      0x1f\n        /* \"#utility.yul\":11082:11085   */\n      dup3\n        /* \"#utility.yul\":11079:11090   */\n      gt\n        /* \"#utility.yul\":11076:11522   */\n      iszero\n      tag_239\n      jumpi\n        /* \"#utility.yul\":11121:11159   */\n      tag_240\n        /* \"#utility.yul\":11153:11158   */\n      dup2\n        /* \"#utility.yul\":11121:11159   */\n      tag_103\n      jump\t// in\n    tag_240:\n        /* \"#utility.yul\":11205:11234   */\n      tag_241\n        /* \"#utility.yul\":11223:11233   */\n      dup5\n        /* \"#utility.yul\":11205:11234   */\n      tag_105\n      jump\t// in\n    tag_241:\n        /* \"#utility.yul\":11195:11203   */\n      dup2\n        /* \"#utility.yul\":11191:11235   */\n      add\n        /* \"#utility.yul\":11388:11390   */\n      0x20\n        /* \"#utility.yul\":11376:11386   */\n      dup6\n        /* \"#utility.yul\":11373:11391   */\n      lt\n        /* \"#utility.yul\":11370:11419   */\n      iszero\n      tag_242\n      jumpi\n        /* \"#utility.yul\":11409:11417   */\n      dup2\n        /* \"#utility.yul\":11394:11417   */\n      swap1\n      pop\n        /* \"#utility.yul\":11370:11419   */\n    tag_242:\n        /* \"#utility.yul\":11432:11512   */\n      tag_243\n        /* \"#utility.yul\":11488:11510   */\n      tag_244\n        /* \"#utility.yul\":11506:11509   */\n      dup6\n        /* \"#utility.yul\":11488:11510   */\n      tag_105\n      jump\t// in\n    tag_244:\n        /* \"#utility.yul\":11478:11486   */\n      dup4\n        /* \"#utility.yul\":11474:11511   */\n      add\n        /* \"#utility.yul\":11461:11472   */\n      dup3\n        /* \"#utility.yul\":11432:11512   */\n      tag_114\n      jump\t// in\n    tag_243:\n        /* \"#utility.yul\":11091:11522   */\n      pop\n      pop\n        /* \"#utility.yul\":11076:11522   */\n    tag_239:\n        /* \"#utility.yul\":10986:11529   */\n      pop\n      pop\n      pop\n      jump\t// out\n        /* \"#utility.yul\":11535:11652   */\n    tag_116:\n        /* \"#utility.yul\":11589:11597   */\n      0x00\n        /* \"#utility.yul\":11639:11644   */\n      dup3\n        /* \"#utility.yul\":11633:11637   */\n      dup3\n        /* \"#utility.yul\":11629:11645   */\n      shr\n        /* \"#utility.yul\":11608:11645   */\n      swap1\n      pop\n        /* \"#utility.yul\":11535:11652   */\n      swap3\n      swap2\n      pop\n      pop\n      jump\t// out\n        /* \"#utility.yul\":11658:11827   */\n    tag_117:\n        /* \"#utility.yul\":11702:11708   */\n      0x00\n        /* \"#utility.yul\":11735:11786   */\n      tag_247\n        /* \"#utility.yul\":11783:11784   */\n      0x00\n        /* \"#utility.yul\":11779:11785   */\n      not\n        /* \"#utility.yul\":11771:11776   */\n      dup5\n        /* \"#utility.yul\":11768:11769   */\n      0x08\n        /* \"#utility.yul\":11764:11777   */\n      mul\n        /* \"#utility.yul\":11735:11786   */\n      tag_116\n      jump\t// in\n    tag_247:\n        /* \"#utility.yul\":11731:11787   */\n      not\n        /* \"#utility.yul\":11816:11820   */\n      dup1\n        /* \"#utility.yul\":11810:11814   */\n      dup4\n        /* \"#utility.yul\":11806:11821   */\n      and\n        /* \"#utility.yul\":11796:11821   */\n      swap2\n      pop\n        /* \"#utility.yul\":11709:11827   */\n      pop\n        /* \"#utility.yul\":11658:11827   */\n      swap3\n      swap2\n      pop\n      pop\n      jump\t// out\n        /* \"#utility.yul\":11832:12127   */\n    tag_118:\n        /* \"#utility.yul\":11908:11912   */\n      0x00\n        /* \"#utility.yul\":12054:12083   */\n      tag_249\n        /* \"#utility.yul\":12079:12082   */\n      dup4\n        /* \"#utility.yul\":12073:12077   */\n      dup4\n        /* \"#utility.yul\":12054:12083   */\n      tag_117\n      jump\t// in\n    tag_249:\n        /* \"#utility.yul\":12046:12083   */\n      swap2\n      pop\n        /* \"#utility.yul\":12116:12119   */\n      dup3\n        /* \"#utility.yul\":12113:12114   */\n      0x02\n        /* \"#utility.yul\":12109:12120   */\n      mul\n        /* \"#utility.yul\":12103:12107   */\n      dup3\n        /* \"#utility.yul\":12100:12121   */\n      or\n        /* \"#utility.yul\":12092:12121   */\n      swap1\n      pop\n        /* \"#utility.yul\":11832:12127   */\n      swap3\n      swap2\n      pop\n      pop\n      jump\t// out\n        /* \"#utility.yul\":12132:13527   */\n    tag_70:\n        /* \"#utility.yul\":12249:12286   */\n      tag_251\n        /* \"#utility.yul\":12282:12285   */\n      dup3\n        /* \"#utility.yul\":12249:12286   */\n      tag_95\n      jump\t// in\n    tag_251:\n        /* \"#utility.yul\":12351:12369   */\n      0xffffffffffffffff\n        /* \"#utility.yul\":12343:12349   */\n      dup2\n        /* \"#utility.yul\":12340:12370   */\n      gt\n        /* \"#utility.yul\":12337:12393   */\n      iszero\n      tag_252\n      jumpi\n        /* \"#utility.yul\":12373:12391   */\n      tag_253\n      tag_86\n      jump\t// in\n    tag_253:\n        /* \"#utility.yul\":12337:12393   */\n    tag_252:\n        /* \"#utility.yul\":12417:12455   */\n      tag_254\n        /* \"#utility.yul\":12449:12453   */\n      dup3\n        /* \"#utility.yul\":12443:12454   */\n      sload\n        /* \"#utility.yul\":12417:12455   */\n      tag_43\n      jump\t// in\n    tag_254:\n        /* \"#utility.yul\":12502:12569   */\n      tag_255\n        /* \"#utility.yul\":12562:12568   */\n      dup3\n        /* \"#utility.yul\":12554:12560   */\n      dup3\n        /* \"#utility.yul\":12548:12552   */\n      dup6\n        /* \"#utility.yul\":12502:12569   */\n      tag_115\n      jump\t// in\n    tag_255:\n        /* \"#utility.yul\":12596:12597   */\n      0x00\n        /* \"#utility.yul\":12620:12624   */\n      0x20\n        /* \"#utility.yul\":12607:12624   */\n      swap1\n      pop\n        /* \"#utility.yul\":12652:12654   */\n      0x1f\n        /* \"#utility.yul\":12644:12650   */\n      dup4\n        /* \"#utility.yul\":12641:12655   */\n      gt\n        /* \"#utility.yul\":12669:12670   */\n      0x01\n        /* \"#utility.yul\":12664:13282   */\n      dup2\n      eq\n      tag_257\n      jumpi\n        /* \"#utility.yul\":13326:13327   */\n      0x00\n        /* \"#utility.yul\":13343:13349   */\n      dup5\n        /* \"#utility.yul\":13340:13417   */\n      iszero\n      tag_258\n      jumpi\n        /* \"#utility.yul\":13392:13401   */\n      dup3\n        /* \"#utility.yul\":13387:13390   */\n      dup8\n        /* \"#utility.yul\":13383:13402   */\n      add\n        /* \"#utility.yul\":13377:13403   */\n      mload\n        /* \"#utility.yul\":13368:13403   */\n      swap1\n      pop\n        /* \"#utility.yul\":13340:13417   */\n    tag_258:\n        /* \"#utility.yul\":13443:13510   */\n      tag_259\n        /* \"#utility.yul\":13503:13509   */\n      dup6\n        /* \"#utility.yul\":13496:13501   */\n      dup3\n        /* \"#utility.yul\":13443:13510   */\n      tag_118\n      jump\t// in\n    tag_259:\n        /* \"#utility.yul\":13437:13441   */\n      dup7\n        /* \"#utility.yul\":13430:13511   */\n      sstore\n        /* \"#utility.yul\":13299:13521   */\n      pop\n        /* \"#utility.yul\":12634:13521   */\n      jump(tag_256)\n        /* \"#utility.yul\":12664:13282   */\n    tag_257:\n        /* \"#utility.yul\":12716:12720   */\n      0x1f\n        /* \"#utility.yul\":12712:12721   */\n      not\n        /* \"#utility.yul\":12704:12710   */\n      dup5\n        /* \"#utility.yul\":12700:12722   */\n      and\n        /* \"#utility.yul\":12750:12787   */\n      tag_260\n        /* \"#utility.yul\":12782:12786   */\n      dup7\n        /* \"#utility.yul\":12750:12787   */\n      tag_103\n      jump\t// in\n    tag_260:\n        /* \"#utility.yul\":12809:12810   */\n      0x00\n        /* \"#utility.yul\":12823:13031   */\n    tag_261:\n        /* \"#utility.yul\":12837:12844   */\n      dup3\n        /* \"#utility.yul\":12834:12835   */\n      dup2\n        /* \"#utility.yul\":12831:12845   */\n      lt\n        /* \"#utility.yul\":12823:13031   */\n      iszero\n      tag_263\n      jumpi\n        /* \"#utility.yul\":12916:12925   */\n      dup5\n        /* \"#utility.yul\":12911:12914   */\n      dup10\n        /* \"#utility.yul\":12907:12926   */\n      add\n        /* \"#utility.yul\":12901:12927   */\n      mload\n        /* \"#utility.yul\":12893:12899   */\n      dup3\n        /* \"#utility.yul\":12886:12928   */\n      sstore\n        /* \"#utility.yul\":12967:12968   */\n      0x01\n        /* \"#utility.yul\":12959:12965   */\n      dup3\n        /* \"#utility.yul\":12955:12969   */\n      add\n        /* \"#utility.yul\":12945:12969   */\n      swap2\n      pop\n        /* \"#utility.yul\":13014:13016   */\n      0x20\n        /* \"#utility.yul\":13003:13012   */\n      dup6\n        /* \"#utility.yul\":12999:13017   */\n      add\n        /* \"#utility.yul\":12986:13017   */\n      swap5\n      pop\n        /* \"#utility.yul\":12860:12864   */\n      0x20\n        /* \"#utility.yul\":12857:12858   */\n      dup2\n        /* \"#utility.yul\":12853:12865   */\n      add\n        /* \"#utility.yul\":12848:12865   */\n      swap1\n      pop\n        /* \"#utility.yul\":12823:13031   */\n      jump(tag_261)\n    tag_263:\n        /* \"#utility.yul\":13059:13065   */\n      dup7\n        /* \"#utility.yul\":13050:13057   */\n      dup4\n        /* \"#utility.yul\":13047:13066   */\n      lt\n        /* \"#utility.yul\":13044:13223   */\n      iszero\n      tag_264\n      jumpi\n        /* \"#utility.yul\":13117:13126   */\n      dup5\n        /* \"#utility.yul\":13112:13115   */\n      dup10\n        /* \"#utility.yul\":13108:13127   */\n      add\n        /* \"#utility.yul\":13102:13128   */\n      mload\n        /* \"#utility.yul\":13160:13208   */\n      tag_265\n        /* \"#utility.yul\":13202:13206   */\n      0x1f\n        /* \"#utility.yul\":13194:13200   */\n      dup10\n        /* \"#utility.yul\":13190:13207   */\n      and\n        /* \"#utility.yul\":13179:13188   */\n      dup3\n        /* \"#utility.yul\":13160:13208   */\n      tag_117\n      jump\t// in\n    tag_265:\n        /* \"#utility.yul\":13152:13158   */\n      dup4\n        /* \"#utility.yul\":13145:13209   */\n      sstore\n        /* \"#utility.yul\":13067:13223   */\n      pop\n        /* \"#utility.yul\":13044:13223   */\n    tag_264:\n        /* \"#utility.yul\":13269:13270   */\n      0x01\n        /* \"#utility.yul\":13265:13266   */\n      0x02\n        /* \"#utility.yul\":13257:13263   */\n      dup9\n        /* \"#utility.yul\":13253:13267   */\n      mul\n        /* \"#utility.yul\":13249:13271   */\n      add\n        /* \"#utility.yul\":13243:13247   */\n      dup9\n        /* \"#utility.yul\":13236:13272   */\n      sstore\n        /* \"#utility.yul\":12671:13282   */\n      pop\n      pop\n      pop\n        /* \"#utility.yul\":12634:13521   */\n    tag_256:\n      pop\n        /* \"#utility.yul\":12224:13527   */\n      pop\n      pop\n      pop\n        /* \"#utility.yul\":12132:13527   */\n      pop\n      pop\n      jump\t// out\n\n    auxdata: 0xa2646970667358221220177bbae8a476bb5a1b38a512c0696f018aef12e70176d796a9502587e2221e2764736f6c634300081a0033\n}\n",
				"bytecode": {
					"linkReferences": {},
					"object": "60806040526040518060400160405280600b81526020017f4a616e6769646c6b7368310000000000000000000000000000000000000000008152505f90816100479190610362565b506040518060400160405280600b81526020017f4a616e6769646c6b7368310000000000000000000000000000000000000000008152506001908161008c9190610489565b506040518060400160405280600881526020017f52616a6140313233000000000000000000000000000000000000000000000000815250600290816100d19190610362565b506040518060400160405280600881526020017f52616a6140313233000000000000000000000000000000000000000000000000815250600390816101169190610489565b50348015610122575f80fd5b50610558565b5f81519050919050565b7f4e487b71000000000000000000000000000000000000000000000000000000005f52604160045260245ffd5b7f4e487b71000000000000000000000000000000000000000000000000000000005f52602260045260245ffd5b5f60028204905060018216806101a357607f821691505b6020821081036101b6576101b561015f565b5b50919050565b5f819050815f5260205f209050919050565b5f6020601f8301049050919050565b5f82821b905092915050565b5f600883026102187fffffffffffffffffffffffffffffffffffffffffffffffffffffffffffffffff826101dd565b61022286836101dd565b95508019841693508086168417925050509392505050565b5f819050919050565b5f819050919050565b5f61026661026161025c8461023a565b610243565b61023a565b9050919050565b5f819050919050565b61027f8361024c565b61029361028b8261026d565b8484546101e9565b825550505050565b5f90565b6102a761029b565b6102b2818484610276565b505050565b5b818110156102d5576102ca5f8261029f565b6001810190506102b8565b5050565b601f82111561031a576102eb816101bc565b6102f4846101ce565b81016020851015610303578190505b61031761030f856101ce565b8301826102b7565b50505b505050565b5f82821c905092915050565b5f61033a5f198460080261031f565b1980831691505092915050565b5f610352838361032b565b9150826002028217905092915050565b61036b82610128565b67ffffffffffffffff81111561038457610383610132565b5b61038e825461018c565b6103998282856102d9565b5f60209050601f8311600181146103ca575f84156103b8578287015190505b6103c28582610347565b865550610429565b601f1984166103d8866101bc565b5f5b828110156103ff578489015182556001820191506020850194506020810190506103da565b8683101561041c5784890151610418601f89168261032b565b8355505b6001600288020188555050505b505050505050565b5f819050815f5260205f209050919050565b601f8211156104845761045581610431565b61045e846101ce565b8101602085101561046d578190505b610481610479856101ce565b8301826102b7565b50505b505050565b61049282610128565b67ffffffffffffffff8111156104ab576104aa610132565b5b6104b5825461018c565b6104c0828285610443565b5f60209050601f8311600181146104f1575f84156104df578287015190505b6104e98582610347565b865550610550565b601f1984166104ff86610431565b5f5b8281101561052657848901518255600182019150602085019450602081019050610501565b86831015610543578489015161053f601f89168261032b565b8355505b6001600288020188555050505b505050505050565b610b7b806105655f395ff3fe608060405234801561000f575f80fd5b5060043610610086575f3560e01c80637deca859116100595780637deca8591461011457806398b130eb14610132578063bdad967c1461014e578063d8bb7b741461016c57610086565b806308ca7c651461008a57806352a5f26d146100a857806370019b35146100d857806373c99830146100f6575b5f80fd5b61009261018a565b60405161009f91906104d3565b60405180910390f35b6100c260048036038101906100bd9190610630565b610216565b6040516100cf91906106c0565b60405180910390f35b6100e0610273565b6040516100ed919061072b565b60405180910390f35b6100fe6102fe565b60405161010b919061072b565b60405180910390f35b61011c61038a565b60405161012991906104d3565b60405180910390f35b61014c60048036038101906101479190610630565b610416565b005b610156610439565b6040516101639190610763565b60405180910390f35b61017461044e565b6040516101819190610763565b60405180910390f35b60018054610197906107a9565b80601f01602080910402602001604051908101604052809291908181526020018280546101c3906107a9565b801561020e5780601f106101e55761010080835404028352916020019161020e565b820191905f5260205f20905b8154815290600101906020018083116101f157829003601f168201915b505050505081565b5f828260405160200161022a929190610813565b604051602081830303815290604052805190602001205f60026040516020016102549291906108c8565b6040516020818303038152906040528051906020012014905092915050565b5f805461027f906107a9565b80601f01602080910402602001604051908101604052809291908181526020018280546102ab906107a9565b80156102f65780601f106102cd576101008083540402835291602001916102f6565b820191905f5260205f20905b8154815290600101906020018083116102d957829003601f168201915b505050505081565b6002805461030b906107a9565b80601f0160208091040260200160405190810160405280929190818152602001828054610337906107a9565b80156103825780601f1061035957610100808354040283529160200191610382565b820191905f5260205f20905b81548152906001019060200180831161036557829003601f168201915b505050505081565b60038054610397906107a9565b80601f01602080910402602001604051908101604052809291908181526020018280546103c3906107a9565b801561040e5780601f106103e55761010080835404028352916020019161040e565b820191905f5260205f20905b8154815290600101906020018083116103f157829003601f168201915b505050505081565b815f90816104249190610a76565b5080600290816104349190610a76565b505050565b5f60038054610447906107a9565b9050905090565b5f6001805461045c906107a9565b9050905090565b5f81519050919050565b5f82825260208201905092915050565b8281835e5f83830152505050565b5f601f19601f8301169050919050565b5f6104a582610463565b6104af818561046d565b93506104bf81856020860161047d565b6104c88161048b565b840191505092915050565b5f6020820190508181035f8301526104eb818461049b565b905092915050565b5f604051905090565b5f80fd5b5f80fd5b5f80fd5b5f80fd5b7f4e487b71000000000000000000000000000000000000000000000000000000005f52604160045260245ffd5b6105428261048b565b810181811067ffffffffffffffff821117156105615761056061050c565b5b80604052505050565b5f6105736104f3565b905061057f8282610539565b919050565b5f67ffffffffffffffff82111561059e5761059d61050c565b5b6105a78261048b565b9050602081019050919050565b828183375f83830152505050565b5f6105d46105cf84610584565b61056a565b9050828152602081018484840111156105f0576105ef610508565b5b6105fb8482856105b4565b509392505050565b5f82601f83011261061757610616610504565b5b81356106278482602086016105c2565b91505092915050565b5f8060408385031215610646576106456104fc565b5b5f83013567ffffffffffffffff81111561066357610662610500565b5b61066f85828601610603565b925050602083013567ffffffffffffffff8111156106905761068f610500565b5b61069c85828601610603565b9150509250929050565b5f8115159050919050565b6106ba816106a6565b82525050565b5f6020820190506106d35f8301846106b1565b92915050565b5f81519050919050565b5f82825260208201905092915050565b5f6106fd826106d9565b61070781856106e3565b935061071781856020860161047d565b6107208161048b565b840191505092915050565b5f6020820190508181035f83015261074381846106f3565b905092915050565b5f819050919050565b61075d8161074b565b82525050565b5f6020820190506107765f830184610754565b92915050565b7f4e487b71000000000000000000000000000000000000000000000000000000005f52602260045260245ffd5b5f60028204905060018216806107c057607f821691505b6020821081036107d3576107d261077c565b5b50919050565b5f81905092915050565b5f6107ed826106d9565b6107f781856107d9565b935061080781856020860161047d565b80840191505092915050565b5f61081e82856107e3565b915061082a82846107e3565b91508190509392505050565b5f819050815f5260205f209050919050565b5f8154610854816107a9565b61085e81866107d9565b9450600182165f8114610878576001811461088d576108bf565b60ff19831686528115158202860193506108bf565b61089685610836565b5f5b838110156108b757815481890152600182019150602081019050610898565b838801955050505b50505092915050565b5f6108d38285610848565b91506108df8284610848565b91508190509392505050565b5f6020601f8301049050919050565b5f82821b905092915050565b5f600883026109357fffffffffffffffffffffffffffffffffffffffffffffffffffffffffffffffff826108fa565b61093f86836108fa565b95508019841693508086168417925050509392505050565b5f819050919050565b5f61097a6109756109708461074b565b610957565b61074b565b9050919050565b5f819050919050565b61099383610960565b6109a761099f82610981565b848454610906565b825550505050565b5f90565b6109bb6109af565b6109c681848461098a565b505050565b5b818110156109e9576109de5f826109b3565b6001810190506109cc565b5050565b601f821115610a2e576109ff81610836565b610a08846108eb565b81016020851015610a17578190505b610a2b610a23856108eb565b8301826109cb565b50505b505050565b5f82821c905092915050565b5f610a4e5f1984600802610a33565b1980831691505092915050565b5f610a668383610a3f565b9150826002028217905092915050565b610a7f826106d9565b67ffffffffffffffff811115610a9857610a9761050c565b5b610aa282546107a9565b610aad8282856109ed565b5f60209050601f831160018114610ade575f8415610acc578287015190505b610ad68582610a5b565b865550610b3d565b601f198416610aec86610836565b5f5b82811015610b1357848901518255600182019150602085019450602081019050610aee565b86831015610b305784890151610b2c601f891682610a3f565b8355505b6001600288020188555050505b50505050505056fea2646970667358221220177bbae8a476bb5a1b38a512c0696f018aef12e70176d796a9502587e2221e2764736f6c634300081a0033",
					"opcodes": "PUSH1 0x80 PUSH1 0x40 MSTORE PUSH1 0x40 MLOAD DUP1 PUSH1 0x40 ADD PUSH1 0x40 MSTORE DUP1 PUSH1 0xB DUP2 MSTORE PUSH1 0x20 ADD PUSH32 0x4A616E6769646C6B736831000000000000000000000000000000000000000000 DUP2 MSTORE POP PUSH0 SWAP1 DUP2 PUSH2 0x47 SWAP2 SWAP1 PUSH2 0x362 JUMP JUMPDEST POP PUSH1 0x40 MLOAD DUP1 PUSH1 0x40 ADD PUSH1 0x40 MSTORE DUP1 PUSH1 0xB DUP2 MSTORE PUSH1 0x20 ADD PUSH32 0x4A616E6769646C6B736831000000000000000000000000000000000000000000 DUP2 MSTORE POP PUSH1 0x1 SWAP1 DUP2 PUSH2 0x8C SWAP2 SWAP1 PUSH2 0x489 JUMP JUMPDEST POP PUSH1 0x40 MLOAD DUP1 PUSH1 0x40 ADD PUSH1 0x40 MSTORE DUP1 PUSH1 0x8 DUP2 MSTORE PUSH1 0x20 ADD PUSH32 0x52616A6140313233000000000000000000000000000000000000000000000000 DUP2 MSTORE POP PUSH1 0x2 SWAP1 DUP2 PUSH2 0xD1 SWAP2 SWAP1 PUSH2 0x362 JUMP JUMPDEST POP PUSH1 0x40 MLOAD DUP1 PUSH1 0x40 ADD PUSH1 0x40 MSTORE DUP1 PUSH1 0x8 DUP2 MSTORE PUSH1 0x20 ADD PUSH32 0x52616A6140313233000000000000000000000000000000000000000000000000 DUP2 MSTORE POP PUSH1 0x3 SWAP1 DUP2 PUSH2 0x116 SWAP2 SWAP1 PUSH2 0x489 JUMP JUMPDEST POP CALLVALUE DUP1 ISZERO PUSH2 0x122 JUMPI PUSH0 DUP1 REVERT JUMPDEST POP PUSH2 0x558 JUMP JUMPDEST PUSH0 DUP2 MLOAD SWAP1 POP SWAP2 SWAP1 POP JUMP JUMPDEST PUSH32 0x4E487B7100000000000000000000000000000000000000000000000000000000 PUSH0 MSTORE PUSH1 0x41 PUSH1 0x4 MSTORE PUSH1 0x24 PUSH0 REVERT JUMPDEST PUSH32 0x4E487B7100000000000000000000000000000000000000000000000000000000 PUSH0 MSTORE PUSH1 0x22 PUSH1 0x4 MSTORE PUSH1 0x24 PUSH0 REVERT JUMPDEST PUSH0 PUSH1 0x2 DUP3 DIV SWAP1 POP PUSH1 0x1 DUP3 AND DUP1 PUSH2 0x1A3 JUMPI PUSH1 0x7F DUP3 AND SWAP2 POP JUMPDEST PUSH1 0x20 DUP3 LT DUP2 SUB PUSH2 0x1B6 JUMPI PUSH2 0x1B5 PUSH2 0x15F JUMP JUMPDEST JUMPDEST POP SWAP2 SWAP1 POP JUMP JUMPDEST PUSH0 DUP2 SWAP1 POP DUP2 PUSH0 MSTORE PUSH1 0x20 PUSH0 KECCAK256 SWAP1 POP SWAP2 SWAP1 POP JUMP JUMPDEST PUSH0 PUSH1 0x20 PUSH1 0x1F DUP4 ADD DIV SWAP1 POP SWAP2 SWAP1 POP JUMP JUMPDEST PUSH0 DUP3 DUP3 SHL SWAP1 POP SWAP3 SWAP2 POP POP JUMP JUMPDEST PUSH0 PUSH1 0x8 DUP4 MUL PUSH2 0x218 PUSH32 0xFFFFFFFFFFFFFFFFFFFFFFFFFFFFFFFFFFFFFFFFFFFFFFFFFFFFFFFFFFFFFFFF DUP3 PUSH2 0x1DD JUMP JUMPDEST PUSH2 0x222 DUP7 DUP4 PUSH2 0x1DD JUMP JUMPDEST SWAP6 POP DUP1 NOT DUP5 AND SWAP4 POP DUP1 DUP7 AND DUP5 OR SWAP3 POP POP POP SWAP4 SWAP3 POP POP POP JUMP JUMPDEST PUSH0 DUP2 SWAP1 POP SWAP2 SWAP1 POP JUMP JUMPDEST PUSH0 DUP2 SWAP1 POP SWAP2 SWAP1 POP JUMP JUMPDEST PUSH0 PUSH2 0x266 PUSH2 0x261 PUSH2 0x25C DUP5 PUSH2 0x23A JUMP JUMPDEST PUSH2 0x243 JUMP JUMPDEST PUSH2 0x23A JUMP JUMPDEST SWAP1 POP SWAP2 SWAP1 POP JUMP JUMPDEST PUSH0 DUP2 SWAP1 POP SWAP2 SWAP1 POP JUMP JUMPDEST PUSH2 0x27F DUP4 PUSH2 0x24C JUMP JUMPDEST PUSH2 0x293 PUSH2 0x28B DUP3 PUSH2 0x26D JUMP JUMPDEST DUP5 DUP5 SLOAD PUSH2 0x1E9 JUMP JUMPDEST DUP3 SSTORE POP POP POP POP JUMP JUMPDEST PUSH0 SWAP1 JUMP JUMPDEST PUSH2 0x2A7 PUSH2 0x29B JUMP JUMPDEST PUSH2 0x2B2 DUP2 DUP5 DUP5 PUSH2 0x276 JUMP JUMPDEST POP POP POP JUMP JUMPDEST JUMPDEST DUP2 DUP2 LT ISZERO PUSH2 0x2D5 JUMPI PUSH2 0x2CA PUSH0 DUP3 PUSH2 0x29F JUMP JUMPDEST PUSH1 0x1 DUP2 ADD SWAP1 POP PUSH2 0x2B8 JUMP JUMPDEST POP POP JUMP JUMPDEST PUSH1 0x1F DUP3 GT ISZERO PUSH2 0x31A JUMPI PUSH2 0x2EB DUP2 PUSH2 0x1BC JUMP JUMPDEST PUSH2 0x2F4 DUP5 PUSH2 0x1CE JUMP JUMPDEST DUP2 ADD PUSH1 0x20 DUP6 LT ISZERO PUSH2 0x303 JUMPI DUP2 SWAP1 POP JUMPDEST PUSH2 0x317 PUSH2 0x30F DUP6 PUSH2 0x1CE JUMP JUMPDEST DUP4 ADD DUP3 PUSH2 0x2B7 JUMP JUMPDEST POP POP JUMPDEST POP POP POP JUMP JUMPDEST PUSH0 DUP3 DUP3 SHR SWAP1 POP SWAP3 SWAP2 POP POP JUMP JUMPDEST PUSH0 PUSH2 0x33A PUSH0 NOT DUP5 PUSH1 0x8 MUL PUSH2 0x31F JUMP JUMPDEST NOT DUP1 DUP4 AND SWAP2 POP POP SWAP3 SWAP2 POP POP JUMP JUMPDEST PUSH0 PUSH2 0x352 DUP4 DUP4 PUSH2 0x32B JUMP JUMPDEST SWAP2 POP DUP3 PUSH1 0x2 MUL DUP3 OR SWAP1 POP SWAP3 SWAP2 POP POP JUMP JUMPDEST PUSH2 0x36B DUP3 PUSH2 0x128 JUMP JUMPDEST PUSH8 0xFFFFFFFFFFFFFFFF DUP2 GT ISZERO PUSH2 0x384 JUMPI PUSH2 0x383 PUSH2 0x132 JUMP JUMPDEST JUMPDEST PUSH2 0x38E DUP3 SLOAD PUSH2 0x18C JUMP JUMPDEST PUSH2 0x399 DUP3 DUP3 DUP6 PUSH2 0x2D9 JUMP JUMPDEST PUSH0 PUSH1 0x20 SWAP1 POP PUSH1 0x1F DUP4 GT PUSH1 0x1 DUP2 EQ PUSH2 0x3CA JUMPI PUSH0 DUP5 ISZERO PUSH2 0x3B8 JUMPI DUP3 DUP8 ADD MLOAD SWAP1 POP JUMPDEST PUSH2 0x3C2 DUP6 DUP3 PUSH2 0x347 JUMP JUMPDEST DUP7 SSTORE POP PUSH2 0x429 JUMP JUMPDEST PUSH1 0x1F NOT DUP5 AND PUSH2 0x3D8 DUP7 PUSH2 0x1BC JUMP JUMPDEST PUSH0 JUMPDEST DUP3 DUP2 LT ISZERO PUSH2 0x3FF JUMPI DUP5 DUP10 ADD MLOAD DUP3 SSTORE PUSH1 0x1 DUP3 ADD SWAP2 POP PUSH1 0x20 DUP6 ADD SWAP5 POP PUSH1 0x20 DUP2 ADD SWAP1 POP PUSH2 0x3DA JUMP JUMPDEST DUP7 DUP4 LT ISZERO PUSH2 0x41C JUMPI DUP5 DUP10 ADD MLOAD PUSH2 0x418 PUSH1 0x1F DUP10 AND DUP3 PUSH2 0x32B JUMP JUMPDEST DUP4 SSTORE POP JUMPDEST PUSH1 0x1 PUSH1 0x2 DUP9 MUL ADD DUP9 SSTORE POP POP POP JUMPDEST POP POP POP POP POP POP JUMP JUMPDEST PUSH0 DUP2 SWAP1 POP DUP2 PUSH0 MSTORE PUSH1 0x20 PUSH0 KECCAK256 SWAP1 POP SWAP2 SWAP1 POP JUMP JUMPDEST PUSH1 0x1F DUP3 GT ISZERO PUSH2 0x484 JUMPI PUSH2 0x455 DUP2 PUSH2 0x431 JUMP JUMPDEST PUSH2 0x45E DUP5 PUSH2 0x1CE JUMP JUMPDEST DUP2 ADD PUSH1 0x20 DUP6 LT ISZERO PUSH2 0x46D JUMPI DUP2 SWAP1 POP JUMPDEST PUSH2 0x481 PUSH2 0x479 DUP6 PUSH2 0x1CE JUMP JUMPDEST DUP4 ADD DUP3 PUSH2 0x2B7 JUMP JUMPDEST POP POP JUMPDEST POP POP POP JUMP JUMPDEST PUSH2 0x492 DUP3 PUSH2 0x128 JUMP JUMPDEST PUSH8 0xFFFFFFFFFFFFFFFF DUP2 GT ISZERO PUSH2 0x4AB JUMPI PUSH2 0x4AA PUSH2 0x132 JUMP JUMPDEST JUMPDEST PUSH2 0x4B5 DUP3 SLOAD PUSH2 0x18C JUMP JUMPDEST PUSH2 0x4C0 DUP3 DUP3 DUP6 PUSH2 0x443 JUMP JUMPDEST PUSH0 PUSH1 0x20 SWAP1 POP PUSH1 0x1F DUP4 GT PUSH1 0x1 DUP2 EQ PUSH2 0x4F1 JUMPI PUSH0 DUP5 ISZERO PUSH2 0x4DF JUMPI DUP3 DUP8 ADD MLOAD SWAP1 POP JUMPDEST PUSH2 0x4E9 DUP6 DUP3 PUSH2 0x347 JUMP JUMPDEST DUP7 SSTORE POP PUSH2 0x550 JUMP JUMPDEST PUSH1 0x1F NOT DUP5 AND PUSH2 0x4FF DUP7 PUSH2 0x431 JUMP JUMPDEST PUSH0 JUMPDEST DUP3 DUP2 LT ISZERO PUSH2 0x526 JUMPI DUP5 DUP10 ADD MLOAD DUP3 SSTORE PUSH1 0x1 DUP3 ADD SWAP2 POP PUSH1 0x20 DUP6 ADD SWAP5 POP PUSH1 0x20 DUP2 ADD SWAP1 POP PUSH2 0x501 JUMP JUMPDEST DUP7 DUP4 LT ISZERO PUSH2 0x543 JUMPI DUP5 DUP10 ADD MLOAD PUSH2 0x53F PUSH1 0x1F DUP10 AND DUP3 PUSH2 0x32B JUMP JUMPDEST DUP4 SSTORE POP JUMPDEST PUSH1 0x1 PUSH1 0x2 DUP9 MUL ADD DUP9 SSTORE POP POP POP JUMPDEST POP POP POP POP POP POP JUMP JUMPDEST PUSH2 0xB7B DUP1 PUSH2 0x565 PUSH0 CODECOPY PUSH0 RETURN INVALID PUSH1 0x80 PUSH1 0x40 MSTORE CALLVALUE DUP1 ISZERO PUSH2 0xF JUMPI PUSH0 DUP1 REVERT JUMPDEST POP PUSH1 0x4 CALLDATASIZE LT PUSH2 0x86 JUMPI PUSH0 CALLDATALOAD PUSH1 0xE0 SHR DUP1 PUSH4 0x7DECA859 GT PUSH2 0x59 JUMPI DUP1 PUSH4 0x7DECA859 EQ PUSH2 0x114 JUMPI DUP1 PUSH4 0x98B130EB EQ PUSH2 0x132 JUMPI DUP1 PUSH4 0xBDAD967C EQ PUSH2 0x14E JUMPI DUP1 PUSH4 0xD8BB7B74 EQ PUSH2 0x16C JUMPI PUSH2 0x86 JUMP JUMPDEST DUP1 PUSH4 0x8CA7C65 EQ PUSH2 0x8A JUMPI DUP1 PUSH4 0x52A5F26D EQ PUSH2 0xA8 JUMPI DUP1 PUSH4 0x70019B35 EQ PUSH2 0xD8 JUMPI DUP1 PUSH4 0x73C99830 EQ PUSH2 0xF6 JUMPI JUMPDEST PUSH0 DUP1 REVERT JUMPDEST PUSH2 0x92 PUSH2 0x18A JUMP JUMPDEST PUSH1 0x40 MLOAD PUSH2 0x9F SWAP2 SWAP1 PUSH2 0x4D3 JUMP JUMPDEST PUSH1 0x40 MLOAD DUP1 SWAP2 SUB SWAP1 RETURN JUMPDEST PUSH2 0xC2 PUSH1 0x4 DUP1 CALLDATASIZE SUB DUP2 ADD SWAP1 PUSH2 0xBD SWAP2 SWAP1 PUSH2 0x630 JUMP JUMPDEST PUSH2 0x216 JUMP JUMPDEST PUSH1 0x40 MLOAD PUSH2 0xCF SWAP2 SWAP1 PUSH2 0x6C0 JUMP JUMPDEST PUSH1 0x40 MLOAD DUP1 SWAP2 SUB SWAP1 RETURN JUMPDEST PUSH2 0xE0 PUSH2 0x273 JUMP JUMPDEST PUSH1 0x40 MLOAD PUSH2 0xED SWAP2 SWAP1 PUSH2 0x72B JUMP JUMPDEST PUSH1 0x40 MLOAD DUP1 SWAP2 SUB SWAP1 RETURN JUMPDEST PUSH2 0xFE PUSH2 0x2FE JUMP JUMPDEST PUSH1 0x40 MLOAD PUSH2 0x10B SWAP2 SWAP1 PUSH2 0x72B JUMP JUMPDEST PUSH1 0x40 MLOAD DUP1 SWAP2 SUB SWAP1 RETURN JUMPDEST PUSH2 0x11C PUSH2 0x38A JUMP JUMPDEST PUSH1 0x40 MLOAD PUSH2 0x129 SWAP2 SWAP1 PUSH2 0x4D3 JUMP JUMPDEST PUSH1 0x40 MLOAD DUP1 SWAP2 SUB SWAP1 RETURN JUMPDEST PUSH2 0x14C PUSH1 0x4 DUP1 CALLDATASIZE SUB DUP2 ADD SWAP1 PUSH2 0x147 SWAP2 SWAP1 PUSH2 0x630 JUMP JUMPDEST PUSH2 0x416 JUMP JUMPDEST STOP JUMPDEST PUSH2 0x156 PUSH2 0x439 JUMP JUMPDEST PUSH1 0x40 MLOAD PUSH2 0x163 SWAP2 SWAP1 PUSH2 0x763 JUMP JUMPDEST PUSH1 0x40 MLOAD DUP1 SWAP2 SUB SWAP1 RETURN JUMPDEST PUSH2 0x174 PUSH2 0x44E JUMP JUMPDEST PUSH1 0x40 MLOAD PUSH2 0x181 SWAP2 SWAP1 PUSH2 0x763 JUMP JUMPDEST PUSH1 0x40 MLOAD DUP1 SWAP2 SUB SWAP1 RETURN JUMPDEST PUSH1 0x1 DUP1 SLOAD PUSH2 0x197 SWAP1 PUSH2 0x7A9 JUMP JUMPDEST DUP1 PUSH1 0x1F ADD PUSH1 0x20 DUP1 SWAP2 DIV MUL PUSH1 0x20 ADD PUSH1 0x40 MLOAD SWAP1 DUP2 ADD PUSH1 0x40 MSTORE DUP1 SWAP3 SWAP2 SWAP1 DUP2 DUP2 MSTORE PUSH1 0x20 ADD DUP3 DUP1 SLOAD PUSH2 0x1C3 SWAP1 PUSH2 0x7A9 JUMP JUMPDEST DUP1 ISZERO PUSH2 0x20E JUMPI DUP1 PUSH1 0x1F LT PUSH2 0x1E5 JUMPI PUSH2 0x100 DUP1 DUP4 SLOAD DIV MUL DUP4 MSTORE SWAP2 PUSH1 0x20 ADD SWAP2 PUSH2 0x20E JUMP JUMPDEST DUP3 ADD SWAP2 SWAP1 PUSH0 MSTORE PUSH1 0x20 PUSH0 KECCAK256 SWAP1 JUMPDEST DUP2 SLOAD DUP2 MSTORE SWAP1 PUSH1 0x1 ADD SWAP1 PUSH1 0x20 ADD DUP1 DUP4 GT PUSH2 0x1F1 JUMPI DUP3 SWAP1 SUB PUSH1 0x1F AND DUP3 ADD SWAP2 JUMPDEST POP POP POP POP POP DUP2 JUMP JUMPDEST PUSH0 DUP3 DUP3 PUSH1 0x40 MLOAD PUSH1 0x20 ADD PUSH2 0x22A SWAP3 SWAP2 SWAP1 PUSH2 0x813 JUMP JUMPDEST PUSH1 0x40 MLOAD PUSH1 0x20 DUP2 DUP4 SUB SUB DUP2 MSTORE SWAP1 PUSH1 0x40 MSTORE DUP1 MLOAD SWAP1 PUSH1 0x20 ADD KECCAK256 PUSH0 PUSH1 0x2 PUSH1 0x40 MLOAD PUSH1 0x20 ADD PUSH2 0x254 SWAP3 SWAP2 SWAP1 PUSH2 0x8C8 JUMP JUMPDEST PUSH1 0x40 MLOAD PUSH1 0x20 DUP2 DUP4 SUB SUB DUP2 MSTORE SWAP1 PUSH1 0x40 MSTORE DUP1 MLOAD SWAP1 PUSH1 0x20 ADD KECCAK256 EQ SWAP1 POP SWAP3 SWAP2 POP POP JUMP JUMPDEST PUSH0 DUP1 SLOAD PUSH2 0x27F SWAP1 PUSH2 0x7A9 JUMP JUMPDEST DUP1 PUSH1 0x1F ADD PUSH1 0x20 DUP1 SWAP2 DIV MUL PUSH1 0x20 ADD PUSH1 0x40 MLOAD SWAP1 DUP2 ADD PUSH1 0x40 MSTORE DUP1 SWAP3 SWAP2 SWAP1 DUP2 DUP2 MSTORE PUSH1 0x20 ADD DUP3 DUP1 SLOAD PUSH2 0x2AB SWAP1 PUSH2 0x7A9 JUMP JUMPDEST DUP1 ISZERO PUSH2 0x2F6 JUMPI DUP1 PUSH1 0x1F LT PUSH2 0x2CD JUMPI PUSH2 0x100 DUP1 DUP4 SLOAD DIV MUL DUP4 MSTORE SWAP2 PUSH1 0x20 ADD SWAP2 PUSH2 0x2F6 JUMP JUMPDEST DUP3 ADD SWAP2 SWAP1 PUSH0 MSTORE PUSH1 0x20 PUSH0 KECCAK256 SWAP1 JUMPDEST DUP2 SLOAD DUP2 MSTORE SWAP1 PUSH1 0x1 ADD SWAP1 PUSH1 0x20 ADD DUP1 DUP4 GT PUSH2 0x2D9 JUMPI DUP3 SWAP1 SUB PUSH1 0x1F AND DUP3 ADD SWAP2 JUMPDEST POP POP POP POP POP DUP2 JUMP JUMPDEST PUSH1 0x2 DUP1 SLOAD PUSH2 0x30B SWAP1 PUSH2 0x7A9 JUMP JUMPDEST DUP1 PUSH1 0x1F ADD PUSH1 0x20 DUP1 SWAP2 DIV MUL PUSH1 0x20 ADD PUSH1 0x40 MLOAD SWAP1 DUP2 ADD PUSH1 0x40 MSTORE DUP1 SWAP3 SWAP2 SWAP1 DUP2 DUP2 MSTORE PUSH1 0x20 ADD DUP3 DUP1 SLOAD PUSH2 0x337 SWAP1 PUSH2 0x7A9 JUMP JUMPDEST DUP1 ISZERO PUSH2 0x382 JUMPI DUP1 PUSH1 0x1F LT PUSH2 0x359 JUMPI PUSH2 0x100 DUP1 DUP4 SLOAD DIV MUL DUP4 MSTORE SWAP2 PUSH1 0x20 ADD SWAP2 PUSH2 0x382 JUMP JUMPDEST DUP3 ADD SWAP2 SWAP1 PUSH0 MSTORE PUSH1 0x20 PUSH0 KECCAK256 SWAP1 JUMPDEST DUP2 SLOAD DUP2 MSTORE SWAP1 PUSH1 0x1 ADD SWAP1 PUSH1 0x20 ADD DUP1 DUP4 GT PUSH2 0x365 JUMPI DUP3 SWAP1 SUB PUSH1 0x1F AND DUP3 ADD SWAP2 JUMPDEST POP POP POP POP POP DUP2 JUMP JUMPDEST PUSH1 0x3 DUP1 SLOAD PUSH2 0x397 SWAP1 PUSH2 0x7A9 JUMP JUMPDEST DUP1 PUSH1 0x1F ADD PUSH1 0x20 DUP1 SWAP2 DIV MUL PUSH1 0x20 ADD PUSH1 0x40 MLOAD SWAP1 DUP2 ADD PUSH1 0x40 MSTORE DUP1 SWAP3 SWAP2 SWAP1 DUP2 DUP2 MSTORE PUSH1 0x20 ADD DUP3 DUP1 SLOAD PUSH2 0x3C3 SWAP1 PUSH2 0x7A9 JUMP JUMPDEST DUP1 ISZERO PUSH2 0x40E JUMPI DUP1 PUSH1 0x1F LT PUSH2 0x3E5 JUMPI PUSH2 0x100 DUP1 DUP4 SLOAD DIV MUL DUP4 MSTORE SWAP2 PUSH1 0x20 ADD SWAP2 PUSH2 0x40E JUMP JUMPDEST DUP3 ADD SWAP2 SWAP1 PUSH0 MSTORE PUSH1 0x20 PUSH0 KECCAK256 SWAP1 JUMPDEST DUP2 SLOAD DUP2 MSTORE SWAP1 PUSH1 0x1 ADD SWAP1 PUSH1 0x20 ADD DUP1 DUP4 GT PUSH2 0x3F1 JUMPI DUP3 SWAP1 SUB PUSH1 0x1F AND DUP3 ADD SWAP2 JUMPDEST POP POP POP POP POP DUP2 JUMP JUMPDEST DUP2 PUSH0 SWAP1 DUP2 PUSH2 0x424 SWAP2 SWAP1 PUSH2 0xA76 JUMP JUMPDEST POP DUP1 PUSH1 0x2 SWAP1 DUP2 PUSH2 0x434 SWAP2 SWAP1 PUSH2 0xA76 JUMP JUMPDEST POP POP POP JUMP JUMPDEST PUSH0 PUSH1 0x3 DUP1 SLOAD PUSH2 0x447 SWAP1 PUSH2 0x7A9 JUMP JUMPDEST SWAP1 POP SWAP1 POP SWAP1 JUMP JUMPDEST PUSH0 PUSH1 0x1 DUP1 SLOAD PUSH2 0x45C SWAP1 PUSH2 0x7A9 JUMP JUMPDEST SWAP1 POP SWAP1 POP SWAP1 JUMP JUMPDEST PUSH0 DUP2 MLOAD SWAP1 POP SWAP2 SWAP1 POP JUMP JUMPDEST PUSH0 DUP3 DUP3 MSTORE PUSH1 0x20 DUP3 ADD SWAP1 POP SWAP3 SWAP2 POP POP JUMP JUMPDEST DUP3 DUP2 DUP4 MCOPY PUSH0 DUP4 DUP4 ADD MSTORE POP POP POP JUMP JUMPDEST PUSH0 PUSH1 0x1F NOT PUSH1 0x1F DUP4 ADD AND SWAP1 POP SWAP2 SWAP1 POP JUMP JUMPDEST PUSH0 PUSH2 0x4A5 DUP3 PUSH2 0x463 JUMP JUMPDEST PUSH2 0x4AF DUP2 DUP6 PUSH2 0x46D JUMP JUMPDEST SWAP4 POP PUSH2 0x4BF DUP2 DUP6 PUSH1 0x20 DUP7 ADD PUSH2 0x47D JUMP JUMPDEST PUSH2 0x4C8 DUP2 PUSH2 0x48B JUMP JUMPDEST DUP5 ADD SWAP2 POP POP SWAP3 SWAP2 POP POP JUMP JUMPDEST PUSH0 PUSH1 0x20 DUP3 ADD SWAP1 POP DUP2 DUP2 SUB PUSH0 DUP4 ADD MSTORE PUSH2 0x4EB DUP2 DUP5 PUSH2 0x49B JUMP JUMPDEST SWAP1 POP SWAP3 SWAP2 POP POP JUMP JUMPDEST PUSH0 PUSH1 0x40 MLOAD SWAP1 POP SWAP1 JUMP JUMPDEST PUSH0 DUP1 REVERT JUMPDEST PUSH0 DUP1 REVERT JUMPDEST PUSH0 DUP1 REVERT JUMPDEST PUSH0 DUP1 REVERT JUMPDEST PUSH32 0x4E487B7100000000000000000000000000000000000000000000000000000000 PUSH0 MSTORE PUSH1 0x41 PUSH1 0x4 MSTORE PUSH1 0x24 PUSH0 REVERT JUMPDEST PUSH2 0x542 DUP3 PUSH2 0x48B JUMP JUMPDEST DUP2 ADD DUP2 DUP2 LT PUSH8 0xFFFFFFFFFFFFFFFF DUP3 GT OR ISZERO PUSH2 0x561 JUMPI PUSH2 0x560 PUSH2 0x50C JUMP JUMPDEST JUMPDEST DUP1 PUSH1 0x40 MSTORE POP POP POP JUMP JUMPDEST PUSH0 PUSH2 0x573 PUSH2 0x4F3 JUMP JUMPDEST SWAP1 POP PUSH2 0x57F DUP3 DUP3 PUSH2 0x539 JUMP JUMPDEST SWAP2 SWAP1 POP JUMP JUMPDEST PUSH0 PUSH8 0xFFFFFFFFFFFFFFFF DUP3 GT ISZERO PUSH2 0x59E JUMPI PUSH2 0x59D PUSH2 0x50C JUMP JUMPDEST JUMPDEST PUSH2 0x5A7 DUP3 PUSH2 0x48B JUMP JUMPDEST SWAP1 POP PUSH1 0x20 DUP2 ADD SWAP1 POP SWAP2 SWAP1 POP JUMP JUMPDEST DUP3 DUP2 DUP4 CALLDATACOPY PUSH0 DUP4 DUP4 ADD MSTORE POP POP POP JUMP JUMPDEST PUSH0 PUSH2 0x5D4 PUSH2 0x5CF DUP5 PUSH2 0x584 JUMP JUMPDEST PUSH2 0x56A JUMP JUMPDEST SWAP1 POP DUP3 DUP2 MSTORE PUSH1 0x20 DUP2 ADD DUP5 DUP5 DUP5 ADD GT ISZERO PUSH2 0x5F0 JUMPI PUSH2 0x5EF PUSH2 0x508 JUMP JUMPDEST JUMPDEST PUSH2 0x5FB DUP5 DUP3 DUP6 PUSH2 0x5B4 JUMP JUMPDEST POP SWAP4 SWAP3 POP POP POP JUMP JUMPDEST PUSH0 DUP3 PUSH1 0x1F DUP4 ADD SLT PUSH2 0x617 JUMPI PUSH2 0x616 PUSH2 0x504 JUMP JUMPDEST JUMPDEST DUP2 CALLDATALOAD PUSH2 0x627 DUP5 DUP3 PUSH1 0x20 DUP7 ADD PUSH2 0x5C2 JUMP JUMPDEST SWAP2 POP POP SWAP3 SWAP2 POP POP JUMP JUMPDEST PUSH0 DUP1 PUSH1 0x40 DUP4 DUP6 SUB SLT ISZERO PUSH2 0x646 JUMPI PUSH2 0x645 PUSH2 0x4FC JUMP JUMPDEST JUMPDEST PUSH0 DUP4 ADD CALLDATALOAD PUSH8 0xFFFFFFFFFFFFFFFF DUP2 GT ISZERO PUSH2 0x663 JUMPI PUSH2 0x662 PUSH2 0x500 JUMP JUMPDEST JUMPDEST PUSH2 0x66F DUP6 DUP3 DUP7 ADD PUSH2 0x603 JUMP JUMPDEST SWAP3 POP POP PUSH1 0x20 DUP4 ADD CALLDATALOAD PUSH8 0xFFFFFFFFFFFFFFFF DUP2 GT ISZERO PUSH2 0x690 JUMPI PUSH2 0x68F PUSH2 0x500 JUMP JUMPDEST JUMPDEST PUSH2 0x69C DUP6 DUP3 DUP7 ADD PUSH2 0x603 JUMP JUMPDEST SWAP2 POP POP SWAP3 POP SWAP3 SWAP1 POP JUMP JUMPDEST PUSH0 DUP2 ISZERO ISZERO SWAP1 POP SWAP2 SWAP1 POP JUMP JUMPDEST PUSH2 0x6BA DUP2 PUSH2 0x6A6 JUMP JUMPDEST DUP3 MSTORE POP POP JUMP JUMPDEST PUSH0 PUSH1 0x20 DUP3 ADD SWAP1 POP PUSH2 0x6D3 PUSH0 DUP4 ADD DUP5 PUSH2 0x6B1 JUMP JUMPDEST SWAP3 SWAP2 POP POP JUMP JUMPDEST PUSH0 DUP2 MLOAD SWAP1 POP SWAP2 SWAP1 POP JUMP JUMPDEST PUSH0 DUP3 DUP3 MSTORE PUSH1 0x20 DUP3 ADD SWAP1 POP SWAP3 SWAP2 POP POP JUMP JUMPDEST PUSH0 PUSH2 0x6FD DUP3 PUSH2 0x6D9 JUMP JUMPDEST PUSH2 0x707 DUP2 DUP6 PUSH2 0x6E3 JUMP JUMPDEST SWAP4 POP PUSH2 0x717 DUP2 DUP6 PUSH1 0x20 DUP7 ADD PUSH2 0x47D JUMP JUMPDEST PUSH2 0x720 DUP2 PUSH2 0x48B JUMP JUMPDEST DUP5 ADD SWAP2 POP POP SWAP3 SWAP2 POP POP JUMP JUMPDEST PUSH0 PUSH1 0x20 DUP3 ADD SWAP1 POP DUP2 DUP2 SUB PUSH0 DUP4 ADD MSTORE PUSH2 0x743 DUP2 DUP5 PUSH2 0x6F3 JUMP JUMPDEST SWAP1 POP SWAP3 SWAP2 POP POP JUMP JUMPDEST PUSH0 DUP2 SWAP1 POP SWAP2 SWAP1 POP JUMP JUMPDEST PUSH2 0x75D DUP2 PUSH2 0x74B JUMP JUMPDEST DUP3 MSTORE POP POP JUMP JUMPDEST PUSH0 PUSH1 0x20 DUP3 ADD SWAP1 POP PUSH2 0x776 PUSH0 DUP4 ADD DUP5 PUSH2 0x754 JUMP JUMPDEST SWAP3 SWAP2 POP POP JUMP JUMPDEST PUSH32 0x4E487B7100000000000000000000000000000000000000000000000000000000 PUSH0 MSTORE PUSH1 0x22 PUSH1 0x4 MSTORE PUSH1 0x24 PUSH0 REVERT JUMPDEST PUSH0 PUSH1 0x2 DUP3 DIV SWAP1 POP PUSH1 0x1 DUP3 AND DUP1 PUSH2 0x7C0 JUMPI PUSH1 0x7F DUP3 AND SWAP2 POP JUMPDEST PUSH1 0x20 DUP3 LT DUP2 SUB PUSH2 0x7D3 JUMPI PUSH2 0x7D2 PUSH2 0x77C JUMP JUMPDEST JUMPDEST POP SWAP2 SWAP1 POP JUMP JUMPDEST PUSH0 DUP2 SWAP1 POP SWAP3 SWAP2 POP POP JUMP JUMPDEST PUSH0 PUSH2 0x7ED DUP3 PUSH2 0x6D9 JUMP JUMPDEST PUSH2 0x7F7 DUP2 DUP6 PUSH2 0x7D9 JUMP JUMPDEST SWAP4 POP PUSH2 0x807 DUP2 DUP6 PUSH1 0x20 DUP7 ADD PUSH2 0x47D JUMP JUMPDEST DUP1 DUP5 ADD SWAP2 POP POP SWAP3 SWAP2 POP POP JUMP JUMPDEST PUSH0 PUSH2 0x81E DUP3 DUP6 PUSH2 0x7E3 JUMP JUMPDEST SWAP2 POP PUSH2 0x82A DUP3 DUP5 PUSH2 0x7E3 JUMP JUMPDEST SWAP2 POP DUP2 SWAP1 POP SWAP4 SWAP3 POP POP POP JUMP JUMPDEST PUSH0 DUP2 SWAP1 POP DUP2 PUSH0 MSTORE PUSH1 0x20 PUSH0 KECCAK256 SWAP1 POP SWAP2 SWAP1 POP JUMP JUMPDEST PUSH0 DUP2 SLOAD PUSH2 0x854 DUP2 PUSH2 0x7A9 JUMP JUMPDEST PUSH2 0x85E DUP2 DUP7 PUSH2 0x7D9 JUMP JUMPDEST SWAP5 POP PUSH1 0x1 DUP3 AND PUSH0 DUP2 EQ PUSH2 0x878 JUMPI PUSH1 0x1 DUP2 EQ PUSH2 0x88D JUMPI PUSH2 0x8BF JUMP JUMPDEST PUSH1 0xFF NOT DUP4 AND DUP7 MSTORE DUP2 ISZERO ISZERO DUP3 MUL DUP7 ADD SWAP4 POP PUSH2 0x8BF JUMP JUMPDEST PUSH2 0x896 DUP6 PUSH2 0x836 JUMP JUMPDEST PUSH0 JUMPDEST DUP4 DUP2 LT ISZERO PUSH2 0x8B7 JUMPI DUP2 SLOAD DUP2 DUP10 ADD MSTORE PUSH1 0x1 DUP3 ADD SWAP2 POP PUSH1 0x20 DUP2 ADD SWAP1 POP PUSH2 0x898 JUMP JUMPDEST DUP4 DUP9 ADD SWAP6 POP POP POP JUMPDEST POP POP POP SWAP3 SWAP2 POP POP JUMP JUMPDEST PUSH0 PUSH2 0x8D3 DUP3 DUP6 PUSH2 0x848 JUMP JUMPDEST SWAP2 POP PUSH2 0x8DF DUP3 DUP5 PUSH2 0x848 JUMP JUMPDEST SWAP2 POP DUP2 SWAP1 POP SWAP4 SWAP3 POP POP POP JUMP JUMPDEST PUSH0 PUSH1 0x20 PUSH1 0x1F DUP4 ADD DIV SWAP1 POP SWAP2 SWAP1 POP JUMP JUMPDEST PUSH0 DUP3 DUP3 SHL SWAP1 POP SWAP3 SWAP2 POP POP JUMP JUMPDEST PUSH0 PUSH1 0x8 DUP4 MUL PUSH2 0x935 PUSH32 0xFFFFFFFFFFFFFFFFFFFFFFFFFFFFFFFFFFFFFFFFFFFFFFFFFFFFFFFFFFFFFFFF DUP3 PUSH2 0x8FA JUMP JUMPDEST PUSH2 0x93F DUP7 DUP4 PUSH2 0x8FA JUMP JUMPDEST SWAP6 POP DUP1 NOT DUP5 AND SWAP4 POP DUP1 DUP7 AND DUP5 OR SWAP3 POP POP POP SWAP4 SWAP3 POP POP POP JUMP JUMPDEST PUSH0 DUP2 SWAP1 POP SWAP2 SWAP1 POP JUMP JUMPDEST PUSH0 PUSH2 0x97A PUSH2 0x975 PUSH2 0x970 DUP5 PUSH2 0x74B JUMP JUMPDEST PUSH2 0x957 JUMP JUMPDEST PUSH2 0x74B JUMP JUMPDEST SWAP1 POP SWAP2 SWAP1 POP JUMP JUMPDEST PUSH0 DUP2 SWAP1 POP SWAP2 SWAP1 POP JUMP JUMPDEST PUSH2 0x993 DUP4 PUSH2 0x960 JUMP JUMPDEST PUSH2 0x9A7 PUSH2 0x99F DUP3 PUSH2 0x981 JUMP JUMPDEST DUP5 DUP5 SLOAD PUSH2 0x906 JUMP JUMPDEST DUP3 SSTORE POP POP POP POP JUMP JUMPDEST PUSH0 SWAP1 JUMP JUMPDEST PUSH2 0x9BB PUSH2 0x9AF JUMP JUMPDEST PUSH2 0x9C6 DUP2 DUP5 DUP5 PUSH2 0x98A JUMP JUMPDEST POP POP POP JUMP JUMPDEST JUMPDEST DUP2 DUP2 LT ISZERO PUSH2 0x9E9 JUMPI PUSH2 0x9DE PUSH0 DUP3 PUSH2 0x9B3 JUMP JUMPDEST PUSH1 0x1 DUP2 ADD SWAP1 POP PUSH2 0x9CC JUMP JUMPDEST POP POP JUMP JUMPDEST PUSH1 0x1F DUP3 GT ISZERO PUSH2 0xA2E JUMPI PUSH2 0x9FF DUP2 PUSH2 0x836 JUMP JUMPDEST PUSH2 0xA08 DUP5 PUSH2 0x8EB JUMP JUMPDEST DUP2 ADD PUSH1 0x20 DUP6 LT ISZERO PUSH2 0xA17 JUMPI DUP2 SWAP1 POP JUMPDEST PUSH2 0xA2B PUSH2 0xA23 DUP6 PUSH2 0x8EB JUMP JUMPDEST DUP4 ADD DUP3 PUSH2 0x9CB JUMP JUMPDEST POP POP JUMPDEST POP POP POP JUMP JUMPDEST PUSH0 DUP3 DUP3 SHR SWAP1 POP SWAP3 SWAP2 POP POP JUMP JUMPDEST PUSH0 PUSH2 0xA4E PUSH0 NOT DUP5 PUSH1 0x8 MUL PUSH2 0xA33 JUMP JUMPDEST NOT DUP1 DUP4 AND SWAP2 POP POP SWAP3 SWAP2 POP POP JUMP JUMPDEST PUSH0 PUSH2 0xA66 DUP4 DUP4 PUSH2 0xA3F JUMP JUMPDEST SWAP2 POP DUP3 PUSH1 0x2 MUL DUP3 OR SWAP1 POP SWAP3 SWAP2 POP POP JUMP JUMPDEST PUSH2 0xA7F DUP3 PUSH2 0x6D9 JUMP JUMPDEST PUSH8 0xFFFFFFFFFFFFFFFF DUP2 GT ISZERO PUSH2 0xA98 JUMPI PUSH2 0xA97 PUSH2 0x50C JUMP JUMPDEST JUMPDEST PUSH2 0xAA2 DUP3 SLOAD PUSH2 0x7A9 JUMP JUMPDEST PUSH2 0xAAD DUP3 DUP3 DUP6 PUSH2 0x9ED JUMP JUMPDEST PUSH0 PUSH1 0x20 SWAP1 POP PUSH1 0x1F DUP4 GT PUSH1 0x1 DUP2 EQ PUSH2 0xADE JUMPI PUSH0 DUP5 ISZERO PUSH2 0xACC JUMPI DUP3 DUP8 ADD MLOAD SWAP1 POP JUMPDEST PUSH2 0xAD6 DUP6 DUP3 PUSH2 0xA5B JUMP JUMPDEST DUP7 SSTORE POP PUSH2 0xB3D JUMP JUMPDEST PUSH1 0x1F NOT DUP5 AND PUSH2 0xAEC DUP7 PUSH2 0x836 JUMP JUMPDEST PUSH0 JUMPDEST DUP3 DUP2 LT ISZERO PUSH2 0xB13 JUMPI DUP5 DUP10 ADD MLOAD DUP3 SSTORE PUSH1 0x1 DUP3 ADD SWAP2 POP PUSH1 0x20 DUP6 ADD SWAP5 POP PUSH1 0x20 DUP2 ADD SWAP1 POP PUSH2 0xAEE JUMP JUMPDEST DUP7 DUP4 LT ISZERO PUSH2 0xB30 JUMPI DUP5 DUP10 ADD MLOAD PUSH2 0xB2C PUSH1 0x1F DUP10 AND DUP3 PUSH2 0xA3F JUMP JUMPDEST DUP4 SSTORE POP JUMPDEST PUSH1 0x1 PUSH1 0x2 DUP9 MUL ADD DUP9 SSTORE POP POP POP JUMPDEST POP POP POP POP POP POP JUMP INVALID LOG2 PUSH5 0x6970667358 0x22 SLT KECCAK256 OR PUSH28 0xBAE8A476BB5A1B38A512C0696F018AEF12E70176D796A9502587E222 0x1E 0x27 PUSH5 0x736F6C6343 STOP ADDMOD BYTE STOP CALLER "
				},
				"gasEstimates": {
					"creation": {
						"codeDepositCost": "587800",
						"executionCost": "infinite",
						"totalCost": "infinite"
					},
					"external": {
						"getByteLength()": "2630",
						"getByteLength2()": "2608",
						"getDetails(string,string)": "infinite",
						"passBytes()": "infinite",
						"passWord()": "infinite",
						"userBytes()": "infinite",
						"userName()": "infinite",
						"verifyProfile(string,string)": "infinite"
					}
				},
				"methodIdentifiers": {
					"getByteLength()": "d8bb7b74",
					"getByteLength2()": "bdad967c",
					"getDetails(string,string)": "98b130eb",
					"passBytes()": "7deca859",
					"passWord()": "73c99830",
					"userBytes()": "08ca7c65",
					"userName()": "70019b35",
					"verifyProfile(string,string)": "52a5f26d"
				}
			},
			"storageLayout": {
				"storage": [
					{
						"astId": 4,
						"contract": "contracts/contractBasic.sol:contractBasic",
						"label": "userName",
						"offset": 0,
						"slot": "0",
						"type": "t_string_storage"
					},
					{
						"astId": 7,
						"contract": "contracts/contractBasic.sol:contractBasic",
						"label": "userBytes",
						"offset": 0,
						"slot": "1",
						"type": "t_bytes_storage"
					},
					{
						"astId": 10,
						"contract": "contracts/contractBasic.sol:contractBasic",
						"label": "passWord",
						"offset": 0,
						"slot": "2",
						"type": "t_string_storage"
					},
					{
						"astId": 13,
						"contract": "contracts/contractBasic.sol:contractBasic",
						"label": "passBytes",
						"offset": 0,
						"slot": "3",
						"type": "t_bytes_storage"
					}
				],
				"types": {
					"t_bytes_storage": {
						"encoding": "bytes",
						"label": "bytes",
						"numberOfBytes": "32"
					},
					"t_string_storage": {
						"encoding": "bytes",
						"label": "string",
						"numberOfBytes": "32"
					}
				}
			},
			"userdoc": {
				"kind": "user",
				"methods": {},
				"version": 1
			}
		}
	}
}