{
	"contracts/mappingStructWallet.sol": {
		"structWallet": {
			"abi": [
				{
					"inputs": [
						{
							"internalType": "address",
							"name": "",
							"type": "address"
						}
					],
					"name": "balances",
					"outputs": [
						{
							"internalType": "uint256",
							"name": "totalBalance",
							"type": "uint256"
						},
						{
							"internalType": "uint256",
							"name": "numOfDeposits",
							"type": "uint256"
						},
						{
							"internalType": "uint256",
							"name": "numOfWithdraws",
							"type": "uint256"
						}
					],
					"stateMutability": "view",
					"type": "function"
				},
				{
					"inputs": [],
					"name": "depositETH",
					"outputs": [],
					"stateMutability": "payable",
					"type": "function"
				},
				{
					"inputs": [
						{
							"internalType": "address",
							"name": "_from",
							"type": "address"
						},
						{
							"internalType": "uint256",
							"name": "_numDeposit",
							"type": "uint256"
						}
					],
					"name": "getDepositNum",
					"outputs": [
						{
							"components": [
								{
									"internalType": "uint256",
									"name": "amount",
									"type": "uint256"
								},
								{
									"internalType": "uint256",
									"name": "timeStamp",
									"type": "uint256"
								}
							],
							"internalType": "struct structWallet.Transaction",
							"name": "",
							"type": "tuple"
						}
					],
					"stateMutability": "view",
					"type": "function"
				},
				{
					"inputs": [
						{
							"internalType": "address payable",
							"name": "_to",
							"type": "address"
						},
						{
							"internalType": "uint256",
							"name": "_amount",
							"type": "uint256"
						}
					],
					"name": "withdrawETH",
					"outputs": [],
					"stateMutability": "nonpayable",
					"type": "function"
				}
			],
			"devdoc": {
				"kind": "dev",
				"methods": {},
				"version": 1
			},
			"evm": {
				"assembly": "    /* \"contracts/mappingStructWallet.sol\":60:1331  contract structWallet {... */\n  mstore(0x40, 0x80)\n  callvalue\n  dup1\n  iszero\n  tag_1\n  jumpi\n  0x00\n  dup1\n  revert\ntag_1:\n  pop\n  dataSize(sub_0)\n  dup1\n  dataOffset(sub_0)\n  0x00\n  codecopy\n  0x00\n  return\nstop\n\nsub_0: assembly {\n        /* \"contracts/mappingStructWallet.sol\":60:1331  contract structWallet {... */\n      mstore(0x40, 0x80)\n      jumpi(tag_1, lt(calldatasize, 0x04))\n      shr(0xe0, calldataload(0x00))\n      dup1\n      0x27e235e3\n      eq\n      tag_2\n      jumpi\n      dup1\n      0x4782f779\n      eq\n      tag_3\n      jumpi\n      dup1\n      0x55e14fe6\n      eq\n      tag_4\n      jumpi\n      dup1\n      0xf6326fb3\n      eq\n      tag_5\n      jumpi\n    tag_1:\n      0x00\n      dup1\n      revert\n        /* \"contracts/mappingStructWallet.sol\":403:446  mapping(address => Balance) public balances */\n    tag_2:\n      callvalue\n      dup1\n      iszero\n      tag_6\n      jumpi\n      0x00\n      dup1\n      revert\n    tag_6:\n      pop\n      tag_7\n      0x04\n      dup1\n      calldatasize\n      sub\n      dup2\n      add\n      swap1\n      tag_8\n      swap2\n      swap1\n      tag_9\n      jump\t// in\n    tag_8:\n      tag_10\n      jump\t// in\n    tag_7:\n      mload(0x40)\n      tag_11\n      swap4\n      swap3\n      swap2\n      swap1\n      tag_12\n      jump\t// in\n    tag_11:\n      mload(0x40)\n      dup1\n      swap2\n      sub\n      swap1\n      return\n        /* \"contracts/mappingStructWallet.sol\":948:1328  function withdrawETH(address payable _to, uint _amount) public {... */\n    tag_3:\n      callvalue\n      dup1\n      iszero\n      tag_13\n      jumpi\n      0x00\n      dup1\n      revert\n    tag_13:\n      pop\n      tag_14\n      0x04\n      dup1\n      calldatasize\n      sub\n      dup2\n      add\n      swap1\n      tag_15\n      swap2\n      swap1\n      tag_16\n      jump\t// in\n    tag_15:\n      tag_17\n      jump\t// in\n    tag_14:\n      stop\n        /* \"contracts/mappingStructWallet.sol\":455:614  function getDepositNum(address _from, uint _numDeposit) public view returns(Transaction memory) {... */\n    tag_4:\n      callvalue\n      dup1\n      iszero\n      tag_18\n      jumpi\n      0x00\n      dup1\n      revert\n    tag_18:\n      pop\n      tag_19\n      0x04\n      dup1\n      calldatasize\n      sub\n      dup2\n      add\n      swap1\n      tag_20\n      swap2\n      swap1\n      tag_21\n      jump\t// in\n    tag_20:\n      tag_22\n      jump\t// in\n    tag_19:\n      mload(0x40)\n      tag_23\n      swap2\n      swap1\n      tag_24\n      jump\t// in\n    tag_23:\n      mload(0x40)\n      dup1\n      swap2\n      sub\n      swap1\n      return\n        /* \"contracts/mappingStructWallet.sol\":622:940  function depositETH() public payable {... */\n    tag_5:\n      tag_25\n      tag_26\n      jump\t// in\n    tag_25:\n      stop\n        /* \"contracts/mappingStructWallet.sol\":403:446  mapping(address => Balance) public balances */\n    tag_10:\n      mstore(0x20, 0x00)\n      dup1\n      0x00\n      mstore\n      keccak256(0x00, 0x40)\n      0x00\n      swap2\n      pop\n      swap1\n      pop\n      dup1\n      0x00\n      add\n      sload\n      swap1\n      dup1\n      0x01\n      add\n      sload\n      swap1\n      dup1\n      0x03\n      add\n      sload\n      swap1\n      pop\n      dup4\n      jump\t// out\n        /* \"contracts/mappingStructWallet.sol\":948:1328  function withdrawETH(address payable _to, uint _amount) public {... */\n    tag_17:\n        /* \"contracts/mappingStructWallet.sol\":1059:1066  _amount */\n      dup1\n        /* \"contracts/mappingStructWallet.sol\":1022:1030  balances */\n      0x00\n        /* \"contracts/mappingStructWallet.sol\":1022:1042  balances[msg.sender] */\n      dup1\n        /* \"contracts/mappingStructWallet.sol\":1031:1041  msg.sender */\n      caller\n        /* \"contracts/mappingStructWallet.sol\":1022:1042  balances[msg.sender] */\n      0xffffffffffffffffffffffffffffffffffffffff\n      and\n      0xffffffffffffffffffffffffffffffffffffffff\n      and\n      dup2\n      mstore\n      0x20\n      add\n      swap1\n      dup2\n      mstore\n      0x20\n      add\n      0x00\n      keccak256\n        /* \"contracts/mappingStructWallet.sol\":1022:1055  balances[msg.sender].totalBalance */\n      0x00\n      add\n      0x00\n        /* \"contracts/mappingStructWallet.sol\":1022:1066  balances[msg.sender].totalBalance -= _amount */\n      dup3\n      dup3\n      sload\n      tag_28\n      swap2\n      swap1\n      tag_29\n      jump\t// in\n    tag_28:\n      swap3\n      pop\n      pop\n      dup2\n      swap1\n      sstore\n      pop\n        /* \"contracts/mappingStructWallet.sol\":1079:1106  Transaction memory withdraw */\n      0x00\n        /* \"contracts/mappingStructWallet.sol\":1109:1146  Transaction(_amount, block.timestamp) */\n      mload(0x40)\n      dup1\n      0x40\n      add\n      0x40\n      mstore\n      dup1\n        /* \"contracts/mappingStructWallet.sol\":1121:1128  _amount */\n      dup4\n        /* \"contracts/mappingStructWallet.sol\":1109:1146  Transaction(_amount, block.timestamp) */\n      dup2\n      mstore\n      0x20\n      add\n        /* \"contracts/mappingStructWallet.sol\":1130:1145  block.timestamp */\n      timestamp\n        /* \"contracts/mappingStructWallet.sol\":1109:1146  Transaction(_amount, block.timestamp) */\n      dup2\n      mstore\n      pop\n        /* \"contracts/mappingStructWallet.sol\":1079:1146  Transaction memory withdraw = Transaction(_amount, block.timestamp) */\n      swap1\n      pop\n        /* \"contracts/mappingStructWallet.sol\":1228:1236  withdraw */\n      dup1\n        /* \"contracts/mappingStructWallet.sol\":1157:1165  balances */\n      0x00\n        /* \"contracts/mappingStructWallet.sol\":1157:1177  balances[msg.sender] */\n      dup1\n        /* \"contracts/mappingStructWallet.sol\":1166:1176  msg.sender */\n      caller\n        /* \"contracts/mappingStructWallet.sol\":1157:1177  balances[msg.sender] */\n      0xffffffffffffffffffffffffffffffffffffffff\n      and\n      0xffffffffffffffffffffffffffffffffffffffff\n      and\n      dup2\n      mstore\n      0x20\n      add\n      swap1\n      dup2\n      mstore\n      0x20\n      add\n      0x00\n      keccak256\n        /* \"contracts/mappingStructWallet.sol\":1157:1188  balances[msg.sender].withdrawls */\n      0x04\n      add\n        /* \"contracts/mappingStructWallet.sol\":1157:1225  balances[msg.sender].withdrawls[balances[msg.sender].numOfWithdraws] */\n      0x00\n        /* \"contracts/mappingStructWallet.sol\":1189:1197  balances */\n      dup1\n        /* \"contracts/mappingStructWallet.sol\":1189:1209  balances[msg.sender] */\n      0x00\n        /* \"contracts/mappingStructWallet.sol\":1198:1208  msg.sender */\n      caller\n        /* \"contracts/mappingStructWallet.sol\":1189:1209  balances[msg.sender] */\n      0xffffffffffffffffffffffffffffffffffffffff\n      and\n      0xffffffffffffffffffffffffffffffffffffffff\n      and\n      dup2\n      mstore\n      0x20\n      add\n      swap1\n      dup2\n      mstore\n      0x20\n      add\n      0x00\n      keccak256\n        /* \"contracts/mappingStructWallet.sol\":1189:1224  balances[msg.sender].numOfWithdraws */\n      0x03\n      add\n      sload\n        /* \"contracts/mappingStructWallet.sol\":1157:1225  balances[msg.sender].withdrawls[balances[msg.sender].numOfWithdraws] */\n      dup2\n      mstore\n      0x20\n      add\n      swap1\n      dup2\n      mstore\n      0x20\n      add\n      0x00\n      keccak256\n        /* \"contracts/mappingStructWallet.sol\":1157:1236  balances[msg.sender].withdrawls[balances[msg.sender].numOfWithdraws] = withdraw */\n      0x00\n      dup3\n      add\n      mload\n      dup2\n      0x00\n      add\n      sstore\n      0x20\n      dup3\n      add\n      mload\n      dup2\n      0x01\n      add\n      sstore\n      swap1\n      pop\n      pop\n        /* \"contracts/mappingStructWallet.sol\":1247:1255  balances */\n      0x00\n        /* \"contracts/mappingStructWallet.sol\":1247:1267  balances[msg.sender] */\n      dup1\n        /* \"contracts/mappingStructWallet.sol\":1256:1266  msg.sender */\n      caller\n        /* \"contracts/mappingStructWallet.sol\":1247:1267  balances[msg.sender] */\n      0xffffffffffffffffffffffffffffffffffffffff\n      and\n      0xffffffffffffffffffffffffffffffffffffffff\n      and\n      dup2\n      mstore\n      0x20\n      add\n      swap1\n      dup2\n      mstore\n      0x20\n      add\n      0x00\n      keccak256\n        /* \"contracts/mappingStructWallet.sol\":1247:1282  balances[msg.sender].numOfWithdraws */\n      0x03\n      add\n      0x00\n        /* \"contracts/mappingStructWallet.sol\":1247:1284  balances[msg.sender].numOfWithdraws++ */\n      dup2\n      sload\n      dup1\n      swap3\n      swap2\n      swap1\n      tag_30\n      swap1\n      tag_31\n      jump\t// in\n    tag_30:\n      swap2\n      swap1\n      pop\n      sstore\n      pop\n        /* \"contracts/mappingStructWallet.sol\":1297:1300  _to */\n      dup3\n        /* \"contracts/mappingStructWallet.sol\":1297:1309  _to.transfer */\n      0xffffffffffffffffffffffffffffffffffffffff\n      and\n        /* \"contracts/mappingStructWallet.sol\":1297:1318  _to.transfer(_amount) */\n      0x08fc\n        /* \"contracts/mappingStructWallet.sol\":1310:1317  _amount */\n      dup4\n        /* \"contracts/mappingStructWallet.sol\":1297:1318  _to.transfer(_amount) */\n      swap1\n      dup2\n      iszero\n      mul\n      swap1\n      mload(0x40)\n      0x00\n      mload(0x40)\n      dup1\n      dup4\n      sub\n      dup2\n      dup6\n      dup9\n      dup9\n      call\n      swap4\n      pop\n      pop\n      pop\n      pop\n      iszero\n      dup1\n      iszero\n      tag_33\n      jumpi\n      returndatasize\n      0x00\n      dup1\n      returndatacopy\n      revert(0x00, returndatasize)\n    tag_33:\n      pop\n        /* \"contracts/mappingStructWallet.sol\":1011:1328  {... */\n      pop\n        /* \"contracts/mappingStructWallet.sol\":948:1328  function withdrawETH(address payable _to, uint _amount) public {... */\n      pop\n      pop\n      jump\t// out\n        /* \"contracts/mappingStructWallet.sol\":455:614  function getDepositNum(address _from, uint _numDeposit) public view returns(Transaction memory) {... */\n    tag_22:\n        /* \"contracts/mappingStructWallet.sol\":531:549  Transaction memory */\n      tag_34\n      tag_35\n      jump\t// in\n    tag_34:\n        /* \"contracts/mappingStructWallet.sol\":569:577  balances */\n      0x00\n        /* \"contracts/mappingStructWallet.sol\":569:584  balances[_from] */\n      dup1\n        /* \"contracts/mappingStructWallet.sol\":578:583  _from */\n      dup5\n        /* \"contracts/mappingStructWallet.sol\":569:584  balances[_from] */\n      0xffffffffffffffffffffffffffffffffffffffff\n      and\n      0xffffffffffffffffffffffffffffffffffffffff\n      and\n      dup2\n      mstore\n      0x20\n      add\n      swap1\n      dup2\n      mstore\n      0x20\n      add\n      0x00\n      keccak256\n        /* \"contracts/mappingStructWallet.sol\":569:593  balances[_from].deposits */\n      0x02\n      add\n        /* \"contracts/mappingStructWallet.sol\":569:606  balances[_from].deposits[_numDeposit] */\n      0x00\n        /* \"contracts/mappingStructWallet.sol\":594:605  _numDeposit */\n      dup4\n        /* \"contracts/mappingStructWallet.sol\":569:606  balances[_from].deposits[_numDeposit] */\n      dup2\n      mstore\n      0x20\n      add\n      swap1\n      dup2\n      mstore\n      0x20\n      add\n      0x00\n      keccak256\n        /* \"contracts/mappingStructWallet.sol\":562:606  return balances[_from].deposits[_numDeposit] */\n      mload(0x40)\n      dup1\n      0x40\n      add\n      0x40\n      mstore\n      swap1\n      dup2\n      0x00\n      dup3\n      add\n      sload\n      dup2\n      mstore\n      0x20\n      add\n      0x01\n      dup3\n      add\n      sload\n      dup2\n      mstore\n      pop\n      pop\n      swap1\n      pop\n        /* \"contracts/mappingStructWallet.sol\":455:614  function getDepositNum(address _from, uint _numDeposit) public view returns(Transaction memory) {... */\n      swap3\n      swap2\n      pop\n      pop\n      jump\t// out\n        /* \"contracts/mappingStructWallet.sol\":622:940  function depositETH() public payable {... */\n    tag_26:\n        /* \"contracts/mappingStructWallet.sol\":707:716  msg.value */\n      callvalue\n        /* \"contracts/mappingStructWallet.sol\":670:678  balances */\n      0x00\n        /* \"contracts/mappingStructWallet.sol\":670:690  balances[msg.sender] */\n      dup1\n        /* \"contracts/mappingStructWallet.sol\":679:689  msg.sender */\n      caller\n        /* \"contracts/mappingStructWallet.sol\":670:690  balances[msg.sender] */\n      0xffffffffffffffffffffffffffffffffffffffff\n      and\n      0xffffffffffffffffffffffffffffffffffffffff\n      and\n      dup2\n      mstore\n      0x20\n      add\n      swap1\n      dup2\n      mstore\n      0x20\n      add\n      0x00\n      keccak256\n        /* \"contracts/mappingStructWallet.sol\":670:703  balances[msg.sender].totalBalance */\n      0x00\n      add\n      0x00\n        /* \"contracts/mappingStructWallet.sol\":670:716  balances[msg.sender].totalBalance += msg.value */\n      dup3\n      dup3\n      sload\n      tag_38\n      swap2\n      swap1\n      tag_39\n      jump\t// in\n    tag_38:\n      swap3\n      pop\n      pop\n      dup2\n      swap1\n      sstore\n      pop\n        /* \"contracts/mappingStructWallet.sol\":729:755  Transaction memory deposit */\n      0x00\n        /* \"contracts/mappingStructWallet.sol\":758:797  Transaction(msg.value, block.timestamp) */\n      mload(0x40)\n      dup1\n      0x40\n      add\n      0x40\n      mstore\n      dup1\n        /* \"contracts/mappingStructWallet.sol\":770:779  msg.value */\n      callvalue\n        /* \"contracts/mappingStructWallet.sol\":758:797  Transaction(msg.value, block.timestamp) */\n      dup2\n      mstore\n      0x20\n      add\n        /* \"contracts/mappingStructWallet.sol\":781:796  block.timestamp */\n      timestamp\n        /* \"contracts/mappingStructWallet.sol\":758:797  Transaction(msg.value, block.timestamp) */\n      dup2\n      mstore\n      pop\n        /* \"contracts/mappingStructWallet.sol\":729:797  Transaction memory deposit = Transaction(msg.value, block.timestamp) */\n      swap1\n      pop\n        /* \"contracts/mappingStructWallet.sol\":876:883  deposit */\n      dup1\n        /* \"contracts/mappingStructWallet.sol\":808:816  balances */\n      0x00\n        /* \"contracts/mappingStructWallet.sol\":808:828  balances[msg.sender] */\n      dup1\n        /* \"contracts/mappingStructWallet.sol\":817:827  msg.sender */\n      caller\n        /* \"contracts/mappingStructWallet.sol\":808:828  balances[msg.sender] */\n      0xffffffffffffffffffffffffffffffffffffffff\n      and\n      0xffffffffffffffffffffffffffffffffffffffff\n      and\n      dup2\n      mstore\n      0x20\n      add\n      swap1\n      dup2\n      mstore\n      0x20\n      add\n      0x00\n      keccak256\n        /* \"contracts/mappingStructWallet.sol\":808:837  balances[msg.sender].deposits */\n      0x02\n      add\n        /* \"contracts/mappingStructWallet.sol\":808:873  balances[msg.sender].deposits[balances[msg.sender].numOfDeposits] */\n      0x00\n        /* \"contracts/mappingStructWallet.sol\":838:846  balances */\n      dup1\n        /* \"contracts/mappingStructWallet.sol\":838:858  balances[msg.sender] */\n      0x00\n        /* \"contracts/mappingStructWallet.sol\":847:857  msg.sender */\n      caller\n        /* \"contracts/mappingStructWallet.sol\":838:858  balances[msg.sender] */\n      0xffffffffffffffffffffffffffffffffffffffff\n      and\n      0xffffffffffffffffffffffffffffffffffffffff\n      and\n      dup2\n      mstore\n      0x20\n      add\n      swap1\n      dup2\n      mstore\n      0x20\n      add\n      0x00\n      keccak256\n        /* \"contracts/mappingStructWallet.sol\":838:872  balances[msg.sender].numOfDeposits */\n      0x01\n      add\n      sload\n        /* \"contracts/mappingStructWallet.sol\":808:873  balances[msg.sender].deposits[balances[msg.sender].numOfDeposits] */\n      dup2\n      mstore\n      0x20\n      add\n      swap1\n      dup2\n      mstore\n      0x20\n      add\n      0x00\n      keccak256\n        /* \"contracts/mappingStructWallet.sol\":808:883  balances[msg.sender].deposits[balances[msg.sender].numOfDeposits] = deposit */\n      0x00\n      dup3\n      add\n      mload\n      dup2\n      0x00\n      add\n      sstore\n      0x20\n      dup3\n      add\n      mload\n      dup2\n      0x01\n      add\n      sstore\n      swap1\n      pop\n      pop\n        /* \"contracts/mappingStructWallet.sol\":894:902  balances */\n      0x00\n        /* \"contracts/mappingStructWallet.sol\":894:914  balances[msg.sender] */\n      dup1\n        /* \"contracts/mappingStructWallet.sol\":903:913  msg.sender */\n      caller\n        /* \"contracts/mappingStructWallet.sol\":894:914  balances[msg.sender] */\n      0xffffffffffffffffffffffffffffffffffffffff\n      and\n      0xffffffffffffffffffffffffffffffffffffffff\n      and\n      dup2\n      mstore\n      0x20\n      add\n      swap1\n      dup2\n      mstore\n      0x20\n      add\n      0x00\n      keccak256\n        /* \"contracts/mappingStructWallet.sol\":894:928  balances[msg.sender].numOfDeposits */\n      0x01\n      add\n      0x00\n        /* \"contracts/mappingStructWallet.sol\":894:930  balances[msg.sender].numOfDeposits++ */\n      dup2\n      sload\n      dup1\n      swap3\n      swap2\n      swap1\n      tag_40\n      swap1\n      tag_31\n      jump\t// in\n    tag_40:\n      swap2\n      swap1\n      pop\n      sstore\n      pop\n        /* \"contracts/mappingStructWallet.sol\":659:940  {... */\n      pop\n        /* \"contracts/mappingStructWallet.sol\":622:940  function depositETH() public payable {... */\n      jump\t// out\n    tag_35:\n      mload(0x40)\n      dup1\n      0x40\n      add\n      0x40\n      mstore\n      dup1\n      0x00\n      dup2\n      mstore\n      0x20\n      add\n      0x00\n      dup2\n      mstore\n      pop\n      swap1\n      jump\t// out\n        /* \"#utility.yul\":88:205   */\n    tag_42:\n        /* \"#utility.yul\":197:198   */\n      0x00\n        /* \"#utility.yul\":194:195   */\n      dup1\n        /* \"#utility.yul\":187:199   */\n      revert\n        /* \"#utility.yul\":334:460   */\n    tag_44:\n        /* \"#utility.yul\":371:378   */\n      0x00\n        /* \"#utility.yul\":411:453   */\n      0xffffffffffffffffffffffffffffffffffffffff\n        /* \"#utility.yul\":404:409   */\n      dup3\n        /* \"#utility.yul\":400:454   */\n      and\n        /* \"#utility.yul\":389:454   */\n      swap1\n      pop\n        /* \"#utility.yul\":334:460   */\n      swap2\n      swap1\n      pop\n      jump\t// out\n        /* \"#utility.yul\":466:562   */\n    tag_45:\n        /* \"#utility.yul\":503:510   */\n      0x00\n        /* \"#utility.yul\":532:556   */\n      tag_64\n        /* \"#utility.yul\":550:555   */\n      dup3\n        /* \"#utility.yul\":532:556   */\n      tag_44\n      jump\t// in\n    tag_64:\n        /* \"#utility.yul\":521:556   */\n      swap1\n      pop\n        /* \"#utility.yul\":466:562   */\n      swap2\n      swap1\n      pop\n      jump\t// out\n        /* \"#utility.yul\":568:690   */\n    tag_46:\n        /* \"#utility.yul\":641:665   */\n      tag_66\n        /* \"#utility.yul\":659:664   */\n      dup2\n        /* \"#utility.yul\":641:665   */\n      tag_45\n      jump\t// in\n    tag_66:\n        /* \"#utility.yul\":634:639   */\n      dup2\n        /* \"#utility.yul\":631:666   */\n      eq\n        /* \"#utility.yul\":621:684   */\n      tag_67\n      jumpi\n        /* \"#utility.yul\":680:681   */\n      0x00\n        /* \"#utility.yul\":677:678   */\n      dup1\n        /* \"#utility.yul\":670:682   */\n      revert\n        /* \"#utility.yul\":621:684   */\n    tag_67:\n        /* \"#utility.yul\":568:690   */\n      pop\n      jump\t// out\n        /* \"#utility.yul\":696:835   */\n    tag_47:\n        /* \"#utility.yul\":742:747   */\n      0x00\n        /* \"#utility.yul\":780:786   */\n      dup2\n        /* \"#utility.yul\":767:787   */\n      calldataload\n        /* \"#utility.yul\":758:787   */\n      swap1\n      pop\n        /* \"#utility.yul\":796:829   */\n      tag_69\n        /* \"#utility.yul\":823:828   */\n      dup2\n        /* \"#utility.yul\":796:829   */\n      tag_46\n      jump\t// in\n    tag_69:\n        /* \"#utility.yul\":696:835   */\n      swap3\n      swap2\n      pop\n      pop\n      jump\t// out\n        /* \"#utility.yul\":841:1170   */\n    tag_9:\n        /* \"#utility.yul\":900:906   */\n      0x00\n        /* \"#utility.yul\":949:951   */\n      0x20\n        /* \"#utility.yul\":937:946   */\n      dup3\n        /* \"#utility.yul\":928:935   */\n      dup5\n        /* \"#utility.yul\":924:947   */\n      sub\n        /* \"#utility.yul\":920:952   */\n      slt\n        /* \"#utility.yul\":917:1036   */\n      iszero\n      tag_71\n      jumpi\n        /* \"#utility.yul\":955:1034   */\n      tag_72\n      tag_42\n      jump\t// in\n    tag_72:\n        /* \"#utility.yul\":917:1036   */\n    tag_71:\n        /* \"#utility.yul\":1075:1076   */\n      0x00\n        /* \"#utility.yul\":1100:1153   */\n      tag_73\n        /* \"#utility.yul\":1145:1152   */\n      dup5\n        /* \"#utility.yul\":1136:1142   */\n      dup3\n        /* \"#utility.yul\":1125:1134   */\n      dup6\n        /* \"#utility.yul\":1121:1143   */\n      add\n        /* \"#utility.yul\":1100:1153   */\n      tag_47\n      jump\t// in\n    tag_73:\n        /* \"#utility.yul\":1090:1153   */\n      swap2\n      pop\n        /* \"#utility.yul\":1046:1163   */\n      pop\n        /* \"#utility.yul\":841:1170   */\n      swap3\n      swap2\n      pop\n      pop\n      jump\t// out\n        /* \"#utility.yul\":1176:1253   */\n    tag_48:\n        /* \"#utility.yul\":1213:1220   */\n      0x00\n        /* \"#utility.yul\":1242:1247   */\n      dup2\n        /* \"#utility.yul\":1231:1247   */\n      swap1\n      pop\n        /* \"#utility.yul\":1176:1253   */\n      swap2\n      swap1\n      pop\n      jump\t// out\n        /* \"#utility.yul\":1259:1377   */\n    tag_49:\n        /* \"#utility.yul\":1346:1370   */\n      tag_76\n        /* \"#utility.yul\":1364:1369   */\n      dup2\n        /* \"#utility.yul\":1346:1370   */\n      tag_48\n      jump\t// in\n    tag_76:\n        /* \"#utility.yul\":1341:1344   */\n      dup3\n        /* \"#utility.yul\":1334:1371   */\n      mstore\n        /* \"#utility.yul\":1259:1377   */\n      pop\n      pop\n      jump\t// out\n        /* \"#utility.yul\":1383:1825   */\n    tag_12:\n        /* \"#utility.yul\":1532:1536   */\n      0x00\n        /* \"#utility.yul\":1570:1572   */\n      0x60\n        /* \"#utility.yul\":1559:1568   */\n      dup3\n        /* \"#utility.yul\":1555:1573   */\n      add\n        /* \"#utility.yul\":1547:1573   */\n      swap1\n      pop\n        /* \"#utility.yul\":1583:1654   */\n      tag_78\n        /* \"#utility.yul\":1651:1652   */\n      0x00\n        /* \"#utility.yul\":1640:1649   */\n      dup4\n        /* \"#utility.yul\":1636:1653   */\n      add\n        /* \"#utility.yul\":1627:1633   */\n      dup7\n        /* \"#utility.yul\":1583:1654   */\n      tag_49\n      jump\t// in\n    tag_78:\n        /* \"#utility.yul\":1664:1736   */\n      tag_79\n        /* \"#utility.yul\":1732:1734   */\n      0x20\n        /* \"#utility.yul\":1721:1730   */\n      dup4\n        /* \"#utility.yul\":1717:1735   */\n      add\n        /* \"#utility.yul\":1708:1714   */\n      dup6\n        /* \"#utility.yul\":1664:1736   */\n      tag_49\n      jump\t// in\n    tag_79:\n        /* \"#utility.yul\":1746:1818   */\n      tag_80\n        /* \"#utility.yul\":1814:1816   */\n      0x40\n        /* \"#utility.yul\":1803:1812   */\n      dup4\n        /* \"#utility.yul\":1799:1817   */\n      add\n        /* \"#utility.yul\":1790:1796   */\n      dup5\n        /* \"#utility.yul\":1746:1818   */\n      tag_49\n      jump\t// in\n    tag_80:\n        /* \"#utility.yul\":1383:1825   */\n      swap5\n      swap4\n      pop\n      pop\n      pop\n      pop\n      jump\t// out\n        /* \"#utility.yul\":1831:1935   */\n    tag_50:\n        /* \"#utility.yul\":1876:1883   */\n      0x00\n        /* \"#utility.yul\":1905:1929   */\n      tag_82\n        /* \"#utility.yul\":1923:1928   */\n      dup3\n        /* \"#utility.yul\":1905:1929   */\n      tag_44\n      jump\t// in\n    tag_82:\n        /* \"#utility.yul\":1894:1929   */\n      swap1\n      pop\n        /* \"#utility.yul\":1831:1935   */\n      swap2\n      swap1\n      pop\n      jump\t// out\n        /* \"#utility.yul\":1941:2079   */\n    tag_51:\n        /* \"#utility.yul\":2022:2054   */\n      tag_84\n        /* \"#utility.yul\":2048:2053   */\n      dup2\n        /* \"#utility.yul\":2022:2054   */\n      tag_50\n      jump\t// in\n    tag_84:\n        /* \"#utility.yul\":2015:2020   */\n      dup2\n        /* \"#utility.yul\":2012:2055   */\n      eq\n        /* \"#utility.yul\":2002:2073   */\n      tag_85\n      jumpi\n        /* \"#utility.yul\":2069:2070   */\n      0x00\n        /* \"#utility.yul\":2066:2067   */\n      dup1\n        /* \"#utility.yul\":2059:2071   */\n      revert\n        /* \"#utility.yul\":2002:2073   */\n    tag_85:\n        /* \"#utility.yul\":1941:2079   */\n      pop\n      jump\t// out\n        /* \"#utility.yul\":2085:2240   */\n    tag_52:\n        /* \"#utility.yul\":2139:2144   */\n      0x00\n        /* \"#utility.yul\":2177:2183   */\n      dup2\n        /* \"#utility.yul\":2164:2184   */\n      calldataload\n        /* \"#utility.yul\":2155:2184   */\n      swap1\n      pop\n        /* \"#utility.yul\":2193:2234   */\n      tag_87\n        /* \"#utility.yul\":2228:2233   */\n      dup2\n        /* \"#utility.yul\":2193:2234   */\n      tag_51\n      jump\t// in\n    tag_87:\n        /* \"#utility.yul\":2085:2240   */\n      swap3\n      swap2\n      pop\n      pop\n      jump\t// out\n        /* \"#utility.yul\":2246:2368   */\n    tag_53:\n        /* \"#utility.yul\":2319:2343   */\n      tag_89\n        /* \"#utility.yul\":2337:2342   */\n      dup2\n        /* \"#utility.yul\":2319:2343   */\n      tag_48\n      jump\t// in\n    tag_89:\n        /* \"#utility.yul\":2312:2317   */\n      dup2\n        /* \"#utility.yul\":2309:2344   */\n      eq\n        /* \"#utility.yul\":2299:2362   */\n      tag_90\n      jumpi\n        /* \"#utility.yul\":2358:2359   */\n      0x00\n        /* \"#utility.yul\":2355:2356   */\n      dup1\n        /* \"#utility.yul\":2348:2360   */\n      revert\n        /* \"#utility.yul\":2299:2362   */\n    tag_90:\n        /* \"#utility.yul\":2246:2368   */\n      pop\n      jump\t// out\n        /* \"#utility.yul\":2374:2513   */\n    tag_54:\n        /* \"#utility.yul\":2420:2425   */\n      0x00\n        /* \"#utility.yul\":2458:2464   */\n      dup2\n        /* \"#utility.yul\":2445:2465   */\n      calldataload\n        /* \"#utility.yul\":2436:2465   */\n      swap1\n      pop\n        /* \"#utility.yul\":2474:2507   */\n      tag_92\n        /* \"#utility.yul\":2501:2506   */\n      dup2\n        /* \"#utility.yul\":2474:2507   */\n      tag_53\n      jump\t// in\n    tag_92:\n        /* \"#utility.yul\":2374:2513   */\n      swap3\n      swap2\n      pop\n      pop\n      jump\t// out\n        /* \"#utility.yul\":2519:3009   */\n    tag_16:\n        /* \"#utility.yul\":2595:2601   */\n      0x00\n        /* \"#utility.yul\":2603:2609   */\n      dup1\n        /* \"#utility.yul\":2652:2654   */\n      0x40\n        /* \"#utility.yul\":2640:2649   */\n      dup4\n        /* \"#utility.yul\":2631:2638   */\n      dup6\n        /* \"#utility.yul\":2627:2650   */\n      sub\n        /* \"#utility.yul\":2623:2655   */\n      slt\n        /* \"#utility.yul\":2620:2739   */\n      iszero\n      tag_94\n      jumpi\n        /* \"#utility.yul\":2658:2737   */\n      tag_95\n      tag_42\n      jump\t// in\n    tag_95:\n        /* \"#utility.yul\":2620:2739   */\n    tag_94:\n        /* \"#utility.yul\":2778:2779   */\n      0x00\n        /* \"#utility.yul\":2803:2864   */\n      tag_96\n        /* \"#utility.yul\":2856:2863   */\n      dup6\n        /* \"#utility.yul\":2847:2853   */\n      dup3\n        /* \"#utility.yul\":2836:2845   */\n      dup7\n        /* \"#utility.yul\":2832:2854   */\n      add\n        /* \"#utility.yul\":2803:2864   */\n      tag_52\n      jump\t// in\n    tag_96:\n        /* \"#utility.yul\":2793:2864   */\n      swap3\n      pop\n        /* \"#utility.yul\":2749:2874   */\n      pop\n        /* \"#utility.yul\":2913:2915   */\n      0x20\n        /* \"#utility.yul\":2939:2992   */\n      tag_97\n        /* \"#utility.yul\":2984:2991   */\n      dup6\n        /* \"#utility.yul\":2975:2981   */\n      dup3\n        /* \"#utility.yul\":2964:2973   */\n      dup7\n        /* \"#utility.yul\":2960:2982   */\n      add\n        /* \"#utility.yul\":2939:2992   */\n      tag_54\n      jump\t// in\n    tag_97:\n        /* \"#utility.yul\":2929:2992   */\n      swap2\n      pop\n        /* \"#utility.yul\":2884:3002   */\n      pop\n        /* \"#utility.yul\":2519:3009   */\n      swap3\n      pop\n      swap3\n      swap1\n      pop\n      jump\t// out\n        /* \"#utility.yul\":3015:3489   */\n    tag_21:\n        /* \"#utility.yul\":3083:3089   */\n      0x00\n        /* \"#utility.yul\":3091:3097   */\n      dup1\n        /* \"#utility.yul\":3140:3142   */\n      0x40\n        /* \"#utility.yul\":3128:3137   */\n      dup4\n        /* \"#utility.yul\":3119:3126   */\n      dup6\n        /* \"#utility.yul\":3115:3138   */\n      sub\n        /* \"#utility.yul\":3111:3143   */\n      slt\n        /* \"#utility.yul\":3108:3227   */\n      iszero\n      tag_99\n      jumpi\n        /* \"#utility.yul\":3146:3225   */\n      tag_100\n      tag_42\n      jump\t// in\n    tag_100:\n        /* \"#utility.yul\":3108:3227   */\n    tag_99:\n        /* \"#utility.yul\":3266:3267   */\n      0x00\n        /* \"#utility.yul\":3291:3344   */\n      tag_101\n        /* \"#utility.yul\":3336:3343   */\n      dup6\n        /* \"#utility.yul\":3327:3333   */\n      dup3\n        /* \"#utility.yul\":3316:3325   */\n      dup7\n        /* \"#utility.yul\":3312:3334   */\n      add\n        /* \"#utility.yul\":3291:3344   */\n      tag_47\n      jump\t// in\n    tag_101:\n        /* \"#utility.yul\":3281:3344   */\n      swap3\n      pop\n        /* \"#utility.yul\":3237:3354   */\n      pop\n        /* \"#utility.yul\":3393:3395   */\n      0x20\n        /* \"#utility.yul\":3419:3472   */\n      tag_102\n        /* \"#utility.yul\":3464:3471   */\n      dup6\n        /* \"#utility.yul\":3455:3461   */\n      dup3\n        /* \"#utility.yul\":3444:3453   */\n      dup7\n        /* \"#utility.yul\":3440:3462   */\n      add\n        /* \"#utility.yul\":3419:3472   */\n      tag_54\n      jump\t// in\n    tag_102:\n        /* \"#utility.yul\":3409:3472   */\n      swap2\n      pop\n        /* \"#utility.yul\":3364:3482   */\n      pop\n        /* \"#utility.yul\":3015:3489   */\n      swap3\n      pop\n      swap3\n      swap1\n      pop\n      jump\t// out\n        /* \"#utility.yul\":3495:3603   */\n    tag_55:\n        /* \"#utility.yul\":3572:3596   */\n      tag_104\n        /* \"#utility.yul\":3590:3595   */\n      dup2\n        /* \"#utility.yul\":3572:3596   */\n      tag_48\n      jump\t// in\n    tag_104:\n        /* \"#utility.yul\":3567:3570   */\n      dup3\n        /* \"#utility.yul\":3560:3597   */\n      mstore\n        /* \"#utility.yul\":3495:3603   */\n      pop\n      pop\n      jump\t// out\n        /* \"#utility.yul\":3683:4199   */\n    tag_56:\n        /* \"#utility.yul\":3832:3836   */\n      0x40\n        /* \"#utility.yul\":3827:3830   */\n      dup3\n        /* \"#utility.yul\":3823:3837   */\n      add\n        /* \"#utility.yul\":3921:3925   */\n      0x00\n        /* \"#utility.yul\":3914:3919   */\n      dup3\n        /* \"#utility.yul\":3910:3926   */\n      add\n        /* \"#utility.yul\":3904:3927   */\n      mload\n        /* \"#utility.yul\":3940:4003   */\n      tag_106\n        /* \"#utility.yul\":3997:4001   */\n      0x00\n        /* \"#utility.yul\":3992:3995   */\n      dup6\n        /* \"#utility.yul\":3988:4002   */\n      add\n        /* \"#utility.yul\":3974:3986   */\n      dup3\n        /* \"#utility.yul\":3940:4003   */\n      tag_55\n      jump\t// in\n    tag_106:\n        /* \"#utility.yul\":3847:4013   */\n      pop\n        /* \"#utility.yul\":4100:4104   */\n      0x20\n        /* \"#utility.yul\":4093:4098   */\n      dup3\n        /* \"#utility.yul\":4089:4105   */\n      add\n        /* \"#utility.yul\":4083:4106   */\n      mload\n        /* \"#utility.yul\":4119:4182   */\n      tag_107\n        /* \"#utility.yul\":4176:4180   */\n      0x20\n        /* \"#utility.yul\":4171:4174   */\n      dup6\n        /* \"#utility.yul\":4167:4181   */\n      add\n        /* \"#utility.yul\":4153:4165   */\n      dup3\n        /* \"#utility.yul\":4119:4182   */\n      tag_55\n      jump\t// in\n    tag_107:\n        /* \"#utility.yul\":4023:4192   */\n      pop\n        /* \"#utility.yul\":3801:4199   */\n      pop\n        /* \"#utility.yul\":3683:4199   */\n      pop\n      pop\n      jump\t// out\n        /* \"#utility.yul\":4205:4531   */\n    tag_24:\n        /* \"#utility.yul\":4350:4354   */\n      0x00\n        /* \"#utility.yul\":4388:4390   */\n      0x40\n        /* \"#utility.yul\":4377:4386   */\n      dup3\n        /* \"#utility.yul\":4373:4391   */\n      add\n        /* \"#utility.yul\":4365:4391   */\n      swap1\n      pop\n        /* \"#utility.yul\":4401:4524   */\n      tag_109\n        /* \"#utility.yul\":4521:4522   */\n      0x00\n        /* \"#utility.yul\":4510:4519   */\n      dup4\n        /* \"#utility.yul\":4506:4523   */\n      add\n        /* \"#utility.yul\":4497:4503   */\n      dup5\n        /* \"#utility.yul\":4401:4524   */\n      tag_56\n      jump\t// in\n    tag_109:\n        /* \"#utility.yul\":4205:4531   */\n      swap3\n      swap2\n      pop\n      pop\n      jump\t// out\n        /* \"#utility.yul\":4537:4717   */\n    tag_57:\n        /* \"#utility.yul\":4585:4662   */\n      0x4e487b7100000000000000000000000000000000000000000000000000000000\n        /* \"#utility.yul\":4582:4583   */\n      0x00\n        /* \"#utility.yul\":4575:4663   */\n      mstore\n        /* \"#utility.yul\":4682:4686   */\n      0x11\n        /* \"#utility.yul\":4679:4680   */\n      0x04\n        /* \"#utility.yul\":4672:4687   */\n      mstore\n        /* \"#utility.yul\":4706:4710   */\n      0x24\n        /* \"#utility.yul\":4703:4704   */\n      0x00\n        /* \"#utility.yul\":4696:4711   */\n      revert\n        /* \"#utility.yul\":4723:4917   */\n    tag_29:\n        /* \"#utility.yul\":4763:4767   */\n      0x00\n        /* \"#utility.yul\":4783:4803   */\n      tag_112\n        /* \"#utility.yul\":4801:4802   */\n      dup3\n        /* \"#utility.yul\":4783:4803   */\n      tag_48\n      jump\t// in\n    tag_112:\n        /* \"#utility.yul\":4778:4803   */\n      swap2\n      pop\n        /* \"#utility.yul\":4817:4837   */\n      tag_113\n        /* \"#utility.yul\":4835:4836   */\n      dup4\n        /* \"#utility.yul\":4817:4837   */\n      tag_48\n      jump\t// in\n    tag_113:\n        /* \"#utility.yul\":4812:4837   */\n      swap3\n      pop\n        /* \"#utility.yul\":4861:4862   */\n      dup3\n        /* \"#utility.yul\":4858:4859   */\n      dup3\n        /* \"#utility.yul\":4854:4863   */\n      sub\n        /* \"#utility.yul\":4846:4863   */\n      swap1\n      pop\n        /* \"#utility.yul\":4885:4886   */\n      dup2\n        /* \"#utility.yul\":4879:4883   */\n      dup2\n        /* \"#utility.yul\":4876:4887   */\n      gt\n        /* \"#utility.yul\":4873:4910   */\n      iszero\n      tag_114\n      jumpi\n        /* \"#utility.yul\":4890:4908   */\n      tag_115\n      tag_57\n      jump\t// in\n    tag_115:\n        /* \"#utility.yul\":4873:4910   */\n    tag_114:\n        /* \"#utility.yul\":4723:4917   */\n      swap3\n      swap2\n      pop\n      pop\n      jump\t// out\n        /* \"#utility.yul\":4923:5156   */\n    tag_31:\n        /* \"#utility.yul\":4962:4965   */\n      0x00\n        /* \"#utility.yul\":4985:5009   */\n      tag_117\n        /* \"#utility.yul\":5003:5008   */\n      dup3\n        /* \"#utility.yul\":4985:5009   */\n      tag_48\n      jump\t// in\n    tag_117:\n        /* \"#utility.yul\":4976:5009   */\n      swap2\n      pop\n        /* \"#utility.yul\":5031:5097   */\n      0xffffffffffffffffffffffffffffffffffffffffffffffffffffffffffffffff\n        /* \"#utility.yul\":5024:5029   */\n      dup3\n        /* \"#utility.yul\":5021:5098   */\n      sub\n        /* \"#utility.yul\":5018:5121   */\n      tag_118\n      jumpi\n        /* \"#utility.yul\":5101:5119   */\n      tag_119\n      tag_57\n      jump\t// in\n    tag_119:\n        /* \"#utility.yul\":5018:5121   */\n    tag_118:\n        /* \"#utility.yul\":5148:5149   */\n      0x01\n        /* \"#utility.yul\":5141:5146   */\n      dup3\n        /* \"#utility.yul\":5137:5150   */\n      add\n        /* \"#utility.yul\":5130:5150   */\n      swap1\n      pop\n        /* \"#utility.yul\":4923:5156   */\n      swap2\n      swap1\n      pop\n      jump\t// out\n        /* \"#utility.yul\":5162:5353   */\n    tag_39:\n        /* \"#utility.yul\":5202:5205   */\n      0x00\n        /* \"#utility.yul\":5221:5241   */\n      tag_121\n        /* \"#utility.yul\":5239:5240   */\n      dup3\n        /* \"#utility.yul\":5221:5241   */\n      tag_48\n      jump\t// in\n    tag_121:\n        /* \"#utility.yul\":5216:5241   */\n      swap2\n      pop\n        /* \"#utility.yul\":5255:5275   */\n      tag_122\n        /* \"#utility.yul\":5273:5274   */\n      dup4\n        /* \"#utility.yul\":5255:5275   */\n      tag_48\n      jump\t// in\n    tag_122:\n        /* \"#utility.yul\":5250:5275   */\n      swap3\n      pop\n        /* \"#utility.yul\":5298:5299   */\n      dup3\n        /* \"#utility.yul\":5295:5296   */\n      dup3\n        /* \"#utility.yul\":5291:5300   */\n      add\n        /* \"#utility.yul\":5284:5300   */\n      swap1\n      pop\n        /* \"#utility.yul\":5319:5322   */\n      dup1\n        /* \"#utility.yul\":5316:5317   */\n      dup3\n        /* \"#utility.yul\":5313:5323   */\n      gt\n        /* \"#utility.yul\":5310:5346   */\n      iszero\n      tag_123\n      jumpi\n        /* \"#utility.yul\":5326:5344   */\n      tag_124\n      tag_57\n      jump\t// in\n    tag_124:\n        /* \"#utility.yul\":5310:5346   */\n    tag_123:\n        /* \"#utility.yul\":5162:5353   */\n      swap3\n      swap2\n      pop\n      pop\n      jump\t// out\n\n    auxdata: 0xa2646970667358221220bbbc9ca6e916e8cf4d9328196088c006f2669eb7a5ff8bc8311fa5bb6bf4104c64736f6c634300081a0033\n}\n",
				"bytecode": {
					"linkReferences": {},
					"object": "6080604052348015600e575f80fd5b506107d58061001c5f395ff3fe60806040526004361061003e575f3560e01c806327e235e3146100425780634782f7791461008057806355e14fe6146100a8578063f6326fb3146100e4575b5f80fd5b34801561004d575f80fd5b5061006860048036038101906100639190610517565b6100ee565b6040516100779392919061055a565b60405180910390f35b34801561008b575f80fd5b506100a660048036038101906100a191906105f4565b610113565b005b3480156100b3575f80fd5b506100ce60048036038101906100c99190610632565b6102bf565b6040516100db91906106ac565b60405180910390f35b6100ec61033b565b005b5f602052805f5260405f205f91509050805f0154908060010154908060030154905083565b805f803373ffffffffffffffffffffffffffffffffffffffff1673ffffffffffffffffffffffffffffffffffffffff1681526020019081526020015f205f015f82825461016091906106f2565b925050819055505f6040518060400160405280838152602001428152509050805f803373ffffffffffffffffffffffffffffffffffffffff1673ffffffffffffffffffffffffffffffffffffffff1681526020019081526020015f206004015f805f3373ffffffffffffffffffffffffffffffffffffffff1673ffffffffffffffffffffffffffffffffffffffff1681526020019081526020015f206003015481526020019081526020015f205f820151815f0155602082015181600101559050505f803373ffffffffffffffffffffffffffffffffffffffff1673ffffffffffffffffffffffffffffffffffffffff1681526020019081526020015f206003015f81548092919061027190610725565b91905055508273ffffffffffffffffffffffffffffffffffffffff166108fc8390811502906040515f60405180830381858888f193505050501580156102b9573d5f803e3d5ffd5b50505050565b6102c76104a1565b5f808473ffffffffffffffffffffffffffffffffffffffff1673ffffffffffffffffffffffffffffffffffffffff1681526020019081526020015f206002015f8381526020019081526020015f206040518060400160405290815f8201548152602001600182015481525050905092915050565b345f803373ffffffffffffffffffffffffffffffffffffffff1673ffffffffffffffffffffffffffffffffffffffff1681526020019081526020015f205f015f828254610388919061076c565b925050819055505f6040518060400160405280348152602001428152509050805f803373ffffffffffffffffffffffffffffffffffffffff1673ffffffffffffffffffffffffffffffffffffffff1681526020019081526020015f206002015f805f3373ffffffffffffffffffffffffffffffffffffffff1673ffffffffffffffffffffffffffffffffffffffff1681526020019081526020015f206001015481526020019081526020015f205f820151815f0155602082015181600101559050505f803373ffffffffffffffffffffffffffffffffffffffff1673ffffffffffffffffffffffffffffffffffffffff1681526020019081526020015f206001015f81548092919061049990610725565b919050555050565b60405180604001604052805f81526020015f81525090565b5f80fd5b5f73ffffffffffffffffffffffffffffffffffffffff82169050919050565b5f6104e6826104bd565b9050919050565b6104f6816104dc565b8114610500575f80fd5b50565b5f81359050610511816104ed565b92915050565b5f6020828403121561052c5761052b6104b9565b5b5f61053984828501610503565b91505092915050565b5f819050919050565b61055481610542565b82525050565b5f60608201905061056d5f83018661054b565b61057a602083018561054b565b610587604083018461054b565b949350505050565b5f610599826104bd565b9050919050565b6105a98161058f565b81146105b3575f80fd5b50565b5f813590506105c4816105a0565b92915050565b6105d381610542565b81146105dd575f80fd5b50565b5f813590506105ee816105ca565b92915050565b5f806040838503121561060a576106096104b9565b5b5f610617858286016105b6565b9250506020610628858286016105e0565b9150509250929050565b5f8060408385031215610648576106476104b9565b5b5f61065585828601610503565b9250506020610666858286016105e0565b9150509250929050565b61067981610542565b82525050565b604082015f8201516106935f850182610670565b5060208201516106a66020850182610670565b50505050565b5f6040820190506106bf5f83018461067f565b92915050565b7f4e487b71000000000000000000000000000000000000000000000000000000005f52601160045260245ffd5b5f6106fc82610542565b915061070783610542565b925082820390508181111561071f5761071e6106c5565b5b92915050565b5f61072f82610542565b91507fffffffffffffffffffffffffffffffffffffffffffffffffffffffffffffffff8203610761576107606106c5565b5b600182019050919050565b5f61077682610542565b915061078183610542565b9250828201905080821115610799576107986106c5565b5b9291505056fea2646970667358221220bbbc9ca6e916e8cf4d9328196088c006f2669eb7a5ff8bc8311fa5bb6bf4104c64736f6c634300081a0033",
					"opcodes": "PUSH1 0x80 PUSH1 0x40 MSTORE CALLVALUE DUP1 ISZERO PUSH1 0xE JUMPI PUSH0 DUP1 REVERT JUMPDEST POP PUSH2 0x7D5 DUP1 PUSH2 0x1C PUSH0 CODECOPY PUSH0 RETURN INVALID PUSH1 0x80 PUSH1 0x40 MSTORE PUSH1 0x4 CALLDATASIZE LT PUSH2 0x3E JUMPI PUSH0 CALLDATALOAD PUSH1 0xE0 SHR DUP1 PUSH4 0x27E235E3 EQ PUSH2 0x42 JUMPI DUP1 PUSH4 0x4782F779 EQ PUSH2 0x80 JUMPI DUP1 PUSH4 0x55E14FE6 EQ PUSH2 0xA8 JUMPI DUP1 PUSH4 0xF6326FB3 EQ PUSH2 0xE4 JUMPI JUMPDEST PUSH0 DUP1 REVERT JUMPDEST CALLVALUE DUP1 ISZERO PUSH2 0x4D JUMPI PUSH0 DUP1 REVERT JUMPDEST POP PUSH2 0x68 PUSH1 0x4 DUP1 CALLDATASIZE SUB DUP2 ADD SWAP1 PUSH2 0x63 SWAP2 SWAP1 PUSH2 0x517 JUMP JUMPDEST PUSH2 0xEE JUMP JUMPDEST PUSH1 0x40 MLOAD PUSH2 0x77 SWAP4 SWAP3 SWAP2 SWAP1 PUSH2 0x55A JUMP JUMPDEST PUSH1 0x40 MLOAD DUP1 SWAP2 SUB SWAP1 RETURN JUMPDEST CALLVALUE DUP1 ISZERO PUSH2 0x8B JUMPI PUSH0 DUP1 REVERT JUMPDEST POP PUSH2 0xA6 PUSH1 0x4 DUP1 CALLDATASIZE SUB DUP2 ADD SWAP1 PUSH2 0xA1 SWAP2 SWAP1 PUSH2 0x5F4 JUMP JUMPDEST PUSH2 0x113 JUMP JUMPDEST STOP JUMPDEST CALLVALUE DUP1 ISZERO PUSH2 0xB3 JUMPI PUSH0 DUP1 REVERT JUMPDEST POP PUSH2 0xCE PUSH1 0x4 DUP1 CALLDATASIZE SUB DUP2 ADD SWAP1 PUSH2 0xC9 SWAP2 SWAP1 PUSH2 0x632 JUMP JUMPDEST PUSH2 0x2BF JUMP JUMPDEST PUSH1 0x40 MLOAD PUSH2 0xDB SWAP2 SWAP1 PUSH2 0x6AC JUMP JUMPDEST PUSH1 0x40 MLOAD DUP1 SWAP2 SUB SWAP1 RETURN JUMPDEST PUSH2 0xEC PUSH2 0x33B JUMP JUMPDEST STOP JUMPDEST PUSH0 PUSH1 0x20 MSTORE DUP1 PUSH0 MSTORE PUSH1 0x40 PUSH0 KECCAK256 PUSH0 SWAP2 POP SWAP1 POP DUP1 PUSH0 ADD SLOAD SWAP1 DUP1 PUSH1 0x1 ADD SLOAD SWAP1 DUP1 PUSH1 0x3 ADD SLOAD SWAP1 POP DUP4 JUMP JUMPDEST DUP1 PUSH0 DUP1 CALLER PUSH20 0xFFFFFFFFFFFFFFFFFFFFFFFFFFFFFFFFFFFFFFFF AND PUSH20 0xFFFFFFFFFFFFFFFFFFFFFFFFFFFFFFFFFFFFFFFF AND DUP2 MSTORE PUSH1 0x20 ADD SWAP1 DUP2 MSTORE PUSH1 0x20 ADD PUSH0 KECCAK256 PUSH0 ADD PUSH0 DUP3 DUP3 SLOAD PUSH2 0x160 SWAP2 SWAP1 PUSH2 0x6F2 JUMP JUMPDEST SWAP3 POP POP DUP2 SWAP1 SSTORE POP PUSH0 PUSH1 0x40 MLOAD DUP1 PUSH1 0x40 ADD PUSH1 0x40 MSTORE DUP1 DUP4 DUP2 MSTORE PUSH1 0x20 ADD TIMESTAMP DUP2 MSTORE POP SWAP1 POP DUP1 PUSH0 DUP1 CALLER PUSH20 0xFFFFFFFFFFFFFFFFFFFFFFFFFFFFFFFFFFFFFFFF AND PUSH20 0xFFFFFFFFFFFFFFFFFFFFFFFFFFFFFFFFFFFFFFFF AND DUP2 MSTORE PUSH1 0x20 ADD SWAP1 DUP2 MSTORE PUSH1 0x20 ADD PUSH0 KECCAK256 PUSH1 0x4 ADD PUSH0 DUP1 PUSH0 CALLER PUSH20 0xFFFFFFFFFFFFFFFFFFFFFFFFFFFFFFFFFFFFFFFF AND PUSH20 0xFFFFFFFFFFFFFFFFFFFFFFFFFFFFFFFFFFFFFFFF AND DUP2 MSTORE PUSH1 0x20 ADD SWAP1 DUP2 MSTORE PUSH1 0x20 ADD PUSH0 KECCAK256 PUSH1 0x3 ADD SLOAD DUP2 MSTORE PUSH1 0x20 ADD SWAP1 DUP2 MSTORE PUSH1 0x20 ADD PUSH0 KECCAK256 PUSH0 DUP3 ADD MLOAD DUP2 PUSH0 ADD SSTORE PUSH1 0x20 DUP3 ADD MLOAD DUP2 PUSH1 0x1 ADD SSTORE SWAP1 POP POP PUSH0 DUP1 CALLER PUSH20 0xFFFFFFFFFFFFFFFFFFFFFFFFFFFFFFFFFFFFFFFF AND PUSH20 0xFFFFFFFFFFFFFFFFFFFFFFFFFFFFFFFFFFFFFFFF AND DUP2 MSTORE PUSH1 0x20 ADD SWAP1 DUP2 MSTORE PUSH1 0x20 ADD PUSH0 KECCAK256 PUSH1 0x3 ADD PUSH0 DUP2 SLOAD DUP1 SWAP3 SWAP2 SWAP1 PUSH2 0x271 SWAP1 PUSH2 0x725 JUMP JUMPDEST SWAP2 SWAP1 POP SSTORE POP DUP3 PUSH20 0xFFFFFFFFFFFFFFFFFFFFFFFFFFFFFFFFFFFFFFFF AND PUSH2 0x8FC DUP4 SWAP1 DUP2 ISZERO MUL SWAP1 PUSH1 0x40 MLOAD PUSH0 PUSH1 0x40 MLOAD DUP1 DUP4 SUB DUP2 DUP6 DUP9 DUP9 CALL SWAP4 POP POP POP POP ISZERO DUP1 ISZERO PUSH2 0x2B9 JUMPI RETURNDATASIZE PUSH0 DUP1 RETURNDATACOPY RETURNDATASIZE PUSH0 REVERT JUMPDEST POP POP POP POP JUMP JUMPDEST PUSH2 0x2C7 PUSH2 0x4A1 JUMP JUMPDEST PUSH0 DUP1 DUP5 PUSH20 0xFFFFFFFFFFFFFFFFFFFFFFFFFFFFFFFFFFFFFFFF AND PUSH20 0xFFFFFFFFFFFFFFFFFFFFFFFFFFFFFFFFFFFFFFFF AND DUP2 MSTORE PUSH1 0x20 ADD SWAP1 DUP2 MSTORE PUSH1 0x20 ADD PUSH0 KECCAK256 PUSH1 0x2 ADD PUSH0 DUP4 DUP2 MSTORE PUSH1 0x20 ADD SWAP1 DUP2 MSTORE PUSH1 0x20 ADD PUSH0 KECCAK256 PUSH1 0x40 MLOAD DUP1 PUSH1 0x40 ADD PUSH1 0x40 MSTORE SWAP1 DUP2 PUSH0 DUP3 ADD SLOAD DUP2 MSTORE PUSH1 0x20 ADD PUSH1 0x1 DUP3 ADD SLOAD DUP2 MSTORE POP POP SWAP1 POP SWAP3 SWAP2 POP POP JUMP JUMPDEST CALLVALUE PUSH0 DUP1 CALLER PUSH20 0xFFFFFFFFFFFFFFFFFFFFFFFFFFFFFFFFFFFFFFFF AND PUSH20 0xFFFFFFFFFFFFFFFFFFFFFFFFFFFFFFFFFFFFFFFF AND DUP2 MSTORE PUSH1 0x20 ADD SWAP1 DUP2 MSTORE PUSH1 0x20 ADD PUSH0 KECCAK256 PUSH0 ADD PUSH0 DUP3 DUP3 SLOAD PUSH2 0x388 SWAP2 SWAP1 PUSH2 0x76C JUMP JUMPDEST SWAP3 POP POP DUP2 SWAP1 SSTORE POP PUSH0 PUSH1 0x40 MLOAD DUP1 PUSH1 0x40 ADD PUSH1 0x40 MSTORE DUP1 CALLVALUE DUP2 MSTORE PUSH1 0x20 ADD TIMESTAMP DUP2 MSTORE POP SWAP1 POP DUP1 PUSH0 DUP1 CALLER PUSH20 0xFFFFFFFFFFFFFFFFFFFFFFFFFFFFFFFFFFFFFFFF AND PUSH20 0xFFFFFFFFFFFFFFFFFFFFFFFFFFFFFFFFFFFFFFFF AND DUP2 MSTORE PUSH1 0x20 ADD SWAP1 DUP2 MSTORE PUSH1 0x20 ADD PUSH0 KECCAK256 PUSH1 0x2 ADD PUSH0 DUP1 PUSH0 CALLER PUSH20 0xFFFFFFFFFFFFFFFFFFFFFFFFFFFFFFFFFFFFFFFF AND PUSH20 0xFFFFFFFFFFFFFFFFFFFFFFFFFFFFFFFFFFFFFFFF AND DUP2 MSTORE PUSH1 0x20 ADD SWAP1 DUP2 MSTORE PUSH1 0x20 ADD PUSH0 KECCAK256 PUSH1 0x1 ADD SLOAD DUP2 MSTORE PUSH1 0x20 ADD SWAP1 DUP2 MSTORE PUSH1 0x20 ADD PUSH0 KECCAK256 PUSH0 DUP3 ADD MLOAD DUP2 PUSH0 ADD SSTORE PUSH1 0x20 DUP3 ADD MLOAD DUP2 PUSH1 0x1 ADD SSTORE SWAP1 POP POP PUSH0 DUP1 CALLER PUSH20 0xFFFFFFFFFFFFFFFFFFFFFFFFFFFFFFFFFFFFFFFF AND PUSH20 0xFFFFFFFFFFFFFFFFFFFFFFFFFFFFFFFFFFFFFFFF AND DUP2 MSTORE PUSH1 0x20 ADD SWAP1 DUP2 MSTORE PUSH1 0x20 ADD PUSH0 KECCAK256 PUSH1 0x1 ADD PUSH0 DUP2 SLOAD DUP1 SWAP3 SWAP2 SWAP1 PUSH2 0x499 SWAP1 PUSH2 0x725 JUMP JUMPDEST SWAP2 SWAP1 POP SSTORE POP POP JUMP JUMPDEST PUSH1 0x40 MLOAD DUP1 PUSH1 0x40 ADD PUSH1 0x40 MSTORE DUP1 PUSH0 DUP2 MSTORE PUSH1 0x20 ADD PUSH0 DUP2 MSTORE POP SWAP1 JUMP JUMPDEST PUSH0 DUP1 REVERT JUMPDEST PUSH0 PUSH20 0xFFFFFFFFFFFFFFFFFFFFFFFFFFFFFFFFFFFFFFFF DUP3 AND SWAP1 POP SWAP2 SWAP1 POP JUMP JUMPDEST PUSH0 PUSH2 0x4E6 DUP3 PUSH2 0x4BD JUMP JUMPDEST SWAP1 POP SWAP2 SWAP1 POP JUMP JUMPDEST PUSH2 0x4F6 DUP2 PUSH2 0x4DC JUMP JUMPDEST DUP2 EQ PUSH2 0x500 JUMPI PUSH0 DUP1 REVERT JUMPDEST POP JUMP JUMPDEST PUSH0 DUP2 CALLDATALOAD SWAP1 POP PUSH2 0x511 DUP2 PUSH2 0x4ED JUMP JUMPDEST SWAP3 SWAP2 POP POP JUMP JUMPDEST PUSH0 PUSH1 0x20 DUP3 DUP5 SUB SLT ISZERO PUSH2 0x52C JUMPI PUSH2 0x52B PUSH2 0x4B9 JUMP JUMPDEST JUMPDEST PUSH0 PUSH2 0x539 DUP5 DUP3 DUP6 ADD PUSH2 0x503 JUMP JUMPDEST SWAP2 POP POP SWAP3 SWAP2 POP POP JUMP JUMPDEST PUSH0 DUP2 SWAP1 POP SWAP2 SWAP1 POP JUMP JUMPDEST PUSH2 0x554 DUP2 PUSH2 0x542 JUMP JUMPDEST DUP3 MSTORE POP POP JUMP JUMPDEST PUSH0 PUSH1 0x60 DUP3 ADD SWAP1 POP PUSH2 0x56D PUSH0 DUP4 ADD DUP7 PUSH2 0x54B JUMP JUMPDEST PUSH2 0x57A PUSH1 0x20 DUP4 ADD DUP6 PUSH2 0x54B JUMP JUMPDEST PUSH2 0x587 PUSH1 0x40 DUP4 ADD DUP5 PUSH2 0x54B JUMP JUMPDEST SWAP5 SWAP4 POP POP POP POP JUMP JUMPDEST PUSH0 PUSH2 0x599 DUP3 PUSH2 0x4BD JUMP JUMPDEST SWAP1 POP SWAP2 SWAP1 POP JUMP JUMPDEST PUSH2 0x5A9 DUP2 PUSH2 0x58F JUMP JUMPDEST DUP2 EQ PUSH2 0x5B3 JUMPI PUSH0 DUP1 REVERT JUMPDEST POP JUMP JUMPDEST PUSH0 DUP2 CALLDATALOAD SWAP1 POP PUSH2 0x5C4 DUP2 PUSH2 0x5A0 JUMP JUMPDEST SWAP3 SWAP2 POP POP JUMP JUMPDEST PUSH2 0x5D3 DUP2 PUSH2 0x542 JUMP JUMPDEST DUP2 EQ PUSH2 0x5DD JUMPI PUSH0 DUP1 REVERT JUMPDEST POP JUMP JUMPDEST PUSH0 DUP2 CALLDATALOAD SWAP1 POP PUSH2 0x5EE DUP2 PUSH2 0x5CA JUMP JUMPDEST SWAP3 SWAP2 POP POP JUMP JUMPDEST PUSH0 DUP1 PUSH1 0x40 DUP4 DUP6 SUB SLT ISZERO PUSH2 0x60A JUMPI PUSH2 0x609 PUSH2 0x4B9 JUMP JUMPDEST JUMPDEST PUSH0 PUSH2 0x617 DUP6 DUP3 DUP7 ADD PUSH2 0x5B6 JUMP JUMPDEST SWAP3 POP POP PUSH1 0x20 PUSH2 0x628 DUP6 DUP3 DUP7 ADD PUSH2 0x5E0 JUMP JUMPDEST SWAP2 POP POP SWAP3 POP SWAP3 SWAP1 POP JUMP JUMPDEST PUSH0 DUP1 PUSH1 0x40 DUP4 DUP6 SUB SLT ISZERO PUSH2 0x648 JUMPI PUSH2 0x647 PUSH2 0x4B9 JUMP JUMPDEST JUMPDEST PUSH0 PUSH2 0x655 DUP6 DUP3 DUP7 ADD PUSH2 0x503 JUMP JUMPDEST SWAP3 POP POP PUSH1 0x20 PUSH2 0x666 DUP6 DUP3 DUP7 ADD PUSH2 0x5E0 JUMP JUMPDEST SWAP2 POP POP SWAP3 POP SWAP3 SWAP1 POP JUMP JUMPDEST PUSH2 0x679 DUP2 PUSH2 0x542 JUMP JUMPDEST DUP3 MSTORE POP POP JUMP JUMPDEST PUSH1 0x40 DUP3 ADD PUSH0 DUP3 ADD MLOAD PUSH2 0x693 PUSH0 DUP6 ADD DUP3 PUSH2 0x670 JUMP JUMPDEST POP PUSH1 0x20 DUP3 ADD MLOAD PUSH2 0x6A6 PUSH1 0x20 DUP6 ADD DUP3 PUSH2 0x670 JUMP JUMPDEST POP POP POP POP JUMP JUMPDEST PUSH0 PUSH1 0x40 DUP3 ADD SWAP1 POP PUSH2 0x6BF PUSH0 DUP4 ADD DUP5 PUSH2 0x67F JUMP JUMPDEST SWAP3 SWAP2 POP POP JUMP JUMPDEST PUSH32 0x4E487B7100000000000000000000000000000000000000000000000000000000 PUSH0 MSTORE PUSH1 0x11 PUSH1 0x4 MSTORE PUSH1 0x24 PUSH0 REVERT JUMPDEST PUSH0 PUSH2 0x6FC DUP3 PUSH2 0x542 JUMP JUMPDEST SWAP2 POP PUSH2 0x707 DUP4 PUSH2 0x542 JUMP JUMPDEST SWAP3 POP DUP3 DUP3 SUB SWAP1 POP DUP2 DUP2 GT ISZERO PUSH2 0x71F JUMPI PUSH2 0x71E PUSH2 0x6C5 JUMP JUMPDEST JUMPDEST SWAP3 SWAP2 POP POP JUMP JUMPDEST PUSH0 PUSH2 0x72F DUP3 PUSH2 0x542 JUMP JUMPDEST SWAP2 POP PUSH32 0xFFFFFFFFFFFFFFFFFFFFFFFFFFFFFFFFFFFFFFFFFFFFFFFFFFFFFFFFFFFFFFFF DUP3 SUB PUSH2 0x761 JUMPI PUSH2 0x760 PUSH2 0x6C5 JUMP JUMPDEST JUMPDEST PUSH1 0x1 DUP3 ADD SWAP1 POP SWAP2 SWAP1 POP JUMP JUMPDEST PUSH0 PUSH2 0x776 DUP3 PUSH2 0x542 JUMP JUMPDEST SWAP2 POP PUSH2 0x781 DUP4 PUSH2 0x542 JUMP JUMPDEST SWAP3 POP DUP3 DUP3 ADD SWAP1 POP DUP1 DUP3 GT ISZERO PUSH2 0x799 JUMPI PUSH2 0x798 PUSH2 0x6C5 JUMP JUMPDEST JUMPDEST SWAP3 SWAP2 POP POP JUMP INVALID LOG2 PUSH5 0x6970667358 0x22 SLT KECCAK256 0xBB 0xBC SWAP13 0xA6 0xE9 AND 0xE8 0xCF 0x4D SWAP4 0x28 NOT PUSH1 0x88 0xC0 MOD CALLCODE PUSH7 0x9EB7A5FF8BC831 0x1F 0xA5 0xBB PUSH12 0xF4104C64736F6C634300081A STOP CALLER "
				},
				"gasEstimates": {
					"creation": {
						"codeDepositCost": "401000",
						"executionCost": "434",
						"totalCost": "401434"
					},
					"external": {
						"balances(address)": "infinite",
						"depositETH()": "infinite",
						"getDepositNum(address,uint256)": "infinite",
						"withdrawETH(address,uint256)": "infinite"
					}
				},
				"methodIdentifiers": {
					"balances(address)": "27e235e3",
					"depositETH()": "f6326fb3",
					"getDepositNum(address,uint256)": "55e14fe6",
					"withdrawETH(address,uint256)": "4782f779"
				}
			},
			"storageLayout": {
				"storage": [
					{
						"astId": 28,
						"contract": "contracts/mappingStructWallet.sol:structWallet",
						"label": "balances",
						"offset": 0,
						"slot": "0",
						"type": "t_mapping(t_address,t_struct(Balance)23_storage)"
					}
				],
				"types": {
					"t_address": {
						"encoding": "inplace",
						"label": "address",
						"numberOfBytes": "20"
					},
					"t_mapping(t_address,t_struct(Balance)23_storage)": {
						"encoding": "mapping",
						"key": "t_address",
						"label": "mapping(address => struct structWallet.Balance)",
						"numberOfBytes": "32",
						"value": "t_struct(Balance)23_storage"
					},
					"t_mapping(t_uint256,t_struct(Transaction)6_storage)": {
						"encoding": "mapping",
						"key": "t_uint256",
						"label": "mapping(uint256 => struct structWallet.Transaction)",
						"numberOfBytes": "32",
						"value": "t_struct(Transaction)6_storage"
					},
					"t_struct(Balance)23_storage": {
						"encoding": "inplace",
						"label": "struct structWallet.Balance",
						"members": [
							{
								"astId": 8,
								"contract": "contracts/mappingStructWallet.sol:structWallet",
								"label": "totalBalance",
								"offset": 0,
								"slot": "0",
								"type": "t_uint256"
							},
							{
								"astId": 10,
								"contract": "contracts/mappingStructWallet.sol:structWallet",
								"label": "numOfDeposits",
								"offset": 0,
								"slot": "1",
								"type": "t_uint256"
							},
							{
								"astId": 15,
								"contract": "contracts/mappingStructWallet.sol:structWallet",
								"label": "deposits",
								"offset": 0,
								"slot": "2",
								"type": "t_mapping(t_uint256,t_struct(Transaction)6_storage)"
							},
							{
								"astId": 17,
								"contract": "contracts/mappingStructWallet.sol:structWallet",
								"label": "numOfWithdraws",
								"offset": 0,
								"slot": "3",
								"type": "t_uint256"
							},
							{
								"astId": 22,
								"contract": "contracts/mappingStructWallet.sol:structWallet",
								"label": "withdrawls",
								"offset": 0,
								"slot": "4",
								"type": "t_mapping(t_uint256,t_struct(Transaction)6_storage)"
							}
						],
						"numberOfBytes": "160"
					},
					"t_struct(Transaction)6_storage": {
						"encoding": "inplace",
						"label": "struct structWallet.Transaction",
						"members": [
							{
								"astId": 3,
								"contract": "contracts/mappingStructWallet.sol:structWallet",
								"label": "amount",
								"offset": 0,
								"slot": "0",
								"type": "t_uint256"
							},
							{
								"astId": 5,
								"contract": "contracts/mappingStructWallet.sol:structWallet",
								"label": "timeStamp",
								"offset": 0,
								"slot": "1",
								"type": "t_uint256"
							}
						],
						"numberOfBytes": "64"
					},
					"t_uint256": {
						"encoding": "inplace",
						"label": "uint256",
						"numberOfBytes": "32"
					}
				}
			},
			"userdoc": {
				"kind": "user",
				"methods": {},
				"version": 1
			}
		}
	}
}