{
	"contracts/walletSC.sol": {
		"Wallet": {
			"abi": [
				{
					"inputs": [
						{
							"internalType": "string",
							"name": "_userName",
							"type": "string"
						},
						{
							"internalType": "string",
							"name": "_passWord",
							"type": "string"
						}
					],
					"stateMutability": "nonpayable",
					"type": "constructor"
				},
				{
					"anonymous": false,
					"inputs": [
						{
							"indexed": false,
							"internalType": "address",
							"name": "user",
							"type": "address"
						}
					],
					"name": "loginSuccess",
					"type": "event"
				},
				{
					"inputs": [
						{
							"internalType": "string",
							"name": "_userName",
							"type": "string"
						},
						{
							"internalType": "string",
							"name": "_passWord",
							"type": "string"
						}
					],
					"name": "login",
					"outputs": [],
					"stateMutability": "nonpayable",
					"type": "function"
				},
				{
					"inputs": [],
					"name": "owner",
					"outputs": [
						{
							"internalType": "address",
							"name": "",
							"type": "address"
						}
					],
					"stateMutability": "view",
					"type": "function"
				},
				{
					"inputs": [],
					"name": "passWordHash",
					"outputs": [
						{
							"internalType": "bytes32",
							"name": "",
							"type": "bytes32"
						}
					],
					"stateMutability": "view",
					"type": "function"
				},
				{
					"inputs": [],
					"name": "userNameHash",
					"outputs": [
						{
							"internalType": "bytes32",
							"name": "",
							"type": "bytes32"
						}
					],
					"stateMutability": "view",
					"type": "function"
				}
			],
			"devdoc": {
				"kind": "dev",
				"methods": {},
				"version": 1
			},
			"evm": {
				"assembly": "    /* \"contracts/walletSC.sol\":60:759  contract Wallet {... */\n  mstore(0x40, 0x80)\n    /* \"contracts/walletSC.sol\":180:407  constructor(string memory _userName, string memory _passWord) {... */\n  callvalue\n  dup1\n  iszero\n  tag_1\n  jumpi\n  0x00\n  dup1\n  revert\ntag_1:\n  pop\n  mload(0x40)\n  sub(codesize, bytecodeSize)\n  dup1\n  bytecodeSize\n  dup4\n  codecopy\n  dup2\n  dup2\n  add\n  0x40\n  mstore\n  dup2\n  add\n  swap1\n  tag_2\n  swap2\n  swap1\n  tag_3\n  jump\t// in\ntag_2:\n    /* \"contracts/walletSC.sol\":261:271  msg.sender */\n  caller\n    /* \"contracts/walletSC.sol\":253:258  owner */\n  0x00\n  dup1\n    /* \"contracts/walletSC.sol\":253:271  owner = msg.sender */\n  0x0100\n  exp\n  dup2\n  sload\n  dup2\n  0xffffffffffffffffffffffffffffffffffffffff\n  mul\n  not\n  and\n  swap1\n  dup4\n  0xffffffffffffffffffffffffffffffffffffffff\n  and\n  mul\n  or\n  swap1\n  sstore\n  pop\n    /* \"contracts/walletSC.sol\":324:333  _userName */\n  dup2\n    /* \"contracts/walletSC.sol\":307:334  abi.encodePacked(_userName) */\n  add(0x20, mload(0x40))\n  tag_6\n  swap2\n  swap1\n  tag_7\n  jump\t// in\ntag_6:\n  mload(0x40)\n  0x20\n  dup2\n  dup4\n  sub\n  sub\n  dup2\n  mstore\n  swap1\n  0x40\n  mstore\n    /* \"contracts/walletSC.sol\":297:335  keccak256(abi.encodePacked(_userName)) */\n  dup1\n  mload\n  swap1\n  0x20\n  add\n  keccak256\n    /* \"contracts/walletSC.sol\":282:294  userNameHash */\n  0x01\n    /* \"contracts/walletSC.sol\":282:335  userNameHash = keccak256(abi.encodePacked(_userName)) */\n  dup2\n  swap1\n  sstore\n  pop\n    /* \"contracts/walletSC.sol\":388:397  _passWord */\n  dup1\n    /* \"contracts/walletSC.sol\":371:398  abi.encodePacked(_passWord) */\n  add(0x20, mload(0x40))\n  tag_8\n  swap2\n  swap1\n  tag_7\n  jump\t// in\ntag_8:\n  mload(0x40)\n  0x20\n  dup2\n  dup4\n  sub\n  sub\n  dup2\n  mstore\n  swap1\n  0x40\n  mstore\n    /* \"contracts/walletSC.sol\":361:399  keccak256(abi.encodePacked(_passWord)) */\n  dup1\n  mload\n  swap1\n  0x20\n  add\n  keccak256\n    /* \"contracts/walletSC.sol\":346:358  passWordHash */\n  0x02\n    /* \"contracts/walletSC.sol\":346:399  passWordHash = keccak256(abi.encodePacked(_passWord)) */\n  dup2\n  swap1\n  sstore\n  pop\n    /* \"contracts/walletSC.sol\":180:407  constructor(string memory _userName, string memory _passWord) {... */\n  pop\n  pop\n    /* \"contracts/walletSC.sol\":60:759  contract Wallet {... */\n  jump(tag_9)\n    /* \"#utility.yul\":7:82   */\ntag_10:\n    /* \"#utility.yul\":40:46   */\n  0x00\n    /* \"#utility.yul\":73:75   */\n  0x40\n    /* \"#utility.yul\":67:76   */\n  mload\n    /* \"#utility.yul\":57:76   */\n  swap1\n  pop\n    /* \"#utility.yul\":7:82   */\n  swap1\n  jump\t// out\n    /* \"#utility.yul\":88:205   */\ntag_11:\n    /* \"#utility.yul\":197:198   */\n  0x00\n    /* \"#utility.yul\":194:195   */\n  dup1\n    /* \"#utility.yul\":187:199   */\n  revert\n    /* \"#utility.yul\":211:328   */\ntag_12:\n    /* \"#utility.yul\":320:321   */\n  0x00\n    /* \"#utility.yul\":317:318   */\n  dup1\n    /* \"#utility.yul\":310:322   */\n  revert\n    /* \"#utility.yul\":334:451   */\ntag_13:\n    /* \"#utility.yul\":443:444   */\n  0x00\n    /* \"#utility.yul\":440:441   */\n  dup1\n    /* \"#utility.yul\":433:445   */\n  revert\n    /* \"#utility.yul\":457:574   */\ntag_14:\n    /* \"#utility.yul\":566:567   */\n  0x00\n    /* \"#utility.yul\":563:564   */\n  dup1\n    /* \"#utility.yul\":556:568   */\n  revert\n    /* \"#utility.yul\":580:682   */\ntag_15:\n    /* \"#utility.yul\":621:627   */\n  0x00\n    /* \"#utility.yul\":672:674   */\n  0x1f\n    /* \"#utility.yul\":668:675   */\n  not\n    /* \"#utility.yul\":663:665   */\n  0x1f\n    /* \"#utility.yul\":656:661   */\n  dup4\n    /* \"#utility.yul\":652:666   */\n  add\n    /* \"#utility.yul\":648:676   */\n  and\n    /* \"#utility.yul\":638:676   */\n  swap1\n  pop\n    /* \"#utility.yul\":580:682   */\n  swap2\n  swap1\n  pop\n  jump\t// out\n    /* \"#utility.yul\":688:868   */\ntag_16:\n    /* \"#utility.yul\":736:813   */\n  0x4e487b7100000000000000000000000000000000000000000000000000000000\n    /* \"#utility.yul\":733:734   */\n  0x00\n    /* \"#utility.yul\":726:814   */\n  mstore\n    /* \"#utility.yul\":833:837   */\n  0x41\n    /* \"#utility.yul\":830:831   */\n  0x04\n    /* \"#utility.yul\":823:838   */\n  mstore\n    /* \"#utility.yul\":857:861   */\n  0x24\n    /* \"#utility.yul\":854:855   */\n  0x00\n    /* \"#utility.yul\":847:862   */\n  revert\n    /* \"#utility.yul\":874:1155   */\ntag_17:\n    /* \"#utility.yul\":957:984   */\n  tag_35\n    /* \"#utility.yul\":979:983   */\n  dup3\n    /* \"#utility.yul\":957:984   */\n  tag_15\n  jump\t// in\ntag_35:\n    /* \"#utility.yul\":949:955   */\n  dup2\n    /* \"#utility.yul\":945:985   */\n  add\n    /* \"#utility.yul\":1087:1093   */\n  dup2\n    /* \"#utility.yul\":1075:1085   */\n  dup2\n    /* \"#utility.yul\":1072:1094   */\n  lt\n    /* \"#utility.yul\":1051:1069   */\n  0xffffffffffffffff\n    /* \"#utility.yul\":1039:1049   */\n  dup3\n    /* \"#utility.yul\":1036:1070   */\n  gt\n    /* \"#utility.yul\":1033:1095   */\n  or\n    /* \"#utility.yul\":1030:1118   */\n  iszero\n  tag_36\n  jumpi\n    /* \"#utility.yul\":1098:1116   */\n  tag_37\n  tag_16\n  jump\t// in\ntag_37:\n    /* \"#utility.yul\":1030:1118   */\ntag_36:\n    /* \"#utility.yul\":1138:1148   */\n  dup1\n    /* \"#utility.yul\":1134:1136   */\n  0x40\n    /* \"#utility.yul\":1127:1149   */\n  mstore\n    /* \"#utility.yul\":917:1155   */\n  pop\n    /* \"#utility.yul\":874:1155   */\n  pop\n  pop\n  jump\t// out\n    /* \"#utility.yul\":1161:1290   */\ntag_18:\n    /* \"#utility.yul\":1195:1201   */\n  0x00\n    /* \"#utility.yul\":1222:1242   */\n  tag_39\n  tag_10\n  jump\t// in\ntag_39:\n    /* \"#utility.yul\":1212:1242   */\n  swap1\n  pop\n    /* \"#utility.yul\":1251:1284   */\n  tag_40\n    /* \"#utility.yul\":1279:1283   */\n  dup3\n    /* \"#utility.yul\":1271:1277   */\n  dup3\n    /* \"#utility.yul\":1251:1284   */\n  tag_17\n  jump\t// in\ntag_40:\n    /* \"#utility.yul\":1161:1290   */\n  swap2\n  swap1\n  pop\n  jump\t// out\n    /* \"#utility.yul\":1296:1604   */\ntag_19:\n    /* \"#utility.yul\":1358:1362   */\n  0x00\n    /* \"#utility.yul\":1448:1466   */\n  0xffffffffffffffff\n    /* \"#utility.yul\":1440:1446   */\n  dup3\n    /* \"#utility.yul\":1437:1467   */\n  gt\n    /* \"#utility.yul\":1434:1490   */\n  iszero\n  tag_42\n  jumpi\n    /* \"#utility.yul\":1470:1488   */\n  tag_43\n  tag_16\n  jump\t// in\ntag_43:\n    /* \"#utility.yul\":1434:1490   */\ntag_42:\n    /* \"#utility.yul\":1508:1537   */\n  tag_44\n    /* \"#utility.yul\":1530:1536   */\n  dup3\n    /* \"#utility.yul\":1508:1537   */\n  tag_15\n  jump\t// in\ntag_44:\n    /* \"#utility.yul\":1500:1537   */\n  swap1\n  pop\n    /* \"#utility.yul\":1592:1596   */\n  0x20\n    /* \"#utility.yul\":1586:1590   */\n  dup2\n    /* \"#utility.yul\":1582:1597   */\n  add\n    /* \"#utility.yul\":1574:1597   */\n  swap1\n  pop\n    /* \"#utility.yul\":1296:1604   */\n  swap2\n  swap1\n  pop\n  jump\t// out\n    /* \"#utility.yul\":1610:1749   */\ntag_20:\n    /* \"#utility.yul\":1699:1705   */\n  dup3\n    /* \"#utility.yul\":1694:1697   */\n  dup2\n    /* \"#utility.yul\":1689:1692   */\n  dup4\n    /* \"#utility.yul\":1683:1706   */\n  mcopy\n    /* \"#utility.yul\":1740:1741   */\n  0x00\n    /* \"#utility.yul\":1731:1737   */\n  dup4\n    /* \"#utility.yul\":1726:1729   */\n  dup4\n    /* \"#utility.yul\":1722:1738   */\n  add\n    /* \"#utility.yul\":1715:1742   */\n  mstore\n    /* \"#utility.yul\":1610:1749   */\n  pop\n  pop\n  pop\n  jump\t// out\n    /* \"#utility.yul\":1755:2189   */\ntag_21:\n    /* \"#utility.yul\":1844:1849   */\n  0x00\n    /* \"#utility.yul\":1869:1935   */\n  tag_47\n    /* \"#utility.yul\":1885:1934   */\n  tag_48\n    /* \"#utility.yul\":1927:1933   */\n  dup5\n    /* \"#utility.yul\":1885:1934   */\n  tag_19\n  jump\t// in\ntag_48:\n    /* \"#utility.yul\":1869:1935   */\n  tag_18\n  jump\t// in\ntag_47:\n    /* \"#utility.yul\":1860:1935   */\n  swap1\n  pop\n    /* \"#utility.yul\":1958:1964   */\n  dup3\n    /* \"#utility.yul\":1951:1956   */\n  dup2\n    /* \"#utility.yul\":1944:1965   */\n  mstore\n    /* \"#utility.yul\":1996:2000   */\n  0x20\n    /* \"#utility.yul\":1989:1994   */\n  dup2\n    /* \"#utility.yul\":1985:2001   */\n  add\n    /* \"#utility.yul\":2034:2037   */\n  dup5\n    /* \"#utility.yul\":2025:2031   */\n  dup5\n    /* \"#utility.yul\":2020:2023   */\n  dup5\n    /* \"#utility.yul\":2016:2032   */\n  add\n    /* \"#utility.yul\":2013:2038   */\n  gt\n    /* \"#utility.yul\":2010:2122   */\n  iszero\n  tag_49\n  jumpi\n    /* \"#utility.yul\":2041:2120   */\n  tag_50\n  tag_14\n  jump\t// in\ntag_50:\n    /* \"#utility.yul\":2010:2122   */\ntag_49:\n    /* \"#utility.yul\":2131:2183   */\n  tag_51\n    /* \"#utility.yul\":2176:2182   */\n  dup5\n    /* \"#utility.yul\":2171:2174   */\n  dup3\n    /* \"#utility.yul\":2166:2169   */\n  dup6\n    /* \"#utility.yul\":2131:2183   */\n  tag_20\n  jump\t// in\ntag_51:\n    /* \"#utility.yul\":1850:2189   */\n  pop\n    /* \"#utility.yul\":1755:2189   */\n  swap4\n  swap3\n  pop\n  pop\n  pop\n  jump\t// out\n    /* \"#utility.yul\":2209:2564   */\ntag_22:\n    /* \"#utility.yul\":2276:2281   */\n  0x00\n    /* \"#utility.yul\":2325:2328   */\n  dup3\n    /* \"#utility.yul\":2318:2322   */\n  0x1f\n    /* \"#utility.yul\":2310:2316   */\n  dup4\n    /* \"#utility.yul\":2306:2323   */\n  add\n    /* \"#utility.yul\":2302:2329   */\n  slt\n    /* \"#utility.yul\":2292:2414   */\n  tag_53\n  jumpi\n    /* \"#utility.yul\":2333:2412   */\n  tag_54\n  tag_13\n  jump\t// in\ntag_54:\n    /* \"#utility.yul\":2292:2414   */\ntag_53:\n    /* \"#utility.yul\":2443:2449   */\n  dup2\n    /* \"#utility.yul\":2437:2450   */\n  mload\n    /* \"#utility.yul\":2468:2558   */\n  tag_55\n    /* \"#utility.yul\":2554:2557   */\n  dup5\n    /* \"#utility.yul\":2546:2552   */\n  dup3\n    /* \"#utility.yul\":2539:2543   */\n  0x20\n    /* \"#utility.yul\":2531:2537   */\n  dup7\n    /* \"#utility.yul\":2527:2544   */\n  add\n    /* \"#utility.yul\":2468:2558   */\n  tag_21\n  jump\t// in\ntag_55:\n    /* \"#utility.yul\":2459:2558   */\n  swap2\n  pop\n    /* \"#utility.yul\":2282:2564   */\n  pop\n    /* \"#utility.yul\":2209:2564   */\n  swap3\n  swap2\n  pop\n  pop\n  jump\t// out\n    /* \"#utility.yul\":2570:3423   */\ntag_3:\n    /* \"#utility.yul\":2669:2675   */\n  0x00\n    /* \"#utility.yul\":2677:2683   */\n  dup1\n    /* \"#utility.yul\":2726:2728   */\n  0x40\n    /* \"#utility.yul\":2714:2723   */\n  dup4\n    /* \"#utility.yul\":2705:2712   */\n  dup6\n    /* \"#utility.yul\":2701:2724   */\n  sub\n    /* \"#utility.yul\":2697:2729   */\n  slt\n    /* \"#utility.yul\":2694:2813   */\n  iszero\n  tag_57\n  jumpi\n    /* \"#utility.yul\":2732:2811   */\n  tag_58\n  tag_11\n  jump\t// in\ntag_58:\n    /* \"#utility.yul\":2694:2813   */\ntag_57:\n    /* \"#utility.yul\":2873:2874   */\n  0x00\n    /* \"#utility.yul\":2862:2871   */\n  dup4\n    /* \"#utility.yul\":2858:2875   */\n  add\n    /* \"#utility.yul\":2852:2876   */\n  mload\n    /* \"#utility.yul\":2903:2921   */\n  0xffffffffffffffff\n    /* \"#utility.yul\":2895:2901   */\n  dup2\n    /* \"#utility.yul\":2892:2922   */\n  gt\n    /* \"#utility.yul\":2889:3006   */\n  iszero\n  tag_59\n  jumpi\n    /* \"#utility.yul\":2925:3004   */\n  tag_60\n  tag_12\n  jump\t// in\ntag_60:\n    /* \"#utility.yul\":2889:3006   */\ntag_59:\n    /* \"#utility.yul\":3030:3104   */\n  tag_61\n    /* \"#utility.yul\":3096:3103   */\n  dup6\n    /* \"#utility.yul\":3087:3093   */\n  dup3\n    /* \"#utility.yul\":3076:3085   */\n  dup7\n    /* \"#utility.yul\":3072:3094   */\n  add\n    /* \"#utility.yul\":3030:3104   */\n  tag_22\n  jump\t// in\ntag_61:\n    /* \"#utility.yul\":3020:3104   */\n  swap3\n  pop\n    /* \"#utility.yul\":2823:3114   */\n  pop\n    /* \"#utility.yul\":3174:3176   */\n  0x20\n    /* \"#utility.yul\":3163:3172   */\n  dup4\n    /* \"#utility.yul\":3159:3177   */\n  add\n    /* \"#utility.yul\":3153:3178   */\n  mload\n    /* \"#utility.yul\":3205:3223   */\n  0xffffffffffffffff\n    /* \"#utility.yul\":3197:3203   */\n  dup2\n    /* \"#utility.yul\":3194:3224   */\n  gt\n    /* \"#utility.yul\":3191:3308   */\n  iszero\n  tag_62\n  jumpi\n    /* \"#utility.yul\":3227:3306   */\n  tag_63\n  tag_12\n  jump\t// in\ntag_63:\n    /* \"#utility.yul\":3191:3308   */\ntag_62:\n    /* \"#utility.yul\":3332:3406   */\n  tag_64\n    /* \"#utility.yul\":3398:3405   */\n  dup6\n    /* \"#utility.yul\":3389:3395   */\n  dup3\n    /* \"#utility.yul\":3378:3387   */\n  dup7\n    /* \"#utility.yul\":3374:3396   */\n  add\n    /* \"#utility.yul\":3332:3406   */\n  tag_22\n  jump\t// in\ntag_64:\n    /* \"#utility.yul\":3322:3406   */\n  swap2\n  pop\n    /* \"#utility.yul\":3124:3416   */\n  pop\n    /* \"#utility.yul\":2570:3423   */\n  swap3\n  pop\n  swap3\n  swap1\n  pop\n  jump\t// out\n    /* \"#utility.yul\":3429:3528   */\ntag_23:\n    /* \"#utility.yul\":3481:3487   */\n  0x00\n    /* \"#utility.yul\":3515:3520   */\n  dup2\n    /* \"#utility.yul\":3509:3521   */\n  mload\n    /* \"#utility.yul\":3499:3521   */\n  swap1\n  pop\n    /* \"#utility.yul\":3429:3528   */\n  swap2\n  swap1\n  pop\n  jump\t// out\n    /* \"#utility.yul\":3534:3682   */\ntag_24:\n    /* \"#utility.yul\":3636:3647   */\n  0x00\n    /* \"#utility.yul\":3673:3676   */\n  dup2\n    /* \"#utility.yul\":3658:3676   */\n  swap1\n  pop\n    /* \"#utility.yul\":3534:3682   */\n  swap3\n  swap2\n  pop\n  pop\n  jump\t// out\n    /* \"#utility.yul\":3688:4078   */\ntag_25:\n    /* \"#utility.yul\":3794:3797   */\n  0x00\n    /* \"#utility.yul\":3822:3861   */\n  tag_68\n    /* \"#utility.yul\":3855:3860   */\n  dup3\n    /* \"#utility.yul\":3822:3861   */\n  tag_23\n  jump\t// in\ntag_68:\n    /* \"#utility.yul\":3877:3966   */\n  tag_69\n    /* \"#utility.yul\":3959:3965   */\n  dup2\n    /* \"#utility.yul\":3954:3957   */\n  dup6\n    /* \"#utility.yul\":3877:3966   */\n  tag_24\n  jump\t// in\ntag_69:\n    /* \"#utility.yul\":3870:3966   */\n  swap4\n  pop\n    /* \"#utility.yul\":3975:4040   */\n  tag_70\n    /* \"#utility.yul\":4033:4039   */\n  dup2\n    /* \"#utility.yul\":4028:4031   */\n  dup6\n    /* \"#utility.yul\":4021:4025   */\n  0x20\n    /* \"#utility.yul\":4014:4019   */\n  dup7\n    /* \"#utility.yul\":4010:4026   */\n  add\n    /* \"#utility.yul\":3975:4040   */\n  tag_20\n  jump\t// in\ntag_70:\n    /* \"#utility.yul\":4065:4071   */\n  dup1\n    /* \"#utility.yul\":4060:4063   */\n  dup5\n    /* \"#utility.yul\":4056:4072   */\n  add\n    /* \"#utility.yul\":4049:4072   */\n  swap2\n  pop\n    /* \"#utility.yul\":3798:4078   */\n  pop\n    /* \"#utility.yul\":3688:4078   */\n  swap3\n  swap2\n  pop\n  pop\n  jump\t// out\n    /* \"#utility.yul\":4084:4359   */\ntag_7:\n    /* \"#utility.yul\":4216:4219   */\n  0x00\n    /* \"#utility.yul\":4238:4333   */\n  tag_72\n    /* \"#utility.yul\":4329:4332   */\n  dup3\n    /* \"#utility.yul\":4320:4326   */\n  dup5\n    /* \"#utility.yul\":4238:4333   */\n  tag_25\n  jump\t// in\ntag_72:\n    /* \"#utility.yul\":4231:4333   */\n  swap2\n  pop\n    /* \"#utility.yul\":4350:4353   */\n  dup2\n    /* \"#utility.yul\":4343:4353   */\n  swap1\n  pop\n    /* \"#utility.yul\":4084:4359   */\n  swap3\n  swap2\n  pop\n  pop\n  jump\t// out\n    /* \"contracts/walletSC.sol\":60:759  contract Wallet {... */\ntag_9:\n  dataSize(sub_0)\n  dup1\n  dataOffset(sub_0)\n  0x00\n  codecopy\n  0x00\n  return\nstop\n\nsub_0: assembly {\n        /* \"contracts/walletSC.sol\":60:759  contract Wallet {... */\n      mstore(0x40, 0x80)\n      callvalue\n      dup1\n      iszero\n      tag_1\n      jumpi\n      0x00\n      dup1\n      revert\n    tag_1:\n      pop\n      jumpi(tag_2, lt(calldatasize, 0x04))\n      shr(0xe0, calldataload(0x00))\n      dup1\n      0x1459786f\n      eq\n      tag_3\n      jumpi\n      dup1\n      0x1dd17d9a\n      eq\n      tag_4\n      jumpi\n      dup1\n      0x58467dbc\n      eq\n      tag_5\n      jumpi\n      dup1\n      0x8da5cb5b\n      eq\n      tag_6\n      jumpi\n    tag_2:\n      0x00\n      dup1\n      revert\n        /* \"contracts/walletSC.sol\":110:137  bytes32 public userNameHash */\n    tag_3:\n      tag_7\n      tag_8\n      jump\t// in\n    tag_7:\n      mload(0x40)\n      tag_9\n      swap2\n      swap1\n      tag_10\n      jump\t// in\n    tag_9:\n      mload(0x40)\n      dup1\n      swap2\n      sub\n      swap1\n      return\n        /* \"contracts/walletSC.sol\":144:171  bytes32 public passWordHash */\n    tag_4:\n      tag_11\n      tag_12\n      jump\t// in\n    tag_11:\n      mload(0x40)\n      tag_13\n      swap2\n      swap1\n      tag_10\n      jump\t// in\n    tag_13:\n      mload(0x40)\n      dup1\n      swap2\n      sub\n      swap1\n      return\n        /* \"contracts/walletSC.sol\":456:756  function login(string calldata _userName, string calldata _passWord) public {... */\n    tag_5:\n      tag_14\n      0x04\n      dup1\n      calldatasize\n      sub\n      dup2\n      add\n      swap1\n      tag_15\n      swap2\n      swap1\n      tag_16\n      jump\t// in\n    tag_15:\n      tag_17\n      jump\t// in\n    tag_14:\n      stop\n        /* \"contracts/walletSC.sol\":83:103  address public owner */\n    tag_6:\n      tag_18\n      tag_19\n      jump\t// in\n    tag_18:\n      mload(0x40)\n      tag_20\n      swap2\n      swap1\n      tag_21\n      jump\t// in\n    tag_20:\n      mload(0x40)\n      dup1\n      swap2\n      sub\n      swap1\n      return\n        /* \"contracts/walletSC.sol\":110:137  bytes32 public userNameHash */\n    tag_8:\n      sload(0x01)\n      dup2\n      jump\t// out\n        /* \"contracts/walletSC.sol\":144:171  bytes32 public passWordHash */\n    tag_12:\n      sload(0x02)\n      dup2\n      jump\t// out\n        /* \"contracts/walletSC.sol\":456:756  function login(string calldata _userName, string calldata _passWord) public {... */\n    tag_17:\n        /* \"contracts/walletSC.sol\":589:598  _userName */\n      dup4\n      dup4\n        /* \"contracts/walletSC.sol\":572:599  abi.encodePacked(_userName) */\n      add(0x20, mload(0x40))\n      tag_23\n      swap3\n      swap2\n      swap1\n      tag_24\n      jump\t// in\n    tag_23:\n      mload(0x40)\n      0x20\n      dup2\n      dup4\n      sub\n      sub\n      dup2\n      mstore\n      swap1\n      0x40\n      mstore\n        /* \"contracts/walletSC.sol\":562:600  keccak256(abi.encodePacked(_userName)) */\n      dup1\n      mload\n      swap1\n      0x20\n      add\n      keccak256\n        /* \"contracts/walletSC.sol\":546:558  userNameHash */\n      sload(0x01)\n        /* \"contracts/walletSC.sol\":546:600  userNameHash == keccak256(abi.encodePacked(_userName)) */\n      eq\n        /* \"contracts/walletSC.sol\":546:658  userNameHash == keccak256(abi.encodePacked(_userName)) && passWordHash == keccak256(abi.encodePacked(_passWord)) */\n      dup1\n      iszero\n      tag_25\n      jumpi\n      pop\n        /* \"contracts/walletSC.sol\":647:656  _passWord */\n      dup2\n      dup2\n        /* \"contracts/walletSC.sol\":630:657  abi.encodePacked(_passWord) */\n      add(0x20, mload(0x40))\n      tag_26\n      swap3\n      swap2\n      swap1\n      tag_24\n      jump\t// in\n    tag_26:\n      mload(0x40)\n      0x20\n      dup2\n      dup4\n      sub\n      sub\n      dup2\n      mstore\n      swap1\n      0x40\n      mstore\n        /* \"contracts/walletSC.sol\":620:658  keccak256(abi.encodePacked(_passWord)) */\n      dup1\n      mload\n      swap1\n      0x20\n      add\n      keccak256\n        /* \"contracts/walletSC.sol\":604:616  passWordHash */\n      sload(0x02)\n        /* \"contracts/walletSC.sol\":604:658  passWordHash == keccak256(abi.encodePacked(_passWord)) */\n      eq\n        /* \"contracts/walletSC.sol\":546:658  userNameHash == keccak256(abi.encodePacked(_userName)) && passWordHash == keccak256(abi.encodePacked(_passWord)) */\n    tag_25:\n        /* \"contracts/walletSC.sol\":543:749  if(userNameHash == keccak256(abi.encodePacked(_userName)) && passWordHash == keccak256(abi.encodePacked(_passWord))) {... */\n      iszero\n      tag_27\n      jumpi\n        /* \"contracts/walletSC.sol\":683:693  msg.sender */\n      caller\n        /* \"contracts/walletSC.sol\":675:680  owner */\n      0x00\n      dup1\n        /* \"contracts/walletSC.sol\":675:693  owner = msg.sender */\n      0x0100\n      exp\n      dup2\n      sload\n      dup2\n      0xffffffffffffffffffffffffffffffffffffffff\n      mul\n      not\n      and\n      swap1\n      dup4\n      0xffffffffffffffffffffffffffffffffffffffff\n      and\n      mul\n      or\n      swap1\n      sstore\n      pop\n        /* \"contracts/walletSC.sol\":713:737  loginSuccess(msg.sender) */\n      0xb3d6eaef4d98b00494b288bda707c44ad54c7188038bdec442390a066533f490\n        /* \"contracts/walletSC.sol\":726:736  msg.sender */\n      caller\n        /* \"contracts/walletSC.sol\":713:737  loginSuccess(msg.sender) */\n      mload(0x40)\n      tag_28\n      swap2\n      swap1\n      tag_21\n      jump\t// in\n    tag_28:\n      mload(0x40)\n      dup1\n      swap2\n      sub\n      swap1\n      log1\n        /* \"contracts/walletSC.sol\":543:749  if(userNameHash == keccak256(abi.encodePacked(_userName)) && passWordHash == keccak256(abi.encodePacked(_passWord))) {... */\n    tag_27:\n        /* \"contracts/walletSC.sol\":456:756  function login(string calldata _userName, string calldata _passWord) public {... */\n      pop\n      pop\n      pop\n      pop\n      jump\t// out\n        /* \"contracts/walletSC.sol\":83:103  address public owner */\n    tag_19:\n      0x00\n      dup1\n      sload\n      swap1\n      0x0100\n      exp\n      swap1\n      div\n      0xffffffffffffffffffffffffffffffffffffffff\n      and\n      dup2\n      jump\t// out\n        /* \"#utility.yul\":7:84   */\n    tag_29:\n        /* \"#utility.yul\":44:51   */\n      0x00\n        /* \"#utility.yul\":73:78   */\n      dup2\n        /* \"#utility.yul\":62:78   */\n      swap1\n      pop\n        /* \"#utility.yul\":7:84   */\n      swap2\n      swap1\n      pop\n      jump\t// out\n        /* \"#utility.yul\":90:208   */\n    tag_30:\n        /* \"#utility.yul\":177:201   */\n      tag_47\n        /* \"#utility.yul\":195:200   */\n      dup2\n        /* \"#utility.yul\":177:201   */\n      tag_29\n      jump\t// in\n    tag_47:\n        /* \"#utility.yul\":172:175   */\n      dup3\n        /* \"#utility.yul\":165:202   */\n      mstore\n        /* \"#utility.yul\":90:208   */\n      pop\n      pop\n      jump\t// out\n        /* \"#utility.yul\":214:436   */\n    tag_10:\n        /* \"#utility.yul\":307:311   */\n      0x00\n        /* \"#utility.yul\":345:347   */\n      0x20\n        /* \"#utility.yul\":334:343   */\n      dup3\n        /* \"#utility.yul\":330:348   */\n      add\n        /* \"#utility.yul\":322:348   */\n      swap1\n      pop\n        /* \"#utility.yul\":358:429   */\n      tag_49\n        /* \"#utility.yul\":426:427   */\n      0x00\n        /* \"#utility.yul\":415:424   */\n      dup4\n        /* \"#utility.yul\":411:428   */\n      add\n        /* \"#utility.yul\":402:408   */\n      dup5\n        /* \"#utility.yul\":358:429   */\n      tag_30\n      jump\t// in\n    tag_49:\n        /* \"#utility.yul\":214:436   */\n      swap3\n      swap2\n      pop\n      pop\n      jump\t// out\n        /* \"#utility.yul\":523:640   */\n    tag_32:\n        /* \"#utility.yul\":632:633   */\n      0x00\n        /* \"#utility.yul\":629:630   */\n      dup1\n        /* \"#utility.yul\":622:634   */\n      revert\n        /* \"#utility.yul\":646:763   */\n    tag_33:\n        /* \"#utility.yul\":755:756   */\n      0x00\n        /* \"#utility.yul\":752:753   */\n      dup1\n        /* \"#utility.yul\":745:757   */\n      revert\n        /* \"#utility.yul\":769:886   */\n    tag_34:\n        /* \"#utility.yul\":878:879   */\n      0x00\n        /* \"#utility.yul\":875:876   */\n      dup1\n        /* \"#utility.yul\":868:880   */\n      revert\n        /* \"#utility.yul\":892:1009   */\n    tag_35:\n        /* \"#utility.yul\":1001:1002   */\n      0x00\n        /* \"#utility.yul\":998:999   */\n      dup1\n        /* \"#utility.yul\":991:1003   */\n      revert\n        /* \"#utility.yul\":1015:1132   */\n    tag_36:\n        /* \"#utility.yul\":1124:1125   */\n      0x00\n        /* \"#utility.yul\":1121:1122   */\n      dup1\n        /* \"#utility.yul\":1114:1126   */\n      revert\n        /* \"#utility.yul\":1152:1705   */\n    tag_37:\n        /* \"#utility.yul\":1210:1218   */\n      0x00\n        /* \"#utility.yul\":1220:1226   */\n      dup1\n        /* \"#utility.yul\":1270:1273   */\n      dup4\n        /* \"#utility.yul\":1263:1267   */\n      0x1f\n        /* \"#utility.yul\":1255:1261   */\n      dup5\n        /* \"#utility.yul\":1251:1268   */\n      add\n        /* \"#utility.yul\":1247:1274   */\n      slt\n        /* \"#utility.yul\":1237:1359   */\n      tag_57\n      jumpi\n        /* \"#utility.yul\":1278:1357   */\n      tag_58\n      tag_34\n      jump\t// in\n    tag_58:\n        /* \"#utility.yul\":1237:1359   */\n    tag_57:\n        /* \"#utility.yul\":1391:1397   */\n      dup3\n        /* \"#utility.yul\":1378:1398   */\n      calldataload\n        /* \"#utility.yul\":1368:1398   */\n      swap1\n      pop\n        /* \"#utility.yul\":1421:1439   */\n      0xffffffffffffffff\n        /* \"#utility.yul\":1413:1419   */\n      dup2\n        /* \"#utility.yul\":1410:1440   */\n      gt\n        /* \"#utility.yul\":1407:1524   */\n      iszero\n      tag_59\n      jumpi\n        /* \"#utility.yul\":1443:1522   */\n      tag_60\n      tag_35\n      jump\t// in\n    tag_60:\n        /* \"#utility.yul\":1407:1524   */\n    tag_59:\n        /* \"#utility.yul\":1557:1561   */\n      0x20\n        /* \"#utility.yul\":1549:1555   */\n      dup4\n        /* \"#utility.yul\":1545:1562   */\n      add\n        /* \"#utility.yul\":1533:1562   */\n      swap2\n      pop\n        /* \"#utility.yul\":1611:1614   */\n      dup4\n        /* \"#utility.yul\":1603:1607   */\n      0x01\n        /* \"#utility.yul\":1595:1601   */\n      dup3\n        /* \"#utility.yul\":1591:1608   */\n      mul\n        /* \"#utility.yul\":1581:1589   */\n      dup4\n        /* \"#utility.yul\":1577:1609   */\n      add\n        /* \"#utility.yul\":1574:1615   */\n      gt\n        /* \"#utility.yul\":1571:1699   */\n      iszero\n      tag_61\n      jumpi\n        /* \"#utility.yul\":1618:1697   */\n      tag_62\n      tag_36\n      jump\t// in\n    tag_62:\n        /* \"#utility.yul\":1571:1699   */\n    tag_61:\n        /* \"#utility.yul\":1152:1705   */\n      swap3\n      pop\n      swap3\n      swap1\n      pop\n      jump\t// out\n        /* \"#utility.yul\":1711:2585   */\n    tag_16:\n        /* \"#utility.yul\":1803:1809   */\n      0x00\n        /* \"#utility.yul\":1811:1817   */\n      dup1\n        /* \"#utility.yul\":1819:1825   */\n      0x00\n        /* \"#utility.yul\":1827:1833   */\n      dup1\n        /* \"#utility.yul\":1876:1878   */\n      0x40\n        /* \"#utility.yul\":1864:1873   */\n      dup6\n        /* \"#utility.yul\":1855:1862   */\n      dup8\n        /* \"#utility.yul\":1851:1874   */\n      sub\n        /* \"#utility.yul\":1847:1879   */\n      slt\n        /* \"#utility.yul\":1844:1963   */\n      iszero\n      tag_64\n      jumpi\n        /* \"#utility.yul\":1882:1961   */\n      tag_65\n      tag_32\n      jump\t// in\n    tag_65:\n        /* \"#utility.yul\":1844:1963   */\n    tag_64:\n        /* \"#utility.yul\":2030:2031   */\n      0x00\n        /* \"#utility.yul\":2019:2028   */\n      dup6\n        /* \"#utility.yul\":2015:2032   */\n      add\n        /* \"#utility.yul\":2002:2033   */\n      calldataload\n        /* \"#utility.yul\":2060:2078   */\n      0xffffffffffffffff\n        /* \"#utility.yul\":2052:2058   */\n      dup2\n        /* \"#utility.yul\":2049:2079   */\n      gt\n        /* \"#utility.yul\":2046:2163   */\n      iszero\n      tag_66\n      jumpi\n        /* \"#utility.yul\":2082:2161   */\n      tag_67\n      tag_33\n      jump\t// in\n    tag_67:\n        /* \"#utility.yul\":2046:2163   */\n    tag_66:\n        /* \"#utility.yul\":2195:2260   */\n      tag_68\n        /* \"#utility.yul\":2252:2259   */\n      dup8\n        /* \"#utility.yul\":2243:2249   */\n      dup3\n        /* \"#utility.yul\":2232:2241   */\n      dup9\n        /* \"#utility.yul\":2228:2250   */\n      add\n        /* \"#utility.yul\":2195:2260   */\n      tag_37\n      jump\t// in\n    tag_68:\n        /* \"#utility.yul\":2177:2260   */\n      swap5\n      pop\n      swap5\n      pop\n        /* \"#utility.yul\":1973:2270   */\n      pop\n        /* \"#utility.yul\":2337:2339   */\n      0x20\n        /* \"#utility.yul\":2326:2335   */\n      dup6\n        /* \"#utility.yul\":2322:2340   */\n      add\n        /* \"#utility.yul\":2309:2341   */\n      calldataload\n        /* \"#utility.yul\":2368:2386   */\n      0xffffffffffffffff\n        /* \"#utility.yul\":2360:2366   */\n      dup2\n        /* \"#utility.yul\":2357:2387   */\n      gt\n        /* \"#utility.yul\":2354:2471   */\n      iszero\n      tag_69\n      jumpi\n        /* \"#utility.yul\":2390:2469   */\n      tag_70\n      tag_33\n      jump\t// in\n    tag_70:\n        /* \"#utility.yul\":2354:2471   */\n    tag_69:\n        /* \"#utility.yul\":2503:2568   */\n      tag_71\n        /* \"#utility.yul\":2560:2567   */\n      dup8\n        /* \"#utility.yul\":2551:2557   */\n      dup3\n        /* \"#utility.yul\":2540:2549   */\n      dup9\n        /* \"#utility.yul\":2536:2558   */\n      add\n        /* \"#utility.yul\":2503:2568   */\n      tag_37\n      jump\t// in\n    tag_71:\n        /* \"#utility.yul\":2485:2568   */\n      swap3\n      pop\n      swap3\n      pop\n        /* \"#utility.yul\":2280:2578   */\n      pop\n        /* \"#utility.yul\":1711:2585   */\n      swap3\n      swap6\n      swap2\n      swap5\n      pop\n      swap3\n      pop\n      jump\t// out\n        /* \"#utility.yul\":2591:2717   */\n    tag_38:\n        /* \"#utility.yul\":2628:2635   */\n      0x00\n        /* \"#utility.yul\":2668:2710   */\n      0xffffffffffffffffffffffffffffffffffffffff\n        /* \"#utility.yul\":2661:2666   */\n      dup3\n        /* \"#utility.yul\":2657:2711   */\n      and\n        /* \"#utility.yul\":2646:2711   */\n      swap1\n      pop\n        /* \"#utility.yul\":2591:2717   */\n      swap2\n      swap1\n      pop\n      jump\t// out\n        /* \"#utility.yul\":2723:2819   */\n    tag_39:\n        /* \"#utility.yul\":2760:2767   */\n      0x00\n        /* \"#utility.yul\":2789:2813   */\n      tag_74\n        /* \"#utility.yul\":2807:2812   */\n      dup3\n        /* \"#utility.yul\":2789:2813   */\n      tag_38\n      jump\t// in\n    tag_74:\n        /* \"#utility.yul\":2778:2813   */\n      swap1\n      pop\n        /* \"#utility.yul\":2723:2819   */\n      swap2\n      swap1\n      pop\n      jump\t// out\n        /* \"#utility.yul\":2825:2943   */\n    tag_40:\n        /* \"#utility.yul\":2912:2936   */\n      tag_76\n        /* \"#utility.yul\":2930:2935   */\n      dup2\n        /* \"#utility.yul\":2912:2936   */\n      tag_39\n      jump\t// in\n    tag_76:\n        /* \"#utility.yul\":2907:2910   */\n      dup3\n        /* \"#utility.yul\":2900:2937   */\n      mstore\n        /* \"#utility.yul\":2825:2943   */\n      pop\n      pop\n      jump\t// out\n        /* \"#utility.yul\":2949:3171   */\n    tag_21:\n        /* \"#utility.yul\":3042:3046   */\n      0x00\n        /* \"#utility.yul\":3080:3082   */\n      0x20\n        /* \"#utility.yul\":3069:3078   */\n      dup3\n        /* \"#utility.yul\":3065:3083   */\n      add\n        /* \"#utility.yul\":3057:3083   */\n      swap1\n      pop\n        /* \"#utility.yul\":3093:3164   */\n      tag_78\n        /* \"#utility.yul\":3161:3162   */\n      0x00\n        /* \"#utility.yul\":3150:3159   */\n      dup4\n        /* \"#utility.yul\":3146:3163   */\n      add\n        /* \"#utility.yul\":3137:3143   */\n      dup5\n        /* \"#utility.yul\":3093:3164   */\n      tag_40\n      jump\t// in\n    tag_78:\n        /* \"#utility.yul\":2949:3171   */\n      swap3\n      swap2\n      pop\n      pop\n      jump\t// out\n        /* \"#utility.yul\":3177:3325   */\n    tag_41:\n        /* \"#utility.yul\":3279:3290   */\n      0x00\n        /* \"#utility.yul\":3316:3319   */\n      dup2\n        /* \"#utility.yul\":3301:3319   */\n      swap1\n      pop\n        /* \"#utility.yul\":3177:3325   */\n      swap3\n      swap2\n      pop\n      pop\n      jump\t// out\n        /* \"#utility.yul\":3331:3479   */\n    tag_42:\n        /* \"#utility.yul\":3429:3435   */\n      dup3\n        /* \"#utility.yul\":3424:3427   */\n      dup2\n        /* \"#utility.yul\":3419:3422   */\n      dup4\n        /* \"#utility.yul\":3406:3436   */\n      calldatacopy\n        /* \"#utility.yul\":3470:3471   */\n      0x00\n        /* \"#utility.yul\":3461:3467   */\n      dup4\n        /* \"#utility.yul\":3456:3459   */\n      dup4\n        /* \"#utility.yul\":3452:3468   */\n      add\n        /* \"#utility.yul\":3445:3472   */\n      mstore\n        /* \"#utility.yul\":3331:3479   */\n      pop\n      pop\n      pop\n      jump\t// out\n        /* \"#utility.yul\":3509:3839   */\n    tag_43:\n        /* \"#utility.yul\":3625:3628   */\n      0x00\n        /* \"#utility.yul\":3646:3735   */\n      tag_82\n        /* \"#utility.yul\":3728:3734   */\n      dup4\n        /* \"#utility.yul\":3723:3726   */\n      dup6\n        /* \"#utility.yul\":3646:3735   */\n      tag_41\n      jump\t// in\n    tag_82:\n        /* \"#utility.yul\":3639:3735   */\n      swap4\n      pop\n        /* \"#utility.yul\":3745:3801   */\n      tag_83\n        /* \"#utility.yul\":3794:3800   */\n      dup4\n        /* \"#utility.yul\":3789:3792   */\n      dup6\n        /* \"#utility.yul\":3782:3787   */\n      dup5\n        /* \"#utility.yul\":3745:3801   */\n      tag_42\n      jump\t// in\n    tag_83:\n        /* \"#utility.yul\":3826:3832   */\n      dup3\n        /* \"#utility.yul\":3821:3824   */\n      dup5\n        /* \"#utility.yul\":3817:3833   */\n      add\n        /* \"#utility.yul\":3810:3833   */\n      swap1\n      pop\n        /* \"#utility.yul\":3509:3839   */\n      swap4\n      swap3\n      pop\n      pop\n      pop\n      jump\t// out\n        /* \"#utility.yul\":3845:4140   */\n    tag_24:\n        /* \"#utility.yul\":3987:3990   */\n      0x00\n        /* \"#utility.yul\":4009:4114   */\n      tag_85\n        /* \"#utility.yul\":4110:4113   */\n      dup3\n        /* \"#utility.yul\":4101:4107   */\n      dup5\n        /* \"#utility.yul\":4093:4099   */\n      dup7\n        /* \"#utility.yul\":4009:4114   */\n      tag_43\n      jump\t// in\n    tag_85:\n        /* \"#utility.yul\":4002:4114   */\n      swap2\n      pop\n        /* \"#utility.yul\":4131:4134   */\n      dup2\n        /* \"#utility.yul\":4124:4134   */\n      swap1\n      pop\n        /* \"#utility.yul\":3845:4140   */\n      swap4\n      swap3\n      pop\n      pop\n      pop\n      jump\t// out\n\n    auxdata: 0xa2646970667358221220b5228ca031175aa65acdc412f29d569a143c8c3e021b349a9295c0eadc6af9d164736f6c634300081a0033\n}\n",
				"bytecode": {
					"linkReferences": {},
					"object": "608060405234801561000f575f80fd5b506040516106cc3803806106cc8339818101604052810190610031919061021e565b335f806101000a81548173ffffffffffffffffffffffffffffffffffffffff021916908373ffffffffffffffffffffffffffffffffffffffff1602179055508160405160200161008191906102d8565b60405160208183030381529060405280519060200120600181905550806040516020016100ae91906102d8565b6040516020818303038152906040528051906020012060028190555050506102ee565b5f604051905090565b5f80fd5b5f80fd5b5f80fd5b5f80fd5b5f601f19601f8301169050919050565b7f4e487b71000000000000000000000000000000000000000000000000000000005f52604160045260245ffd5b610130826100ea565b810181811067ffffffffffffffff8211171561014f5761014e6100fa565b5b80604052505050565b5f6101616100d1565b905061016d8282610127565b919050565b5f67ffffffffffffffff82111561018c5761018b6100fa565b5b610195826100ea565b9050602081019050919050565b8281835e5f83830152505050565b5f6101c26101bd84610172565b610158565b9050828152602081018484840111156101de576101dd6100e6565b5b6101e98482856101a2565b509392505050565b5f82601f830112610205576102046100e2565b5b81516102158482602086016101b0565b91505092915050565b5f8060408385031215610234576102336100da565b5b5f83015167ffffffffffffffff811115610251576102506100de565b5b61025d858286016101f1565b925050602083015167ffffffffffffffff81111561027e5761027d6100de565b5b61028a858286016101f1565b9150509250929050565b5f81519050919050565b5f81905092915050565b5f6102b282610294565b6102bc818561029e565b93506102cc8185602086016101a2565b80840191505092915050565b5f6102e382846102a8565b915081905092915050565b6103d1806102fb5f395ff3fe608060405234801561000f575f80fd5b506004361061004a575f3560e01c80631459786f1461004e5780631dd17d9a1461006c57806358467dbc1461008a5780638da5cb5b146100a6575b5f80fd5b6100566100c4565b60405161006391906101ef565b60405180910390f35b6100746100ca565b60405161008191906101ef565b60405180910390f35b6100a4600480360381019061009f9190610271565b6100d0565b005b6100ae6101b4565b6040516100bb919061032e565b60405180910390f35b60015481565b60025481565b83836040516020016100e3929190610383565b6040516020818303038152906040528051906020012060015414801561013257508181604051602001610117929190610383565b60405160208183030381529060405280519060200120600254145b156101ae57335f806101000a81548173ffffffffffffffffffffffffffffffffffffffff021916908373ffffffffffffffffffffffffffffffffffffffff1602179055507fb3d6eaef4d98b00494b288bda707c44ad54c7188038bdec442390a066533f490336040516101a5919061032e565b60405180910390a15b50505050565b5f8054906101000a900473ffffffffffffffffffffffffffffffffffffffff1681565b5f819050919050565b6101e9816101d7565b82525050565b5f6020820190506102025f8301846101e0565b92915050565b5f80fd5b5f80fd5b5f80fd5b5f80fd5b5f80fd5b5f8083601f84011261023157610230610210565b5b8235905067ffffffffffffffff81111561024e5761024d610214565b5b60208301915083600182028301111561026a57610269610218565b5b9250929050565b5f805f806040858703121561028957610288610208565b5b5f85013567ffffffffffffffff8111156102a6576102a561020c565b5b6102b28782880161021c565b9450945050602085013567ffffffffffffffff8111156102d5576102d461020c565b5b6102e18782880161021c565b925092505092959194509250565b5f73ffffffffffffffffffffffffffffffffffffffff82169050919050565b5f610318826102ef565b9050919050565b6103288161030e565b82525050565b5f6020820190506103415f83018461031f565b92915050565b5f81905092915050565b828183375f83830152505050565b5f61036a8385610347565b9350610377838584610351565b82840190509392505050565b5f61038f82848661035f565b9150819050939250505056fea2646970667358221220b5228ca031175aa65acdc412f29d569a143c8c3e021b349a9295c0eadc6af9d164736f6c634300081a0033",
					"opcodes": "PUSH1 0x80 PUSH1 0x40 MSTORE CALLVALUE DUP1 ISZERO PUSH2 0xF JUMPI PUSH0 DUP1 REVERT JUMPDEST POP PUSH1 0x40 MLOAD PUSH2 0x6CC CODESIZE SUB DUP1 PUSH2 0x6CC DUP4 CODECOPY DUP2 DUP2 ADD PUSH1 0x40 MSTORE DUP2 ADD SWAP1 PUSH2 0x31 SWAP2 SWAP1 PUSH2 0x21E JUMP JUMPDEST CALLER PUSH0 DUP1 PUSH2 0x100 EXP DUP2 SLOAD DUP2 PUSH20 0xFFFFFFFFFFFFFFFFFFFFFFFFFFFFFFFFFFFFFFFF MUL NOT AND SWAP1 DUP4 PUSH20 0xFFFFFFFFFFFFFFFFFFFFFFFFFFFFFFFFFFFFFFFF AND MUL OR SWAP1 SSTORE POP DUP2 PUSH1 0x40 MLOAD PUSH1 0x20 ADD PUSH2 0x81 SWAP2 SWAP1 PUSH2 0x2D8 JUMP JUMPDEST PUSH1 0x40 MLOAD PUSH1 0x20 DUP2 DUP4 SUB SUB DUP2 MSTORE SWAP1 PUSH1 0x40 MSTORE DUP1 MLOAD SWAP1 PUSH1 0x20 ADD KECCAK256 PUSH1 0x1 DUP2 SWAP1 SSTORE POP DUP1 PUSH1 0x40 MLOAD PUSH1 0x20 ADD PUSH2 0xAE SWAP2 SWAP1 PUSH2 0x2D8 JUMP JUMPDEST PUSH1 0x40 MLOAD PUSH1 0x20 DUP2 DUP4 SUB SUB DUP2 MSTORE SWAP1 PUSH1 0x40 MSTORE DUP1 MLOAD SWAP1 PUSH1 0x20 ADD KECCAK256 PUSH1 0x2 DUP2 SWAP1 SSTORE POP POP POP PUSH2 0x2EE JUMP JUMPDEST PUSH0 PUSH1 0x40 MLOAD SWAP1 POP SWAP1 JUMP JUMPDEST PUSH0 DUP1 REVERT JUMPDEST PUSH0 DUP1 REVERT JUMPDEST PUSH0 DUP1 REVERT JUMPDEST PUSH0 DUP1 REVERT JUMPDEST PUSH0 PUSH1 0x1F NOT PUSH1 0x1F DUP4 ADD AND SWAP1 POP SWAP2 SWAP1 POP JUMP JUMPDEST PUSH32 0x4E487B7100000000000000000000000000000000000000000000000000000000 PUSH0 MSTORE PUSH1 0x41 PUSH1 0x4 MSTORE PUSH1 0x24 PUSH0 REVERT JUMPDEST PUSH2 0x130 DUP3 PUSH2 0xEA JUMP JUMPDEST DUP2 ADD DUP2 DUP2 LT PUSH8 0xFFFFFFFFFFFFFFFF DUP3 GT OR ISZERO PUSH2 0x14F JUMPI PUSH2 0x14E PUSH2 0xFA JUMP JUMPDEST JUMPDEST DUP1 PUSH1 0x40 MSTORE POP POP POP JUMP JUMPDEST PUSH0 PUSH2 0x161 PUSH2 0xD1 JUMP JUMPDEST SWAP1 POP PUSH2 0x16D DUP3 DUP3 PUSH2 0x127 JUMP JUMPDEST SWAP2 SWAP1 POP JUMP JUMPDEST PUSH0 PUSH8 0xFFFFFFFFFFFFFFFF DUP3 GT ISZERO PUSH2 0x18C JUMPI PUSH2 0x18B PUSH2 0xFA JUMP JUMPDEST JUMPDEST PUSH2 0x195 DUP3 PUSH2 0xEA JUMP JUMPDEST SWAP1 POP PUSH1 0x20 DUP2 ADD SWAP1 POP SWAP2 SWAP1 POP JUMP JUMPDEST DUP3 DUP2 DUP4 MCOPY PUSH0 DUP4 DUP4 ADD MSTORE POP POP POP JUMP JUMPDEST PUSH0 PUSH2 0x1C2 PUSH2 0x1BD DUP5 PUSH2 0x172 JUMP JUMPDEST PUSH2 0x158 JUMP JUMPDEST SWAP1 POP DUP3 DUP2 MSTORE PUSH1 0x20 DUP2 ADD DUP5 DUP5 DUP5 ADD GT ISZERO PUSH2 0x1DE JUMPI PUSH2 0x1DD PUSH2 0xE6 JUMP JUMPDEST JUMPDEST PUSH2 0x1E9 DUP5 DUP3 DUP6 PUSH2 0x1A2 JUMP JUMPDEST POP SWAP4 SWAP3 POP POP POP JUMP JUMPDEST PUSH0 DUP3 PUSH1 0x1F DUP4 ADD SLT PUSH2 0x205 JUMPI PUSH2 0x204 PUSH2 0xE2 JUMP JUMPDEST JUMPDEST DUP2 MLOAD PUSH2 0x215 DUP5 DUP3 PUSH1 0x20 DUP7 ADD PUSH2 0x1B0 JUMP JUMPDEST SWAP2 POP POP SWAP3 SWAP2 POP POP JUMP JUMPDEST PUSH0 DUP1 PUSH1 0x40 DUP4 DUP6 SUB SLT ISZERO PUSH2 0x234 JUMPI PUSH2 0x233 PUSH2 0xDA JUMP JUMPDEST JUMPDEST PUSH0 DUP4 ADD MLOAD PUSH8 0xFFFFFFFFFFFFFFFF DUP2 GT ISZERO PUSH2 0x251 JUMPI PUSH2 0x250 PUSH2 0xDE JUMP JUMPDEST JUMPDEST PUSH2 0x25D DUP6 DUP3 DUP7 ADD PUSH2 0x1F1 JUMP JUMPDEST SWAP3 POP POP PUSH1 0x20 DUP4 ADD MLOAD PUSH8 0xFFFFFFFFFFFFFFFF DUP2 GT ISZERO PUSH2 0x27E JUMPI PUSH2 0x27D PUSH2 0xDE JUMP JUMPDEST JUMPDEST PUSH2 0x28A DUP6 DUP3 DUP7 ADD PUSH2 0x1F1 JUMP JUMPDEST SWAP2 POP POP SWAP3 POP SWAP3 SWAP1 POP JUMP JUMPDEST PUSH0 DUP2 MLOAD SWAP1 POP SWAP2 SWAP1 POP JUMP JUMPDEST PUSH0 DUP2 SWAP1 POP SWAP3 SWAP2 POP POP JUMP JUMPDEST PUSH0 PUSH2 0x2B2 DUP3 PUSH2 0x294 JUMP JUMPDEST PUSH2 0x2BC DUP2 DUP6 PUSH2 0x29E JUMP JUMPDEST SWAP4 POP PUSH2 0x2CC DUP2 DUP6 PUSH1 0x20 DUP7 ADD PUSH2 0x1A2 JUMP JUMPDEST DUP1 DUP5 ADD SWAP2 POP POP SWAP3 SWAP2 POP POP JUMP JUMPDEST PUSH0 PUSH2 0x2E3 DUP3 DUP5 PUSH2 0x2A8 JUMP JUMPDEST SWAP2 POP DUP2 SWAP1 POP SWAP3 SWAP2 POP POP JUMP JUMPDEST PUSH2 0x3D1 DUP1 PUSH2 0x2FB PUSH0 CODECOPY PUSH0 RETURN INVALID PUSH1 0x80 PUSH1 0x40 MSTORE CALLVALUE DUP1 ISZERO PUSH2 0xF JUMPI PUSH0 DUP1 REVERT JUMPDEST POP PUSH1 0x4 CALLDATASIZE LT PUSH2 0x4A JUMPI PUSH0 CALLDATALOAD PUSH1 0xE0 SHR DUP1 PUSH4 0x1459786F EQ PUSH2 0x4E JUMPI DUP1 PUSH4 0x1DD17D9A EQ PUSH2 0x6C JUMPI DUP1 PUSH4 0x58467DBC EQ PUSH2 0x8A JUMPI DUP1 PUSH4 0x8DA5CB5B EQ PUSH2 0xA6 JUMPI JUMPDEST PUSH0 DUP1 REVERT JUMPDEST PUSH2 0x56 PUSH2 0xC4 JUMP JUMPDEST PUSH1 0x40 MLOAD PUSH2 0x63 SWAP2 SWAP1 PUSH2 0x1EF JUMP JUMPDEST PUSH1 0x40 MLOAD DUP1 SWAP2 SUB SWAP1 RETURN JUMPDEST PUSH2 0x74 PUSH2 0xCA JUMP JUMPDEST PUSH1 0x40 MLOAD PUSH2 0x81 SWAP2 SWAP1 PUSH2 0x1EF JUMP JUMPDEST PUSH1 0x40 MLOAD DUP1 SWAP2 SUB SWAP1 RETURN JUMPDEST PUSH2 0xA4 PUSH1 0x4 DUP1 CALLDATASIZE SUB DUP2 ADD SWAP1 PUSH2 0x9F SWAP2 SWAP1 PUSH2 0x271 JUMP JUMPDEST PUSH2 0xD0 JUMP JUMPDEST STOP JUMPDEST PUSH2 0xAE PUSH2 0x1B4 JUMP JUMPDEST PUSH1 0x40 MLOAD PUSH2 0xBB SWAP2 SWAP1 PUSH2 0x32E JUMP JUMPDEST PUSH1 0x40 MLOAD DUP1 SWAP2 SUB SWAP1 RETURN JUMPDEST PUSH1 0x1 SLOAD DUP2 JUMP JUMPDEST PUSH1 0x2 SLOAD DUP2 JUMP JUMPDEST DUP4 DUP4 PUSH1 0x40 MLOAD PUSH1 0x20 ADD PUSH2 0xE3 SWAP3 SWAP2 SWAP1 PUSH2 0x383 JUMP JUMPDEST PUSH1 0x40 MLOAD PUSH1 0x20 DUP2 DUP4 SUB SUB DUP2 MSTORE SWAP1 PUSH1 0x40 MSTORE DUP1 MLOAD SWAP1 PUSH1 0x20 ADD KECCAK256 PUSH1 0x1 SLOAD EQ DUP1 ISZERO PUSH2 0x132 JUMPI POP DUP2 DUP2 PUSH1 0x40 MLOAD PUSH1 0x20 ADD PUSH2 0x117 SWAP3 SWAP2 SWAP1 PUSH2 0x383 JUMP JUMPDEST PUSH1 0x40 MLOAD PUSH1 0x20 DUP2 DUP4 SUB SUB DUP2 MSTORE SWAP1 PUSH1 0x40 MSTORE DUP1 MLOAD SWAP1 PUSH1 0x20 ADD KECCAK256 PUSH1 0x2 SLOAD EQ JUMPDEST ISZERO PUSH2 0x1AE JUMPI CALLER PUSH0 DUP1 PUSH2 0x100 EXP DUP2 SLOAD DUP2 PUSH20 0xFFFFFFFFFFFFFFFFFFFFFFFFFFFFFFFFFFFFFFFF MUL NOT AND SWAP1 DUP4 PUSH20 0xFFFFFFFFFFFFFFFFFFFFFFFFFFFFFFFFFFFFFFFF AND MUL OR SWAP1 SSTORE POP PUSH32 0xB3D6EAEF4D98B00494B288BDA707C44AD54C7188038BDEC442390A066533F490 CALLER PUSH1 0x40 MLOAD PUSH2 0x1A5 SWAP2 SWAP1 PUSH2 0x32E JUMP JUMPDEST PUSH1 0x40 MLOAD DUP1 SWAP2 SUB SWAP1 LOG1 JUMPDEST POP POP POP POP JUMP JUMPDEST PUSH0 DUP1 SLOAD SWAP1 PUSH2 0x100 EXP SWAP1 DIV PUSH20 0xFFFFFFFFFFFFFFFFFFFFFFFFFFFFFFFFFFFFFFFF AND DUP2 JUMP JUMPDEST PUSH0 DUP2 SWAP1 POP SWAP2 SWAP1 POP JUMP JUMPDEST PUSH2 0x1E9 DUP2 PUSH2 0x1D7 JUMP JUMPDEST DUP3 MSTORE POP POP JUMP JUMPDEST PUSH0 PUSH1 0x20 DUP3 ADD SWAP1 POP PUSH2 0x202 PUSH0 DUP4 ADD DUP5 PUSH2 0x1E0 JUMP JUMPDEST SWAP3 SWAP2 POP POP JUMP JUMPDEST PUSH0 DUP1 REVERT JUMPDEST PUSH0 DUP1 REVERT JUMPDEST PUSH0 DUP1 REVERT JUMPDEST PUSH0 DUP1 REVERT JUMPDEST PUSH0 DUP1 REVERT JUMPDEST PUSH0 DUP1 DUP4 PUSH1 0x1F DUP5 ADD SLT PUSH2 0x231 JUMPI PUSH2 0x230 PUSH2 0x210 JUMP JUMPDEST JUMPDEST DUP3 CALLDATALOAD SWAP1 POP PUSH8 0xFFFFFFFFFFFFFFFF DUP2 GT ISZERO PUSH2 0x24E JUMPI PUSH2 0x24D PUSH2 0x214 JUMP JUMPDEST JUMPDEST PUSH1 0x20 DUP4 ADD SWAP2 POP DUP4 PUSH1 0x1 DUP3 MUL DUP4 ADD GT ISZERO PUSH2 0x26A JUMPI PUSH2 0x269 PUSH2 0x218 JUMP JUMPDEST JUMPDEST SWAP3 POP SWAP3 SWAP1 POP JUMP JUMPDEST PUSH0 DUP1 PUSH0 DUP1 PUSH1 0x40 DUP6 DUP8 SUB SLT ISZERO PUSH2 0x289 JUMPI PUSH2 0x288 PUSH2 0x208 JUMP JUMPDEST JUMPDEST PUSH0 DUP6 ADD CALLDATALOAD PUSH8 0xFFFFFFFFFFFFFFFF DUP2 GT ISZERO PUSH2 0x2A6 JUMPI PUSH2 0x2A5 PUSH2 0x20C JUMP JUMPDEST JUMPDEST PUSH2 0x2B2 DUP8 DUP3 DUP9 ADD PUSH2 0x21C JUMP JUMPDEST SWAP5 POP SWAP5 POP POP PUSH1 0x20 DUP6 ADD CALLDATALOAD PUSH8 0xFFFFFFFFFFFFFFFF DUP2 GT ISZERO PUSH2 0x2D5 JUMPI PUSH2 0x2D4 PUSH2 0x20C JUMP JUMPDEST JUMPDEST PUSH2 0x2E1 DUP8 DUP3 DUP9 ADD PUSH2 0x21C JUMP JUMPDEST SWAP3 POP SWAP3 POP POP SWAP3 SWAP6 SWAP2 SWAP5 POP SWAP3 POP JUMP JUMPDEST PUSH0 PUSH20 0xFFFFFFFFFFFFFFFFFFFFFFFFFFFFFFFFFFFFFFFF DUP3 AND SWAP1 POP SWAP2 SWAP1 POP JUMP JUMPDEST PUSH0 PUSH2 0x318 DUP3 PUSH2 0x2EF JUMP JUMPDEST SWAP1 POP SWAP2 SWAP1 POP JUMP JUMPDEST PUSH2 0x328 DUP2 PUSH2 0x30E JUMP JUMPDEST DUP3 MSTORE POP POP JUMP JUMPDEST PUSH0 PUSH1 0x20 DUP3 ADD SWAP1 POP PUSH2 0x341 PUSH0 DUP4 ADD DUP5 PUSH2 0x31F JUMP JUMPDEST SWAP3 SWAP2 POP POP JUMP JUMPDEST PUSH0 DUP2 SWAP1 POP SWAP3 SWAP2 POP POP JUMP JUMPDEST DUP3 DUP2 DUP4 CALLDATACOPY PUSH0 DUP4 DUP4 ADD MSTORE POP POP POP JUMP JUMPDEST PUSH0 PUSH2 0x36A DUP4 DUP6 PUSH2 0x347 JUMP JUMPDEST SWAP4 POP PUSH2 0x377 DUP4 DUP6 DUP5 PUSH2 0x351 JUMP JUMPDEST DUP3 DUP5 ADD SWAP1 POP SWAP4 SWAP3 POP POP POP JUMP JUMPDEST PUSH0 PUSH2 0x38F DUP3 DUP5 DUP7 PUSH2 0x35F JUMP JUMPDEST SWAP2 POP DUP2 SWAP1 POP SWAP4 SWAP3 POP POP POP JUMP INVALID LOG2 PUSH5 0x6970667358 0x22 SLT KECCAK256 0xB5 0x22 DUP13 LOG0 BALANCE OR GAS 0xA6 GAS 0xCD 0xC4 SLT CALLCODE SWAP14 JUMP SWAP11 EQ EXTCODECOPY DUP13 RETURNDATACOPY MUL SHL CALLVALUE SWAP11 SWAP3 SWAP6 0xC0 0xEA 0xDC PUSH11 0xF9D164736F6C634300081A STOP CALLER "
				},
				"gasEstimates": {
					"creation": {
						"codeDepositCost": "195400",
						"executionCost": "infinite",
						"totalCost": "infinite"
					},
					"external": {
						"login(string,string)": "infinite",
						"owner()": "2549",
						"passWordHash()": "2425",
						"userNameHash()": "2403"
					}
				},
				"methodIdentifiers": {
					"login(string,string)": "58467dbc",
					"owner()": "8da5cb5b",
					"passWordHash()": "1dd17d9a",
					"userNameHash()": "1459786f"
				}
			},
			"storageLayout": {
				"storage": [
					{
						"astId": 3,
						"contract": "contracts/walletSC.sol:Wallet",
						"label": "owner",
						"offset": 0,
						"slot": "0",
						"type": "t_address"
					},
					{
						"astId": 5,
						"contract": "contracts/walletSC.sol:Wallet",
						"label": "userNameHash",
						"offset": 0,
						"slot": "1",
						"type": "t_bytes32"
					},
					{
						"astId": 7,
						"contract": "contracts/walletSC.sol:Wallet",
						"label": "passWordHash",
						"offset": 0,
						"slot": "2",
						"type": "t_bytes32"
					}
				],
				"types": {
					"t_address": {
						"encoding": "inplace",
						"label": "address",
						"numberOfBytes": "20"
					},
					"t_bytes32": {
						"encoding": "inplace",
						"label": "bytes32",
						"numberOfBytes": "32"
					}
				}
			},
			"userdoc": {
				"kind": "user",
				"methods": {},
				"version": 1
			}
		}
	}
}